{
  "contractName": "InsuranceNFT",
  "abi": [
    {
      "inputs": [
        {
          "internalType": "address",
          "name": "_verifyAddress",
          "type": "address"
        },
        {
          "internalType": "address payable",
          "name": "_DAOAddress",
          "type": "address"
        }
      ],
      "stateMutability": "nonpayable",
      "type": "constructor"
    },
    {
      "anonymous": false,
      "inputs": [
        {
          "indexed": true,
          "internalType": "address",
          "name": "owner",
          "type": "address"
        },
        {
          "indexed": true,
          "internalType": "address",
          "name": "approved",
          "type": "address"
        },
        {
          "indexed": true,
          "internalType": "uint256",
          "name": "tokenId",
          "type": "uint256"
        }
      ],
      "name": "Approval",
      "type": "event"
    },
    {
      "anonymous": false,
      "inputs": [
        {
          "indexed": true,
          "internalType": "address",
          "name": "owner",
          "type": "address"
        },
        {
          "indexed": true,
          "internalType": "address",
          "name": "operator",
          "type": "address"
        },
        {
          "indexed": false,
          "internalType": "bool",
          "name": "approved",
          "type": "bool"
        }
      ],
      "name": "ApprovalForAll",
      "type": "event"
    },
    {
      "anonymous": false,
      "inputs": [
        {
          "indexed": true,
          "internalType": "address",
          "name": "_to",
          "type": "address"
        },
        {
          "indexed": true,
          "internalType": "string",
          "name": "_tokenURI",
          "type": "string"
        }
      ],
      "name": "NFTMinted",
      "type": "event"
    },
    {
      "anonymous": false,
      "inputs": [
        {
          "indexed": true,
          "internalType": "address",
          "name": "previousOwner",
          "type": "address"
        },
        {
          "indexed": true,
          "internalType": "address",
          "name": "newOwner",
          "type": "address"
        }
      ],
      "name": "OwnershipTransferred",
      "type": "event"
    },
    {
      "anonymous": false,
      "inputs": [
        {
          "indexed": false,
          "internalType": "address",
          "name": "_caller",
          "type": "address"
        },
        {
          "indexed": false,
          "internalType": "uint256",
          "name": "_value",
          "type": "uint256"
        }
      ],
      "name": "ReceiveCalled",
      "type": "event"
    },
    {
      "anonymous": false,
      "inputs": [
        {
          "indexed": true,
          "internalType": "address",
          "name": "from",
          "type": "address"
        },
        {
          "indexed": true,
          "internalType": "address",
          "name": "to",
          "type": "address"
        },
        {
          "indexed": true,
          "internalType": "uint256",
          "name": "tokenId",
          "type": "uint256"
        }
      ],
      "name": "Transfer",
      "type": "event"
    },
    {
      "inputs": [
        {
          "internalType": "address",
          "name": "to",
          "type": "address"
        },
        {
          "internalType": "uint256",
          "name": "tokenId",
          "type": "uint256"
        }
      ],
      "name": "approve",
      "outputs": [],
      "stateMutability": "nonpayable",
      "type": "function"
    },
    {
      "inputs": [
        {
          "internalType": "address",
          "name": "owner",
          "type": "address"
        }
      ],
      "name": "balanceOf",
      "outputs": [
        {
          "internalType": "uint256",
          "name": "",
          "type": "uint256"
        }
      ],
      "stateMutability": "view",
      "type": "function",
      "constant": true
    },
    {
      "inputs": [],
      "name": "currentTokenIdMax",
      "outputs": [
        {
          "internalType": "uint256",
          "name": "",
          "type": "uint256"
        }
      ],
      "stateMutability": "view",
      "type": "function",
      "constant": true
    },
    {
      "inputs": [
        {
          "internalType": "uint256",
          "name": "tokenId",
          "type": "uint256"
        }
      ],
      "name": "getApproved",
      "outputs": [
        {
          "internalType": "address",
          "name": "",
          "type": "address"
        }
      ],
      "stateMutability": "view",
      "type": "function",
      "constant": true
    },
    {
      "inputs": [
        {
          "internalType": "address",
          "name": "owner",
          "type": "address"
        },
        {
          "internalType": "address",
          "name": "operator",
          "type": "address"
        }
      ],
      "name": "isApprovedForAll",
      "outputs": [
        {
          "internalType": "bool",
          "name": "",
          "type": "bool"
        }
      ],
      "stateMutability": "view",
      "type": "function",
      "constant": true
    },
    {
      "inputs": [
        {
          "internalType": "address",
          "name": "",
          "type": "address"
        }
      ],
      "name": "lastBlockNumberUpdate",
      "outputs": [
        {
          "internalType": "uint256",
          "name": "",
          "type": "uint256"
        }
      ],
      "stateMutability": "view",
      "type": "function",
      "constant": true
    },
    {
      "inputs": [
        {
          "internalType": "address",
          "name": "",
          "type": "address"
        }
      ],
      "name": "lastTimeStampNFTUsed",
      "outputs": [
        {
          "internalType": "uint256",
          "name": "",
          "type": "uint256"
        }
      ],
      "stateMutability": "view",
      "type": "function",
      "constant": true
    },
    {
      "inputs": [],
      "name": "name",
      "outputs": [
        {
          "internalType": "string",
          "name": "",
          "type": "string"
        }
      ],
      "stateMutability": "view",
      "type": "function",
      "constant": true
    },
    {
      "inputs": [],
      "name": "owner",
      "outputs": [
        {
          "internalType": "address",
          "name": "",
          "type": "address"
        }
      ],
      "stateMutability": "view",
      "type": "function",
      "constant": true
    },
    {
      "inputs": [
        {
          "internalType": "uint256",
          "name": "tokenId",
          "type": "uint256"
        }
      ],
      "name": "ownerOf",
      "outputs": [
        {
          "internalType": "address",
          "name": "",
          "type": "address"
        }
      ],
      "stateMutability": "view",
      "type": "function",
      "constant": true
    },
    {
      "inputs": [],
      "name": "renounceOwnership",
      "outputs": [],
      "stateMutability": "nonpayable",
      "type": "function"
    },
    {
      "inputs": [
        {
          "internalType": "address",
          "name": "from",
          "type": "address"
        },
        {
          "internalType": "address",
          "name": "to",
          "type": "address"
        },
        {
          "internalType": "uint256",
          "name": "tokenId",
          "type": "uint256"
        }
      ],
      "name": "safeTransferFrom",
      "outputs": [],
      "stateMutability": "nonpayable",
      "type": "function"
    },
    {
      "inputs": [
        {
          "internalType": "address",
          "name": "from",
          "type": "address"
        },
        {
          "internalType": "address",
          "name": "to",
          "type": "address"
        },
        {
          "internalType": "uint256",
          "name": "tokenId",
          "type": "uint256"
        },
        {
          "internalType": "bytes",
          "name": "_data",
          "type": "bytes"
        }
      ],
      "name": "safeTransferFrom",
      "outputs": [],
      "stateMutability": "nonpayable",
      "type": "function"
    },
    {
      "inputs": [
        {
          "internalType": "address",
          "name": "operator",
          "type": "address"
        },
        {
          "internalType": "bool",
          "name": "approved",
          "type": "bool"
        }
      ],
      "name": "setApprovalForAll",
      "outputs": [],
      "stateMutability": "nonpayable",
      "type": "function"
    },
    {
      "inputs": [
        {
          "internalType": "bytes4",
          "name": "interfaceId",
          "type": "bytes4"
        }
      ],
      "name": "supportsInterface",
      "outputs": [
        {
          "internalType": "bool",
          "name": "",
          "type": "bool"
        }
      ],
      "stateMutability": "view",
      "type": "function",
      "constant": true
    },
    {
      "inputs": [],
      "name": "symbol",
      "outputs": [
        {
          "internalType": "string",
          "name": "",
          "type": "string"
        }
      ],
      "stateMutability": "view",
      "type": "function",
      "constant": true
    },
    {
      "inputs": [
        {
          "internalType": "uint256",
          "name": "tokenId",
          "type": "uint256"
        }
      ],
      "name": "tokenURI",
      "outputs": [
        {
          "internalType": "string",
          "name": "",
          "type": "string"
        }
      ],
      "stateMutability": "view",
      "type": "function",
      "constant": true
    },
    {
      "inputs": [
        {
          "internalType": "address",
          "name": "from",
          "type": "address"
        },
        {
          "internalType": "address",
          "name": "to",
          "type": "address"
        },
        {
          "internalType": "uint256",
          "name": "tokenId",
          "type": "uint256"
        }
      ],
      "name": "transferFrom",
      "outputs": [],
      "stateMutability": "nonpayable",
      "type": "function"
    },
    {
      "inputs": [
        {
          "internalType": "address",
          "name": "newOwner",
          "type": "address"
        }
      ],
      "name": "transferOwnership",
      "outputs": [],
      "stateMutability": "nonpayable",
      "type": "function"
    },
    {
      "stateMutability": "payable",
      "type": "receive",
      "payable": true
    },
    {
      "inputs": [
        {
          "internalType": "string",
          "name": "_tokenURI",
          "type": "string"
        },
        {
          "internalType": "uint256",
          "name": "lastTimeStamp",
          "type": "uint256"
        },
        {
          "internalType": "bytes32",
          "name": "r",
          "type": "bytes32"
        },
        {
          "internalType": "bytes32",
          "name": "s",
          "type": "bytes32"
        },
        {
          "internalType": "uint8",
          "name": "v",
          "type": "uint8"
        }
      ],
      "name": "mintTokens",
      "outputs": [],
      "stateMutability": "nonpayable",
      "type": "function"
    },
    {
      "inputs": [
        {
          "internalType": "uint256",
          "name": "_tokenId",
          "type": "uint256"
        },
        {
          "internalType": "string",
          "name": "_newTokenURI",
          "type": "string"
        },
        {
          "internalType": "uint256",
          "name": "lastTimeStamp",
          "type": "uint256"
        },
        {
          "internalType": "bytes32",
          "name": "r",
          "type": "bytes32"
        },
        {
          "internalType": "bytes32",
          "name": "s",
          "type": "bytes32"
        },
        {
          "internalType": "uint8",
          "name": "v",
          "type": "uint8"
        }
      ],
      "name": "updateTokenURI",
      "outputs": [],
      "stateMutability": "nonpayable",
      "type": "function"
    },
    {
      "inputs": [
        {
          "internalType": "address payable",
          "name": "_DAOAddress",
          "type": "address"
        }
      ],
      "name": "setDAOContract",
      "outputs": [],
      "stateMutability": "nonpayable",
      "type": "function"
    },
    {
      "inputs": [
        {
          "internalType": "address",
          "name": "tokenAddress",
          "type": "address"
        }
      ],
      "name": "getTokensByAddr",
      "outputs": [
        {
          "internalType": "uint256[]",
          "name": "",
          "type": "uint256[]"
        }
      ],
      "stateMutability": "view",
      "type": "function",
      "constant": true
    },
    {
      "inputs": [],
      "name": "withdrawToWallet",
      "outputs": [],
      "stateMutability": "nonpayable",
      "type": "function"
    }
  ],
  "bytecode": "0x60806040523480156200001157600080fd5b50604051620043a4380380620043a48339818101604052810190620000379190620003ae565b6040518060400160405280600f81526020017f496f54657820496e737572616e636500000000000000000000000000000000008152506040518060400160405280600581526020017f494f5458490000000000000000000000000000000000000000000000000000008152508160009080519060200190620000bb9291906200024f565b508060019080519060200190620000d49291906200024f565b505050620000f7620000eb6200018160201b60201c565b6200018960201b60201c565b81600a60006101000a81548173ffffffffffffffffffffffffffffffffffffffff021916908373ffffffffffffffffffffffffffffffffffffffff16021790555080600960006101000a81548173ffffffffffffffffffffffffffffffffffffffff021916908373ffffffffffffffffffffffffffffffffffffffff16021790555050506200045a565b600033905090565b6000600760009054906101000a900473ffffffffffffffffffffffffffffffffffffffff16905081600760006101000a81548173ffffffffffffffffffffffffffffffffffffffff021916908373ffffffffffffffffffffffffffffffffffffffff1602179055508173ffffffffffffffffffffffffffffffffffffffff168173ffffffffffffffffffffffffffffffffffffffff167f8be0079c531659141344cd1fd0a4f28419497f9722a3daafe3b4186f6b6457e060405160405180910390a35050565b8280546200025d9062000424565b90600052602060002090601f016020900481019282620002815760008555620002cd565b82601f106200029c57805160ff1916838001178555620002cd565b82800160010185558215620002cd579182015b82811115620002cc578251825591602001919060010190620002af565b5b509050620002dc9190620002e0565b5090565b5b80821115620002fb576000816000905550600101620002e1565b5090565b600080fd5b600073ffffffffffffffffffffffffffffffffffffffff82169050919050565b6000620003318262000304565b9050919050565b620003438162000324565b81146200034f57600080fd5b50565b600081519050620003638162000338565b92915050565b6000620003768262000304565b9050919050565b620003888162000369565b81146200039457600080fd5b50565b600081519050620003a8816200037d565b92915050565b60008060408385031215620003c857620003c7620002ff565b5b6000620003d88582860162000352565b9250506020620003eb8582860162000397565b9150509250929050565b7f4e487b7100000000000000000000000000000000000000000000000000000000600052602260045260246000fd5b600060028204905060018216806200043d57607f821691505b60208210811415620004545762000453620003f5565b5b50919050565b613f3a806200046a6000396000f3fe60806040526004361061014f5760003560e01c80636352211e116100b6578063b88d4fde1161006f578063b88d4fde146104d2578063be24203d146104fb578063c32afb9814610538578063c87b56dd14610561578063e985e9c51461059e578063f2fde38b146105db5761018f565b80636352211e146103c257806370a08231146103ff578063715018a61461043c5780638da5cb5b1461045357806395d89b411461047e578063a22cb465146104a95761018f565b806312c0d1891161010857806312c0d189146102a457806323b872dd146102e15780632c8758171461030a578063425d512a1461033357806342842e0e1461035c5780634fb2c193146103855761018f565b806301ffc9a71461019457806303ba27f6146101d157806306fdde03146101e8578063081812fc14610213578063095ea7b3146102505780631287310e146102795761018f565b3661018f577f64c983f10188c30a885d77970aa5aae9a86e80ef9b459ad33cc620eb5999e07033346040516101859291906125af565b60405180910390a1005b600080fd5b3480156101a057600080fd5b506101bb60048036038101906101b69190612644565b610604565b6040516101c8919061268c565b60405180910390f35b3480156101dd57600080fd5b506101e66106e6565b005b3480156101f457600080fd5b506101fd61076c565b60405161020a9190612740565b60405180910390f35b34801561021f57600080fd5b5061023a6004803603810190610235919061278e565b6107fe565b60405161024791906127bb565b60405180910390f35b34801561025c57600080fd5b5061027760048036038101906102729190612802565b610883565b005b34801561028557600080fd5b5061028e61099b565b60405161029b9190612842565b60405180910390f35b3480156102b057600080fd5b506102cb60048036038101906102c6919061285d565b6109a1565b6040516102d89190612842565b60405180910390f35b3480156102ed57600080fd5b506103086004803603810190610303919061288a565b6109b9565b005b34801561031657600080fd5b50610331600480360381019061032c9190612a81565b610a19565b005b34801561033f57600080fd5b5061035a60048036038101906103559190612b68565b610c3b565b005b34801561036857600080fd5b50610383600480360381019061037e919061288a565b610cfb565b005b34801561039157600080fd5b506103ac60048036038101906103a7919061285d565b610d1b565b6040516103b99190612c53565b60405180910390f35b3480156103ce57600080fd5b506103e960048036038101906103e4919061278e565b610db2565b6040516103f691906127bb565b60405180910390f35b34801561040b57600080fd5b506104266004803603810190610421919061285d565b610e64565b6040516104339190612842565b60405180910390f35b34801561044857600080fd5b50610451610f1c565b005b34801561045f57600080fd5b50610468610fa4565b60405161047591906127bb565b60405180910390f35b34801561048a57600080fd5b50610493610fce565b6040516104a09190612740565b60405180910390f35b3480156104b557600080fd5b506104d060048036038101906104cb9190612ca1565b611060565b005b3480156104de57600080fd5b506104f960048036038101906104f49190612d82565b6111e1565b005b34801561050757600080fd5b50610522600480360381019061051d919061285d565b611243565b60405161052f9190612842565b60405180910390f35b34801561054457600080fd5b5061055f600480360381019061055a9190612e05565b61125b565b005b34801561056d57600080fd5b506105886004803603810190610583919061278e565b6114f7565b6040516105959190612740565b60405180910390f35b3480156105aa57600080fd5b506105c560048036038101906105c09190612e9c565b611649565b6040516105d2919061268c565b60405180910390f35b3480156105e757600080fd5b5061060260048036038101906105fd919061285d565b6116dd565b005b60007f80ac58cd000000000000000000000000000000000000000000000000000000007bffffffffffffffffffffffffffffffffffffffffffffffffffffffff1916827bffffffffffffffffffffffffffffffffffffffffffffffffffffffff191614806106cf57507f5b5e139f000000000000000000000000000000000000000000000000000000007bffffffffffffffffffffffffffffffffffffffffffffffffffffffff1916827bffffffffffffffffffffffffffffffffffffffffffffffffffffffff1916145b806106df57506106de826117d5565b5b9050919050565b6106ee61183f565b73ffffffffffffffffffffffffffffffffffffffff1661070c610fa4565b73ffffffffffffffffffffffffffffffffffffffff1614610762576040517f08c379a000000000000000000000000000000000000000000000000000000000815260040161075990612f28565b60405180910390fd5b61076a611847565b565b60606000805461077b90612f77565b80601f01602080910402602001604051908101604052809291908181526020018280546107a790612f77565b80156107f45780601f106107c9576101008083540402835291602001916107f4565b820191906000526020600020905b8154815290600101906020018083116107d757829003601f168201915b5050505050905090565b6000610809826118fd565b610848576040517f08c379a000000000000000000000000000000000000000000000000000000000815260040161083f9061301b565b60405180910390fd5b6004600083815260200190815260200160002060009054906101000a900473ffffffffffffffffffffffffffffffffffffffff169050919050565b600061088e82610db2565b90508073ffffffffffffffffffffffffffffffffffffffff168373ffffffffffffffffffffffffffffffffffffffff1614156108ff576040517f08c379a00000000000000000000000000000000000000000000000000000000081526004016108f6906130ad565b60405180910390fd5b8073ffffffffffffffffffffffffffffffffffffffff1661091e61183f565b73ffffffffffffffffffffffffffffffffffffffff16148061094d575061094c8161094761183f565b611649565b5b61098c576040517f08c379a00000000000000000000000000000000000000000000000000000000081526004016109839061313f565b60405180910390fd5b6109968383611969565b505050565b600f5481565b600c6020528060005260406000206000915090505481565b6109ca6109c461183f565b82611a22565b610a09576040517f08c379a0000000000000000000000000000000000000000000000000000000008152600401610a00906131d1565b60405180910390fd5b610a14838383611b00565b505050565b610a2286610db2565b73ffffffffffffffffffffffffffffffffffffffff16610a4061183f565b73ffffffffffffffffffffffffffffffffffffffff1614610a96576040517f08c379a0000000000000000000000000000000000000000000000000000000008152600401610a8d9061323d565b60405180910390fd5b600a60009054906101000a900473ffffffffffffffffffffffffffffffffffffffff1673ffffffffffffffffffffffffffffffffffffffff1663cb050a7c610adc61183f565b87898787876040518763ffffffff1660e01b8152600401610b029695949392919061327b565b602060405180830381600087803b158015610b1c57600080fd5b505af1158015610b30573d6000803e3d6000fd5b505050506040513d601f19601f82011682018060405250810190610b5491906132f8565b610b93576040517f08c379a0000000000000000000000000000000000000000000000000000000008152600401610b8a90613371565b60405180910390fd5b610b9d8686611d5c565b43600c6000610baa61183f565b73ffffffffffffffffffffffffffffffffffffffff1673ffffffffffffffffffffffffffffffffffffffff1681526020019081526020016000208190555083600d6000610bf561183f565b73ffffffffffffffffffffffffffffffffffffffff1673ffffffffffffffffffffffffffffffffffffffff16815260200190815260200160002081905550505050505050565b610c4361183f565b73ffffffffffffffffffffffffffffffffffffffff16610c61610fa4565b73ffffffffffffffffffffffffffffffffffffffff1614610cb7576040517f08c379a0000000000000000000000000000000000000000000000000000000008152600401610cae90612f28565b60405180910390fd5b80600960006101000a81548173ffffffffffffffffffffffffffffffffffffffff021916908373ffffffffffffffffffffffffffffffffffffffff16021790555050565b610d16838383604051806020016040528060008152506111e1565b505050565b6060600e60008373ffffffffffffffffffffffffffffffffffffffff1673ffffffffffffffffffffffffffffffffffffffff168152602001908152602001600020805480602002602001604051908101604052809291908181526020018280548015610da657602002820191906000526020600020905b815481526020019060010190808311610d92575b50505050509050919050565b6000806002600084815260200190815260200160002060009054906101000a900473ffffffffffffffffffffffffffffffffffffffff169050600073ffffffffffffffffffffffffffffffffffffffff168173ffffffffffffffffffffffffffffffffffffffff161415610e5b576040517f08c379a0000000000000000000000000000000000000000000000000000000008152600401610e5290613403565b60405180910390fd5b80915050919050565b60008073ffffffffffffffffffffffffffffffffffffffff168273ffffffffffffffffffffffffffffffffffffffff161415610ed5576040517f08c379a0000000000000000000000000000000000000000000000000000000008152600401610ecc90613495565b60405180910390fd5b600360008373ffffffffffffffffffffffffffffffffffffffff1673ffffffffffffffffffffffffffffffffffffffff168152602001908152602001600020549050919050565b610f2461183f565b73ffffffffffffffffffffffffffffffffffffffff16610f42610fa4565b73ffffffffffffffffffffffffffffffffffffffff1614610f98576040517f08c379a0000000000000000000000000000000000000000000000000000000008152600401610f8f90612f28565b60405180910390fd5b610fa26000611dd0565b565b6000600760009054906101000a900473ffffffffffffffffffffffffffffffffffffffff16905090565b606060018054610fdd90612f77565b80601f016020809104026020016040519081016040528092919081815260200182805461100990612f77565b80156110565780601f1061102b57610100808354040283529160200191611056565b820191906000526020600020905b81548152906001019060200180831161103957829003601f168201915b5050505050905090565b61106861183f565b73ffffffffffffffffffffffffffffffffffffffff168273ffffffffffffffffffffffffffffffffffffffff1614156110d6576040517f08c379a00000000000000000000000000000000000000000000000000000000081526004016110cd90613501565b60405180910390fd5b80600560006110e361183f565b73ffffffffffffffffffffffffffffffffffffffff1673ffffffffffffffffffffffffffffffffffffffff16815260200190815260200160002060008473ffffffffffffffffffffffffffffffffffffffff1673ffffffffffffffffffffffffffffffffffffffff16815260200190815260200160002060006101000a81548160ff0219169083151502179055508173ffffffffffffffffffffffffffffffffffffffff1661119061183f565b73ffffffffffffffffffffffffffffffffffffffff167f17307eab39ab6107e8899845ad3d59bd9653f200f220920489ca2b5937696c31836040516111d5919061268c565b60405180910390a35050565b6111f26111ec61183f565b83611a22565b611231576040517f08c379a0000000000000000000000000000000000000000000000000000000008152600401611228906131d1565b60405180910390fd5b61123d84848484611e96565b50505050565b600d6020528060005260406000206000915090505481565b600a60009054906101000a900473ffffffffffffffffffffffffffffffffffffffff1673ffffffffffffffffffffffffffffffffffffffff1663cb050a7c6112a161183f565b8760008787876040518763ffffffff1660e01b81526004016112c896959493929190613566565b602060405180830381600087803b1580156112e257600080fd5b505af11580156112f6573d6000803e3d6000fd5b505050506040513d601f19601f8201168201806040525081019061131a91906132f8565b611359576040517f08c379a000000000000000000000000000000000000000000000000000000000815260040161135090613371565b60405180910390fd5b60006113656008611ef2565b61136f6008611f08565b905061138261137c61183f565b82611f16565b61138c8187611d5c565b43600c600061139961183f565b73ffffffffffffffffffffffffffffffffffffffff1673ffffffffffffffffffffffffffffffffffffffff16815260200190815260200160002081905550600e60006113e361183f565b73ffffffffffffffffffffffffffffffffffffffff1673ffffffffffffffffffffffffffffffffffffffff16815260200190815260200160002081908060018154018082558091505060019003906000526020600020016000909190919091505584600d600061145161183f565b73ffffffffffffffffffffffffffffffffffffffff1673ffffffffffffffffffffffffffffffffffffffff1681526020019081526020016000208190555080600f81905550856040516114a4919061360a565b60405180910390203373ffffffffffffffffffffffffffffffffffffffff167f371f376692dd846fa34380a8fd44c6a140dc5cd442cd8ae5657963685f17ebed60405160405180910390a3505050505050565b6060611502826118fd565b611541576040517f08c379a000000000000000000000000000000000000000000000000000000000815260040161153890613693565b60405180910390fd5b600060066000848152602001908152602001600020805461156190612f77565b80601f016020809104026020016040519081016040528092919081815260200182805461158d90612f77565b80156115da5780601f106115af576101008083540402835291602001916115da565b820191906000526020600020905b8154815290600101906020018083116115bd57829003601f168201915b5050505050905060006115eb6120e4565b9050600081511415611601578192505050611644565b60008251111561163657808260405160200161161e9291906136b3565b60405160208183030381529060405292505050611644565b61163f846120fb565b925050505b919050565b6000600560008473ffffffffffffffffffffffffffffffffffffffff1673ffffffffffffffffffffffffffffffffffffffff16815260200190815260200160002060008373ffffffffffffffffffffffffffffffffffffffff1673ffffffffffffffffffffffffffffffffffffffff16815260200190815260200160002060009054906101000a900460ff16905092915050565b6116e561183f565b73ffffffffffffffffffffffffffffffffffffffff16611703610fa4565b73ffffffffffffffffffffffffffffffffffffffff1614611759576040517f08c379a000000000000000000000000000000000000000000000000000000000815260040161175090612f28565b60405180910390fd5b600073ffffffffffffffffffffffffffffffffffffffff168173ffffffffffffffffffffffffffffffffffffffff1614156117c9576040517f08c379a00000000000000000000000000000000000000000000000000000000081526004016117c090613749565b60405180910390fd5b6117d281611dd0565b50565b60007f01ffc9a7000000000000000000000000000000000000000000000000000000007bffffffffffffffffffffffffffffffffffffffffffffffffffffffff1916827bffffffffffffffffffffffffffffffffffffffffffffffffffffffff1916149050919050565b600033905090565b6000611851610fa4565b73ffffffffffffffffffffffffffffffffffffffff16476040516118749061379a565b60006040518083038185875af1925050503d80600081146118b1576040519150601f19603f3d011682016040523d82523d6000602084013e6118b6565b606091505b50509050806118fa576040517f08c379a00000000000000000000000000000000000000000000000000000000081526004016118f1906137fb565b60405180910390fd5b50565b60008073ffffffffffffffffffffffffffffffffffffffff166002600084815260200190815260200160002060009054906101000a900473ffffffffffffffffffffffffffffffffffffffff1673ffffffffffffffffffffffffffffffffffffffff1614159050919050565b816004600083815260200190815260200160002060006101000a81548173ffffffffffffffffffffffffffffffffffffffff021916908373ffffffffffffffffffffffffffffffffffffffff160217905550808273ffffffffffffffffffffffffffffffffffffffff166119dc83610db2565b73ffffffffffffffffffffffffffffffffffffffff167f8c5be1e5ebec7d5bd14f71427d1e84f3dd0314c0f7b2291e5b200ac8c7c3b92560405160405180910390a45050565b6000611a2d826118fd565b611a6c576040517f08c379a0000000000000000000000000000000000000000000000000000000008152600401611a639061388d565b60405180910390fd5b6000611a7783610db2565b90508073ffffffffffffffffffffffffffffffffffffffff168473ffffffffffffffffffffffffffffffffffffffff161480611ae657508373ffffffffffffffffffffffffffffffffffffffff16611ace846107fe565b73ffffffffffffffffffffffffffffffffffffffff16145b80611af75750611af68185611649565b5b91505092915050565b8273ffffffffffffffffffffffffffffffffffffffff16611b2082610db2565b73ffffffffffffffffffffffffffffffffffffffff1614611b76576040517f08c379a0000000000000000000000000000000000000000000000000000000008152600401611b6d9061391f565b60405180910390fd5b600073ffffffffffffffffffffffffffffffffffffffff168273ffffffffffffffffffffffffffffffffffffffff161415611be6576040517f08c379a0000000000000000000000000000000000000000000000000000000008152600401611bdd906139b1565b60405180910390fd5b611bf18383836121a2565b611bfc600082611969565b6001600360008573ffffffffffffffffffffffffffffffffffffffff1673ffffffffffffffffffffffffffffffffffffffff1681526020019081526020016000206000828254611c4c9190613a00565b925050819055506001600360008473ffffffffffffffffffffffffffffffffffffffff1673ffffffffffffffffffffffffffffffffffffffff1681526020019081526020016000206000828254611ca39190613a34565b92505081905550816002600083815260200190815260200160002060006101000a81548173ffffffffffffffffffffffffffffffffffffffff021916908373ffffffffffffffffffffffffffffffffffffffff160217905550808273ffffffffffffffffffffffffffffffffffffffff168473ffffffffffffffffffffffffffffffffffffffff167fddf252ad1be2c89b69c2b068fc378daa952ba7f163c4a11628f55a4df523b3ef60405160405180910390a4505050565b611d65826118fd565b611da4576040517f08c379a0000000000000000000000000000000000000000000000000000000008152600401611d9b90613afc565b60405180910390fd5b80600660008481526020019081526020016000209080519060200190611dcb9291906124b2565b505050565b6000600760009054906101000a900473ffffffffffffffffffffffffffffffffffffffff16905081600760006101000a81548173ffffffffffffffffffffffffffffffffffffffff021916908373ffffffffffffffffffffffffffffffffffffffff1602179055508173ffffffffffffffffffffffffffffffffffffffff168173ffffffffffffffffffffffffffffffffffffffff167f8be0079c531659141344cd1fd0a4f28419497f9722a3daafe3b4186f6b6457e060405160405180910390a35050565b611ea1848484611b00565b611ead848484846121a7565b611eec576040517f08c379a0000000000000000000000000000000000000000000000000000000008152600401611ee390613b8e565b60405180910390fd5b50505050565b6001816000016000828254019250508190555050565b600081600001549050919050565b600073ffffffffffffffffffffffffffffffffffffffff168273ffffffffffffffffffffffffffffffffffffffff161415611f86576040517f08c379a0000000000000000000000000000000000000000000000000000000008152600401611f7d90613bfa565b60405180910390fd5b611f8f816118fd565b15611fcf576040517f08c379a0000000000000000000000000000000000000000000000000000000008152600401611fc690613c66565b60405180910390fd5b611fdb600083836121a2565b6001600360008473ffffffffffffffffffffffffffffffffffffffff1673ffffffffffffffffffffffffffffffffffffffff168152602001908152602001600020600082825461202b9190613a34565b92505081905550816002600083815260200190815260200160002060006101000a81548173ffffffffffffffffffffffffffffffffffffffff021916908373ffffffffffffffffffffffffffffffffffffffff160217905550808273ffffffffffffffffffffffffffffffffffffffff16600073ffffffffffffffffffffffffffffffffffffffff167fddf252ad1be2c89b69c2b068fc378daa952ba7f163c4a11628f55a4df523b3ef60405160405180910390a45050565b606060405180602001604052806000815250905090565b6060612106826118fd565b612145576040517f08c379a000000000000000000000000000000000000000000000000000000000815260040161213c90613cf8565b60405180910390fd5b600061214f6120e4565b9050600081511161216f576040518060200160405280600081525061219a565b806121798461233e565b60405160200161218a9291906136b3565b6040516020818303038152906040525b915050919050565b505050565b60006121c88473ffffffffffffffffffffffffffffffffffffffff1661249f565b15612331578373ffffffffffffffffffffffffffffffffffffffff1663150b7a026121f161183f565b8786866040518563ffffffff1660e01b81526004016122139493929190613d6d565b602060405180830381600087803b15801561222d57600080fd5b505af192505050801561225e57506040513d601f19601f8201168201806040525081019061225b9190613dce565b60015b6122e1573d806000811461228e576040519150601f19603f3d011682016040523d82523d6000602084013e612293565b606091505b506000815114156122d9576040517f08c379a00000000000000000000000000000000000000000000000000000000081526004016122d090613b8e565b60405180910390fd5b805181602001fd5b63150b7a0260e01b7bffffffffffffffffffffffffffffffffffffffffffffffffffffffff1916817bffffffffffffffffffffffffffffffffffffffffffffffffffffffff191614915050612336565b600190505b949350505050565b60606000821415612386576040518060400160405280600181526020017f3000000000000000000000000000000000000000000000000000000000000000815250905061249a565b600082905060005b600082146123b85780806123a190613dfb565b915050600a826123b19190613e73565b915061238e565b60008167ffffffffffffffff8111156123d4576123d36128e7565b5b6040519080825280601f01601f1916602001820160405280156124065781602001600182028036833780820191505090505b5090505b600085146124935760018261241f9190613a00565b9150600a8561242e9190613ea4565b603061243a9190613a34565b60f81b8183815181106124505761244f613ed5565b5b60200101907effffffffffffffffffffffffffffffffffffffffffffffffffffffffffffff1916908160001a905350600a8561248c9190613e73565b945061240a565b8093505050505b919050565b600080823b905060008111915050919050565b8280546124be90612f77565b90600052602060002090601f0160209004810192826124e05760008555612527565b82601f106124f957805160ff1916838001178555612527565b82800160010185558215612527579182015b8281111561252657825182559160200191906001019061250b565b5b5090506125349190612538565b5090565b5b80821115612551576000816000905550600101612539565b5090565b600073ffffffffffffffffffffffffffffffffffffffff82169050919050565b600061258082612555565b9050919050565b61259081612575565b82525050565b6000819050919050565b6125a981612596565b82525050565b60006040820190506125c46000830185612587565b6125d160208301846125a0565b9392505050565b6000604051905090565b600080fd5b600080fd5b60007fffffffff0000000000000000000000000000000000000000000000000000000082169050919050565b612621816125ec565b811461262c57600080fd5b50565b60008135905061263e81612618565b92915050565b60006020828403121561265a576126596125e2565b5b60006126688482850161262f565b91505092915050565b60008115159050919050565b61268681612671565b82525050565b60006020820190506126a1600083018461267d565b92915050565b600081519050919050565b600082825260208201905092915050565b60005b838110156126e15780820151818401526020810190506126c6565b838111156126f0576000848401525b50505050565b6000601f19601f8301169050919050565b6000612712826126a7565b61271c81856126b2565b935061272c8185602086016126c3565b612735816126f6565b840191505092915050565b6000602082019050818103600083015261275a8184612707565b905092915050565b61276b81612596565b811461277657600080fd5b50565b60008135905061278881612762565b92915050565b6000602082840312156127a4576127a36125e2565b5b60006127b284828501612779565b91505092915050565b60006020820190506127d06000830184612587565b92915050565b6127df81612575565b81146127ea57600080fd5b50565b6000813590506127fc816127d6565b92915050565b60008060408385031215612819576128186125e2565b5b6000612827858286016127ed565b925050602061283885828601612779565b9150509250929050565b600060208201905061285760008301846125a0565b92915050565b600060208284031215612873576128726125e2565b5b6000612881848285016127ed565b91505092915050565b6000806000606084860312156128a3576128a26125e2565b5b60006128b1868287016127ed565b93505060206128c2868287016127ed565b92505060406128d386828701612779565b9150509250925092565b600080fd5b600080fd5b7f4e487b7100000000000000000000000000000000000000000000000000000000600052604160045260246000fd5b61291f826126f6565b810181811067ffffffffffffffff8211171561293e5761293d6128e7565b5b80604052505050565b60006129516125d8565b905061295d8282612916565b919050565b600067ffffffffffffffff82111561297d5761297c6128e7565b5b612986826126f6565b9050602081019050919050565b82818337600083830152505050565b60006129b56129b084612962565b612947565b9050828152602081018484840111156129d1576129d06128e2565b5b6129dc848285612993565b509392505050565b600082601f8301126129f9576129f86128dd565b5b8135612a098482602086016129a2565b91505092915050565b6000819050919050565b612a2581612a12565b8114612a3057600080fd5b50565b600081359050612a4281612a1c565b92915050565b600060ff82169050919050565b612a5e81612a48565b8114612a6957600080fd5b50565b600081359050612a7b81612a55565b92915050565b60008060008060008060c08789031215612a9e57612a9d6125e2565b5b6000612aac89828a01612779565b965050602087013567ffffffffffffffff811115612acd57612acc6125e7565b5b612ad989828a016129e4565b9550506040612aea89828a01612779565b9450506060612afb89828a01612a33565b9350506080612b0c89828a01612a33565b92505060a0612b1d89828a01612a6c565b9150509295509295509295565b6000612b3582612555565b9050919050565b612b4581612b2a565b8114612b5057600080fd5b50565b600081359050612b6281612b3c565b92915050565b600060208284031215612b7e57612b7d6125e2565b5b6000612b8c84828501612b53565b91505092915050565b600081519050919050565b600082825260208201905092915050565b6000819050602082019050919050565b612bca81612596565b82525050565b6000612bdc8383612bc1565b60208301905092915050565b6000602082019050919050565b6000612c0082612b95565b612c0a8185612ba0565b9350612c1583612bb1565b8060005b83811015612c46578151612c2d8882612bd0565b9750612c3883612be8565b925050600181019050612c19565b5085935050505092915050565b60006020820190508181036000830152612c6d8184612bf5565b905092915050565b612c7e81612671565b8114612c8957600080fd5b50565b600081359050612c9b81612c75565b92915050565b60008060408385031215612cb857612cb76125e2565b5b6000612cc6858286016127ed565b9250506020612cd785828601612c8c565b9150509250929050565b600067ffffffffffffffff821115612cfc57612cfb6128e7565b5b612d05826126f6565b9050602081019050919050565b6000612d25612d2084612ce1565b612947565b905082815260208101848484011115612d4157612d406128e2565b5b612d4c848285612993565b509392505050565b600082601f830112612d6957612d686128dd565b5b8135612d79848260208601612d12565b91505092915050565b60008060008060808587031215612d9c57612d9b6125e2565b5b6000612daa878288016127ed565b9450506020612dbb878288016127ed565b9350506040612dcc87828801612779565b925050606085013567ffffffffffffffff811115612ded57612dec6125e7565b5b612df987828801612d54565b91505092959194509250565b600080600080600060a08688031215612e2157612e206125e2565b5b600086013567ffffffffffffffff811115612e3f57612e3e6125e7565b5b612e4b888289016129e4565b9550506020612e5c88828901612779565b9450506040612e6d88828901612a33565b9350506060612e7e88828901612a33565b9250506080612e8f88828901612a6c565b9150509295509295909350565b60008060408385031215612eb357612eb26125e2565b5b6000612ec1858286016127ed565b9250506020612ed2858286016127ed565b9150509250929050565b7f4f776e61626c653a2063616c6c6572206973206e6f7420746865206f776e6572600082015250565b6000612f126020836126b2565b9150612f1d82612edc565b602082019050919050565b60006020820190508181036000830152612f4181612f05565b9050919050565b7f4e487b7100000000000000000000000000000000000000000000000000000000600052602260045260246000fd5b60006002820490506001821680612f8f57607f821691505b60208210811415612fa357612fa2612f48565b5b50919050565b7f4552433732313a20617070726f76656420717565727920666f72206e6f6e657860008201527f697374656e7420746f6b656e0000000000000000000000000000000000000000602082015250565b6000613005602c836126b2565b915061301082612fa9565b604082019050919050565b6000602082019050818103600083015261303481612ff8565b9050919050565b7f4552433732313a20617070726f76616c20746f2063757272656e74206f776e6560008201527f7200000000000000000000000000000000000000000000000000000000000000602082015250565b60006130976021836126b2565b91506130a28261303b565b604082019050919050565b600060208201905081810360008301526130c68161308a565b9050919050565b7f4552433732313a20617070726f76652063616c6c6572206973206e6f74206f7760008201527f6e6572206e6f7220617070726f76656420666f7220616c6c0000000000000000602082015250565b60006131296038836126b2565b9150613134826130cd565b604082019050919050565b600060208201905081810360008301526131588161311c565b9050919050565b7f4552433732313a207472616e736665722063616c6c6572206973206e6f74206f60008201527f776e6572206e6f7220617070726f766564000000000000000000000000000000602082015250565b60006131bb6031836126b2565b91506131c68261315f565b604082019050919050565b600060208201905081810360008301526131ea816131ae565b9050919050565b7f6e6f7420746f6b656e206f776e65720000000000000000000000000000000000600082015250565b6000613227600f836126b2565b9150613232826131f1565b602082019050919050565b600060208201905081810360008301526132568161321a565b9050919050565b61326681612a12565b82525050565b61327581612a48565b82525050565b600060c0820190506132906000830189612587565b81810360208301526132a28188612707565b90506132b160408301876125a0565b6132be606083018661325d565b6132cb608083018561325d565b6132d860a083018461326c565b979650505050505050565b6000815190506132f281612c75565b92915050565b60006020828403121561330e5761330d6125e2565b5b600061331c848285016132e3565b91505092915050565b7f6e6f742076657269666965640000000000000000000000000000000000000000600082015250565b600061335b600c836126b2565b915061336682613325565b602082019050919050565b6000602082019050818103600083015261338a8161334e565b9050919050565b7f4552433732313a206f776e657220717565727920666f72206e6f6e657869737460008201527f656e7420746f6b656e0000000000000000000000000000000000000000000000602082015250565b60006133ed6029836126b2565b91506133f882613391565b604082019050919050565b6000602082019050818103600083015261341c816133e0565b9050919050565b7f4552433732313a2062616c616e636520717565727920666f7220746865207a6560008201527f726f206164647265737300000000000000000000000000000000000000000000602082015250565b600061347f602a836126b2565b915061348a82613423565b604082019050919050565b600060208201905081810360008301526134ae81613472565b9050919050565b7f4552433732313a20617070726f766520746f2063616c6c657200000000000000600082015250565b60006134eb6019836126b2565b91506134f6826134b5565b602082019050919050565b6000602082019050818103600083015261351a816134de565b9050919050565b6000819050919050565b6000819050919050565b600061355061354b61354684613521565b61352b565b612596565b9050919050565b61356081613535565b82525050565b600060c08201905061357b6000830189612587565b818103602083015261358d8188612707565b905061359c6040830187613557565b6135a9606083018661325d565b6135b6608083018561325d565b6135c360a083018461326c565b979650505050505050565b600081905092915050565b60006135e4826126a7565b6135ee81856135ce565b93506135fe8185602086016126c3565b80840191505092915050565b600061361682846135d9565b915081905092915050565b7f45524337323155524953746f726167653a2055524920717565727920666f722060008201527f6e6f6e6578697374656e7420746f6b656e000000000000000000000000000000602082015250565b600061367d6031836126b2565b915061368882613621565b604082019050919050565b600060208201905081810360008301526136ac81613670565b9050919050565b60006136bf82856135d9565b91506136cb82846135d9565b91508190509392505050565b7f4f776e61626c653a206e6577206f776e657220697320746865207a65726f206160008201527f6464726573730000000000000000000000000000000000000000000000000000602082015250565b60006137336026836126b2565b915061373e826136d7565b604082019050919050565b6000602082019050818103600083015261376281613726565b9050919050565b600081905092915050565b50565b6000613784600083613769565b915061378f82613774565b600082019050919050565b60006137a582613777565b9150819050919050565b7f7472616e73616374696f6e206e6f7420636f6d706c6574656400000000000000600082015250565b60006137e56019836126b2565b91506137f0826137af565b602082019050919050565b60006020820190508181036000830152613814816137d8565b9050919050565b7f4552433732313a206f70657261746f7220717565727920666f72206e6f6e657860008201527f697374656e7420746f6b656e0000000000000000000000000000000000000000602082015250565b6000613877602c836126b2565b91506138828261381b565b604082019050919050565b600060208201905081810360008301526138a68161386a565b9050919050565b7f4552433732313a207472616e73666572206f6620746f6b656e2074686174206960008201527f73206e6f74206f776e0000000000000000000000000000000000000000000000602082015250565b60006139096029836126b2565b9150613914826138ad565b604082019050919050565b60006020820190508181036000830152613938816138fc565b9050919050565b7f4552433732313a207472616e7366657220746f20746865207a65726f2061646460008201527f7265737300000000000000000000000000000000000000000000000000000000602082015250565b600061399b6024836126b2565b91506139a68261393f565b604082019050919050565b600060208201905081810360008301526139ca8161398e565b9050919050565b7f4e487b7100000000000000000000000000000000000000000000000000000000600052601160045260246000fd5b6000613a0b82612596565b9150613a1683612596565b925082821015613a2957613a286139d1565b5b828203905092915050565b6000613a3f82612596565b9150613a4a83612596565b9250827fffffffffffffffffffffffffffffffffffffffffffffffffffffffffffffffff03821115613a7f57613a7e6139d1565b5b828201905092915050565b7f45524337323155524953746f726167653a2055524920736574206f66206e6f6e60008201527f6578697374656e7420746f6b656e000000000000000000000000000000000000602082015250565b6000613ae6602e836126b2565b9150613af182613a8a565b604082019050919050565b60006020820190508181036000830152613b1581613ad9565b9050919050565b7f4552433732313a207472616e7366657220746f206e6f6e20455243373231526560008201527f63656976657220696d706c656d656e7465720000000000000000000000000000602082015250565b6000613b786032836126b2565b9150613b8382613b1c565b604082019050919050565b60006020820190508181036000830152613ba781613b6b565b9050919050565b7f4552433732313a206d696e7420746f20746865207a65726f2061646472657373600082015250565b6000613be46020836126b2565b9150613bef82613bae565b602082019050919050565b60006020820190508181036000830152613c1381613bd7565b9050919050565b7f4552433732313a20746f6b656e20616c7265616479206d696e74656400000000600082015250565b6000613c50601c836126b2565b9150613c5b82613c1a565b602082019050919050565b60006020820190508181036000830152613c7f81613c43565b9050919050565b7f4552433732314d657461646174613a2055524920717565727920666f72206e6f60008201527f6e6578697374656e7420746f6b656e0000000000000000000000000000000000602082015250565b6000613ce2602f836126b2565b9150613ced82613c86565b604082019050919050565b60006020820190508181036000830152613d1181613cd5565b9050919050565b600081519050919050565b600082825260208201905092915050565b6000613d3f82613d18565b613d498185613d23565b9350613d598185602086016126c3565b613d62816126f6565b840191505092915050565b6000608082019050613d826000830187612587565b613d8f6020830186612587565b613d9c60408301856125a0565b8181036060830152613dae8184613d34565b905095945050505050565b600081519050613dc881612618565b92915050565b600060208284031215613de457613de36125e2565b5b6000613df284828501613db9565b91505092915050565b6000613e0682612596565b91507fffffffffffffffffffffffffffffffffffffffffffffffffffffffffffffffff821415613e3957613e386139d1565b5b600182019050919050565b7f4e487b7100000000000000000000000000000000000000000000000000000000600052601260045260246000fd5b6000613e7e82612596565b9150613e8983612596565b925082613e9957613e98613e44565b5b828204905092915050565b6000613eaf82612596565b9150613eba83612596565b925082613eca57613ec9613e44565b5b828206905092915050565b7f4e487b7100000000000000000000000000000000000000000000000000000000600052603260045260246000fdfea26469706673582212206c6dfde143edffccb8d11d6b43f1ff9caa5c104c0efc628d1558d9a6ad4ad2ee64736f6c63430008090033",
  "immutableReferences": {},
  "source": "// SPDX-License-Identifier: MIT\npragma solidity >=0.7.0 <0.9.0;\n\nimport \"@openzeppelin/contracts/utils/Counters.sol\";\nimport \"@openzeppelin/contracts/token/ERC721/extensions/ERC721URIStorage.sol\";\nimport \"@openzeppelin/contracts/token/ERC721/ERC721.sol\";\nimport \"@openzeppelin/contracts/access/Ownable.sol\";\nimport \"./Verify.sol\";\n\ncontract InsuranceNFT is ERC721URIStorage, Ownable{\n    using Counters for Counters.Counter;\n    \n    Counters.Counter private _tokenIds;\n\n    \n    address payable internal DAOContract;//DAO contract address\n    Verify verifyContract; //address of verifying contract\n    \n    uint private whiteListNumber;// number of whiteListed addresses\n    //string public baseURI; //the base URI\n    mapping (address => uint) public lastBlockNumberUpdate; // track mint/update of NFTs per address;\n    mapping (address => uint) public lastTimeStampNFTUsed; // last timestamp we used for minting NFT\n    mapping (address => uint[]) internal tokensByAddress;//track all NFTs owned by a user\n\n    uint public currentTokenIdMax; // for ease of access public call\n\n    event NFTMinted(address indexed _to, string indexed _tokenURI);\n    event ReceiveCalled(address _caller, uint _value);\n    \n    \n\n    constructor(address _verifyAddress, address payable _DAOAddress) ERC721(\"IoTex Insurance\", \"IOTXI\") public{\n        verifyContract = Verify(_verifyAddress);\n        DAOContract = _DAOAddress;\n    }\n\n    receive() external payable {\n        emit ReceiveCalled(msg.sender, msg.value);\n    }\n\n    function mintTokens(string memory _tokenURI, uint256 lastTimeStamp, bytes32 r, bytes32 s, uint8 v) public {  \n        require(verifyContract.metaDataVerify(_msgSender(), _tokenURI, 0, r, s, v), \"not verified\");\n        uint256 newItemId;\n        _tokenIds.increment();\n        newItemId = _tokenIds.current(); \n        \n        _mint(_msgSender(), newItemId);\n        _setTokenURI(newItemId, _tokenURI);\n        lastBlockNumberUpdate[_msgSender()] = block.number;\n        tokensByAddress[_msgSender()].push(newItemId);\n        lastTimeStampNFTUsed[_msgSender()] = lastTimeStamp;\n        currentTokenIdMax = newItemId;\n        emit NFTMinted(msg.sender, _tokenURI);\n    }\n\n    function updateTokenURI(uint _tokenId, string memory _newTokenURI, uint256 lastTimeStamp, bytes32 r, bytes32 s, uint8 v) public {\n        require(_msgSender()== ownerOf(_tokenId), \"not token owner\");\n        //call verify(_msgSender(), _tokenURI, tokenId)\n        require(verifyContract.metaDataVerify(_msgSender(), _newTokenURI, _tokenId, r, s, v), \"not verified\");\n        _setTokenURI(_tokenId, _newTokenURI);\n        lastBlockNumberUpdate[_msgSender()] = block.number;\n        lastTimeStampNFTUsed[_msgSender()] = lastTimeStamp;\n    }\n\n    function setDAOContract(address payable _DAOAddress) public onlyOwner{\n        DAOContract = _DAOAddress;\n    }\n\n    function getTokensByAddr(address tokenAddress) public view returns(uint[] memory){\n        return tokensByAddress[tokenAddress];\n    }\n\n    function withdrawToWallet() public onlyOwner{\n        transferToWallet();\n    }\n\n    function transferToWallet() internal {\n        (bool success,) = owner().call{value : address(this).balance}(\"\");\n        require(success, \"transaction not completed\");\n    }\n}",
  "sourcePath": "/home/jpick713/BlockChain_Apps/iotexPebbleDAO/contracts/InsuranceNFT.sol",
  "compiler": {
    "name": "solc",
    "version": "0.8.9+commit.e5eed63a.Emscripten.clang"
  },
  "schemaVersion": "3.4.2",
  "updatedAt": "2021-10-28T15:24:12.375Z",
  "networkType": "ethereum",
  "devdoc": {
    "kind": "dev",
    "methods": {
      "approve(address,uint256)": {
        "details": "See {IERC721-approve}."
      },
      "balanceOf(address)": {
        "details": "See {IERC721-balanceOf}."
      },
      "getApproved(uint256)": {
        "details": "See {IERC721-getApproved}."
      },
      "isApprovedForAll(address,address)": {
        "details": "See {IERC721-isApprovedForAll}."
      },
      "name()": {
        "details": "See {IERC721Metadata-name}."
      },
      "owner()": {
        "details": "Returns the address of the current owner."
      },
      "ownerOf(uint256)": {
        "details": "See {IERC721-ownerOf}."
      },
      "renounceOwnership()": {
        "details": "Leaves the contract without owner. It will not be possible to call `onlyOwner` functions anymore. Can only be called by the current owner. NOTE: Renouncing ownership will leave the contract without an owner, thereby removing any functionality that is only available to the owner."
      },
      "safeTransferFrom(address,address,uint256)": {
        "details": "See {IERC721-safeTransferFrom}."
      },
      "safeTransferFrom(address,address,uint256,bytes)": {
        "details": "See {IERC721-safeTransferFrom}."
      },
      "setApprovalForAll(address,bool)": {
        "details": "See {IERC721-setApprovalForAll}."
      },
      "supportsInterface(bytes4)": {
        "details": "See {IERC165-supportsInterface}."
      },
      "symbol()": {
        "details": "See {IERC721Metadata-symbol}."
      },
      "tokenURI(uint256)": {
        "details": "See {IERC721Metadata-tokenURI}."
      },
      "transferFrom(address,address,uint256)": {
        "details": "See {IERC721-transferFrom}."
      },
      "transferOwnership(address)": {
        "details": "Transfers ownership of the contract to a new account (`newOwner`). Can only be called by the current owner."
      }
    },
    "version": 1
  },
  "userdoc": {
    "kind": "user",
    "methods": {},
    "version": 1
  }
}