{
  "contractName": "InsuranceDAO",
  "abi": [
    {
      "inputs": [
        {
          "internalType": "address",
          "name": "_verifyAddress",
          "type": "address"
        }
      ],
      "stateMutability": "nonpayable",
      "type": "constructor"
    },
    {
      "anonymous": false,
      "inputs": [
        {
          "indexed": true,
          "internalType": "address",
          "name": "previousOwner",
          "type": "address"
        },
        {
          "indexed": true,
          "internalType": "address",
          "name": "newOwner",
          "type": "address"
        }
      ],
      "name": "OwnershipTransferred",
      "type": "event"
    },
    {
      "inputs": [
        {
          "internalType": "uint256",
          "name": "",
          "type": "uint256"
        }
      ],
      "name": "costSchedule",
      "outputs": [
        {
          "internalType": "uint256",
          "name": "",
          "type": "uint256"
        }
      ],
      "stateMutability": "view",
      "type": "function",
      "constant": true
    },
    {
      "inputs": [
        {
          "internalType": "address",
          "name": "",
          "type": "address"
        }
      ],
      "name": "levelsEntered",
      "outputs": [
        {
          "internalType": "uint256",
          "name": "",
          "type": "uint256"
        }
      ],
      "stateMutability": "view",
      "type": "function",
      "constant": true
    },
    {
      "inputs": [],
      "name": "owner",
      "outputs": [
        {
          "internalType": "address",
          "name": "",
          "type": "address"
        }
      ],
      "stateMutability": "view",
      "type": "function",
      "constant": true
    },
    {
      "inputs": [],
      "name": "payoutCap",
      "outputs": [
        {
          "internalType": "uint256",
          "name": "",
          "type": "uint256"
        }
      ],
      "stateMutability": "view",
      "type": "function",
      "constant": true
    },
    {
      "inputs": [],
      "name": "renounceOwnership",
      "outputs": [],
      "stateMutability": "nonpayable",
      "type": "function"
    },
    {
      "inputs": [
        {
          "internalType": "uint256",
          "name": "",
          "type": "uint256"
        },
        {
          "internalType": "address",
          "name": "",
          "type": "address"
        }
      ],
      "name": "roundBalances",
      "outputs": [
        {
          "internalType": "uint256",
          "name": "",
          "type": "uint256"
        }
      ],
      "stateMutability": "view",
      "type": "function",
      "constant": true
    },
    {
      "inputs": [
        {
          "internalType": "address",
          "name": "newOwner",
          "type": "address"
        }
      ],
      "name": "transferOwnership",
      "outputs": [],
      "stateMutability": "nonpayable",
      "type": "function"
    },
    {
      "stateMutability": "payable",
      "type": "receive",
      "payable": true
    },
    {
      "inputs": [
        {
          "internalType": "uint256[]",
          "name": "levels",
          "type": "uint256[]"
        },
        {
          "internalType": "uint256[]",
          "name": "costs",
          "type": "uint256[]"
        }
      ],
      "name": "setCostSchedule",
      "outputs": [],
      "stateMutability": "nonpayable",
      "type": "function"
    },
    {
      "inputs": [
        {
          "internalType": "uint256[]",
          "name": "levels",
          "type": "uint256[]"
        },
        {
          "internalType": "uint256[]",
          "name": "penalties",
          "type": "uint256[]"
        }
      ],
      "name": "setPenalties",
      "outputs": [],
      "stateMutability": "nonpayable",
      "type": "function"
    },
    {
      "inputs": [
        {
          "internalType": "address payable",
          "name": "NFTContract",
          "type": "address"
        }
      ],
      "name": "setNFTContract",
      "outputs": [],
      "stateMutability": "nonpayable",
      "type": "function"
    },
    {
      "inputs": [],
      "name": "getPenaltyLevels",
      "outputs": [
        {
          "internalType": "uint256[][2]",
          "name": "",
          "type": "uint256[][2]"
        }
      ],
      "stateMutability": "view",
      "type": "function",
      "constant": true
    }
  ],
  "bytecode": "0x60806040526706f05b59d3b200006003553480156200001d57600080fd5b50604051620013da380380620013da8339818101604052810190620000439190620001e1565b6200006362000057620000ab60201b60201c565b620000b360201b60201c565b80600860006101000a81548173ffffffffffffffffffffffffffffffffffffffff021916908373ffffffffffffffffffffffffffffffffffffffff1602179055505062000213565b600033905090565b60008060009054906101000a900473ffffffffffffffffffffffffffffffffffffffff169050816000806101000a81548173ffffffffffffffffffffffffffffffffffffffff021916908373ffffffffffffffffffffffffffffffffffffffff1602179055508173ffffffffffffffffffffffffffffffffffffffff168173ffffffffffffffffffffffffffffffffffffffff167f8be0079c531659141344cd1fd0a4f28419497f9722a3daafe3b4186f6b6457e060405160405180910390a35050565b600080fd5b600073ffffffffffffffffffffffffffffffffffffffff82169050919050565b6000620001a9826200017c565b9050919050565b620001bb816200019c565b8114620001c757600080fd5b50565b600081519050620001db81620001b0565b92915050565b600060208284031215620001fa57620001f962000177565b5b60006200020a84828501620001ca565b91505092915050565b6111b780620002236000396000f3fe6080604052600436106100a05760003560e01c80639005ea89116100645780639005ea891461016d57806392a35eaf146101aa578063a7ccabdf146101e7578063c5aba96314610210578063edcb70631461024d578063f2fde38b14610276576100a7565b8063282c89ce146100ac5780636ddf14fb146100d7578063715018a6146101005780638da5cb5b146101175780638ea73e9c14610142576100a7565b366100a757005b600080fd5b3480156100b857600080fd5b506100c161029f565b6040516100ce9190610a22565b60405180910390f35b3480156100e357600080fd5b506100fe60048036038101906100f99190610bd6565b6102a5565b005b34801561010c57600080fd5b50610115610430565b005b34801561012357600080fd5b5061012c6104b8565b6040516101399190610c8f565b60405180910390f35b34801561014e57600080fd5b506101576104e1565b6040516101649190610e1e565b60405180910390f35b34801561017957600080fd5b50610194600480360381019061018f9190610e6c565b610574565b6040516101a19190610a22565b60405180910390f35b3480156101b657600080fd5b506101d160048036038101906101cc9190610eac565b610599565b6040516101de9190610a22565b60405180910390f35b3480156101f357600080fd5b5061020e60048036038101906102099190610f17565b6105b1565b005b34801561021c57600080fd5b5061023760048036038101906102329190610f44565b610671565b6040516102449190610a22565b60405180910390f35b34801561025957600080fd5b50610274600480360381019061026f9190610bd6565b610689565b005b34801561028257600080fd5b5061029d60048036038101906102989190610f44565b61081e565b005b60035481565b6102ad610916565b73ffffffffffffffffffffffffffffffffffffffff166102cb6104b8565b73ffffffffffffffffffffffffffffffffffffffff1614610321576040517f08c379a000000000000000000000000000000000000000000000000000000000815260040161031890610fce565b60405180910390fd5b8051825114610365576040517f08c379a000000000000000000000000000000000000000000000000000000000815260040161035c9061103a565b60405180910390fd5b60005b82518160ff16101561042b576001838260ff168151811061038c5761038b61105a565b5b6020026020010151101580156103c057506005838260ff16815181106103b5576103b461105a565b5b602002602001015111155b1561041857818160ff16815181106103db576103da61105a565b5b602002602001015160026000858460ff16815181106103fd576103fc61105a565b5b60200260200101518152602001908152602001600020819055505b8080610423906110c5565b915050610368565b505050565b610438610916565b73ffffffffffffffffffffffffffffffffffffffff166104566104b8565b73ffffffffffffffffffffffffffffffffffffffff16146104ac576040517f08c379a00000000000000000000000000000000000000000000000000000000081526004016104a390610fce565b60405180910390fd5b6104b6600061091e565b565b60008060009054906101000a900473ffffffffffffffffffffffffffffffffffffffff16905090565b6104e96109e2565b6004600280602002604051908101604052809291906000905b8282101561056b5783820180548060200260200160405190810160405280929190818152602001828054801561055757602002820191906000526020600020905b815481526020019060010190808311610543575b505050505081526020019060010190610502565b50505050905090565b6006602052816000526040600020602052806000526040600020600091509150505481565b60026020528060005260406000206000915090505481565b6105b9610916565b73ffffffffffffffffffffffffffffffffffffffff166105d76104b8565b73ffffffffffffffffffffffffffffffffffffffff161461062d576040517f08c379a000000000000000000000000000000000000000000000000000000000815260040161062490610fce565b60405180910390fd5b80600960006101000a81548173ffffffffffffffffffffffffffffffffffffffff021916908373ffffffffffffffffffffffffffffffffffffffff16021790555050565b60076020528060005260406000206000915090505481565b610691610916565b73ffffffffffffffffffffffffffffffffffffffff166106af6104b8565b73ffffffffffffffffffffffffffffffffffffffff1614610705576040517f08c379a00000000000000000000000000000000000000000000000000000000081526004016106fc90610fce565b60405180910390fd5b8051825114610749576040517f08c379a00000000000000000000000000000000000000000000000000000000081526004016107409061103a565b60405180910390fd5b60005b82518160ff16101561081957828160ff168151811061076e5761076d61105a565b5b602002602001015160048260ff166002811061078d5761078c61105a565b5b016000815481106107a1576107a061105a565b5b9060005260206000200181905550818160ff16815181106107c5576107c461105a565b5b602002602001015160048260ff16600281106107e4576107e361105a565b5b016001815481106107f8576107f761105a565b5b90600052602060002001819055508080610811906110c5565b91505061074c565b505050565b610826610916565b73ffffffffffffffffffffffffffffffffffffffff166108446104b8565b73ffffffffffffffffffffffffffffffffffffffff161461089a576040517f08c379a000000000000000000000000000000000000000000000000000000000815260040161089190610fce565b60405180910390fd5b600073ffffffffffffffffffffffffffffffffffffffff168173ffffffffffffffffffffffffffffffffffffffff16141561090a576040517f08c379a000000000000000000000000000000000000000000000000000000000815260040161090190611161565b60405180910390fd5b6109138161091e565b50565b600033905090565b60008060009054906101000a900473ffffffffffffffffffffffffffffffffffffffff169050816000806101000a81548173ffffffffffffffffffffffffffffffffffffffff021916908373ffffffffffffffffffffffffffffffffffffffff1602179055508173ffffffffffffffffffffffffffffffffffffffff168173ffffffffffffffffffffffffffffffffffffffff167f8be0079c531659141344cd1fd0a4f28419497f9722a3daafe3b4186f6b6457e060405160405180910390a35050565b60405180604001604052806002905b60608152602001906001900390816109f15790505090565b6000819050919050565b610a1c81610a09565b82525050565b6000602082019050610a376000830184610a13565b92915050565b6000604051905090565b600080fd5b600080fd5b600080fd5b6000601f19601f8301169050919050565b7f4e487b7100000000000000000000000000000000000000000000000000000000600052604160045260246000fd5b610a9f82610a56565b810181811067ffffffffffffffff82111715610abe57610abd610a67565b5b80604052505050565b6000610ad1610a3d565b9050610add8282610a96565b919050565b600067ffffffffffffffff821115610afd57610afc610a67565b5b602082029050602081019050919050565b600080fd5b610b1c81610a09565b8114610b2757600080fd5b50565b600081359050610b3981610b13565b92915050565b6000610b52610b4d84610ae2565b610ac7565b90508083825260208201905060208402830185811115610b7557610b74610b0e565b5b835b81811015610b9e5780610b8a8882610b2a565b845260208401935050602081019050610b77565b5050509392505050565b600082601f830112610bbd57610bbc610a51565b5b8135610bcd848260208601610b3f565b91505092915050565b60008060408385031215610bed57610bec610a47565b5b600083013567ffffffffffffffff811115610c0b57610c0a610a4c565b5b610c1785828601610ba8565b925050602083013567ffffffffffffffff811115610c3857610c37610a4c565b5b610c4485828601610ba8565b9150509250929050565b600073ffffffffffffffffffffffffffffffffffffffff82169050919050565b6000610c7982610c4e565b9050919050565b610c8981610c6e565b82525050565b6000602082019050610ca46000830184610c80565b92915050565b600060029050919050565b600081905092915050565b6000819050919050565b600081519050919050565b600082825260208201905092915050565b6000819050602082019050919050565b610cff81610a09565b82525050565b6000610d118383610cf6565b60208301905092915050565b6000602082019050919050565b6000610d3582610cca565b610d3f8185610cd5565b9350610d4a83610ce6565b8060005b83811015610d7b578151610d628882610d05565b9750610d6d83610d1d565b925050600181019050610d4e565b5085935050505092915050565b6000610d948383610d2a565b905092915050565b6000602082019050919050565b6000610db482610caa565b610dbe8185610cb5565b935083602082028501610dd085610cc0565b8060005b85811015610e0c5784840389528151610ded8582610d88565b9450610df883610d9c565b925060208a01995050600181019050610dd4565b50829750879550505050505092915050565b60006020820190508181036000830152610e388184610da9565b905092915050565b610e4981610c6e565b8114610e5457600080fd5b50565b600081359050610e6681610e40565b92915050565b60008060408385031215610e8357610e82610a47565b5b6000610e9185828601610b2a565b9250506020610ea285828601610e57565b9150509250929050565b600060208284031215610ec257610ec1610a47565b5b6000610ed084828501610b2a565b91505092915050565b6000610ee482610c4e565b9050919050565b610ef481610ed9565b8114610eff57600080fd5b50565b600081359050610f1181610eeb565b92915050565b600060208284031215610f2d57610f2c610a47565b5b6000610f3b84828501610f02565b91505092915050565b600060208284031215610f5a57610f59610a47565b5b6000610f6884828501610e57565b91505092915050565b600082825260208201905092915050565b7f4f776e61626c653a2063616c6c6572206973206e6f7420746865206f776e6572600082015250565b6000610fb8602083610f71565b9150610fc382610f82565b602082019050919050565b60006020820190508181036000830152610fe781610fab565b9050919050565b7f617272206c656e67746873000000000000000000000000000000000000000000600082015250565b6000611024600b83610f71565b915061102f82610fee565b602082019050919050565b6000602082019050818103600083015261105381611017565b9050919050565b7f4e487b7100000000000000000000000000000000000000000000000000000000600052603260045260246000fd5b7f4e487b7100000000000000000000000000000000000000000000000000000000600052601160045260246000fd5b600060ff82169050919050565b60006110d0826110b8565b915060ff8214156110e4576110e3611089565b5b600182019050919050565b7f4f776e61626c653a206e6577206f776e657220697320746865207a65726f206160008201527f6464726573730000000000000000000000000000000000000000000000000000602082015250565b600061114b602683610f71565b9150611156826110ef565b604082019050919050565b6000602082019050818103600083015261117a8161113e565b905091905056fea2646970667358221220bec497d47ea96cb7b4b7ad3c1f76b4d3cdaf9b47bc2120a7dc5bfac70a4e49fd64736f6c63430008090033",
  "immutableReferences": {},
  "source": "// SPDX-License-Identifier: MIT\npragma solidity >=0.7.0 <0.9.0;\n\nimport \"@openzeppelin/contracts/utils/Counters.sol\";\nimport \"@openzeppelin/contracts/access/Ownable.sol\";\nimport \"./Verify.sol\";\nimport \"./InsuranceNFT.sol\";\n\n\ncontract InsuranceDAO is Ownable{\n    using Counters for Counters.Counter;\n    \n    Counters.Counter private _round;\n\n    mapping (uint256 => uint256) public costSchedule;//costs for each driver NFT\n    uint public payoutCap = 0.5 ether;//payout cap per block\n    uint256[][2] internal penaltyLevels; //penalty and acceleration levels\n    mapping (uint => mapping (address => uint)) public roundBalances; //deposit minus any payouts in current round\n    mapping (address => uint) public levelsEntered;//level of each driver originally\n    Verify verifyContract; //verifying contract\n    InsuranceNFT NFTInstance;//NFT contract\n\n    constructor(address _verifyAddress){\n        verifyContract = Verify(_verifyAddress);\n    }\n\n    receive() payable external{\n\n    }\n\n    function setCostSchedule(uint[] memory levels, uint[] memory costs) public onlyOwner{\n        require(levels.length == costs.length, \"arr lengths\");\n        for(uint8 i=0; i<levels.length; i++){\n            if(levels[i]>=1 && levels[i] <= 5){\n                costSchedule[levels[i]] = costs[i];\n            }\n        }\n    }\n\n    function setPenalties(uint[] memory levels, uint[] memory penalties) public onlyOwner{\n        require(levels.length == penalties.length, \"arr lengths\");\n        for (uint8 i=0; i<levels.length; i++){\n            penaltyLevels[i][0] = levels[i];\n            penaltyLevels[i][1] = penalties[i]; \n        }\n    }\n\n    function setNFTContract(address payable NFTContract) public onlyOwner{\n        NFTInstance = InsuranceNFT(NFTContract);\n    } \n\n    function getPenaltyLevels() public view returns(uint[][2] memory){\n        return penaltyLevels;\n    }\n}",
  "sourcePath": "/home/jpick713/BlockChain_Apps/iotexPebbleDAO/contracts/InsuranceDAO.sol",
  "compiler": {
    "name": "solc",
    "version": "0.8.9+commit.e5eed63a.Emscripten.clang"
  },
  "schemaVersion": "3.4.2",
  "updatedAt": "2021-10-27T17:38:37.277Z",
  "networkType": "ethereum",
  "devdoc": {
    "kind": "dev",
    "methods": {
      "owner()": {
        "details": "Returns the address of the current owner."
      },
      "renounceOwnership()": {
        "details": "Leaves the contract without owner. It will not be possible to call `onlyOwner` functions anymore. Can only be called by the current owner. NOTE: Renouncing ownership will leave the contract without an owner, thereby removing any functionality that is only available to the owner."
      },
      "transferOwnership(address)": {
        "details": "Transfers ownership of the contract to a new account (`newOwner`). Can only be called by the current owner."
      }
    },
    "version": 1
  },
  "userdoc": {
    "kind": "user",
    "methods": {},
    "version": 1
  }
}