{
  "contractName": "InsuranceNFT",
  "abi": [
    {
      "inputs": [
        {
          "internalType": "address",
          "name": "_verifyAddress",
          "type": "address"
        },
        {
          "internalType": "address payable",
          "name": "_DAOAddress",
          "type": "address"
        }
      ],
      "stateMutability": "nonpayable",
      "type": "constructor"
    },
    {
      "anonymous": false,
      "inputs": [
        {
          "indexed": true,
          "internalType": "address",
          "name": "owner",
          "type": "address"
        },
        {
          "indexed": true,
          "internalType": "address",
          "name": "approved",
          "type": "address"
        },
        {
          "indexed": true,
          "internalType": "uint256",
          "name": "tokenId",
          "type": "uint256"
        }
      ],
      "name": "Approval",
      "type": "event"
    },
    {
      "anonymous": false,
      "inputs": [
        {
          "indexed": true,
          "internalType": "address",
          "name": "owner",
          "type": "address"
        },
        {
          "indexed": true,
          "internalType": "address",
          "name": "operator",
          "type": "address"
        },
        {
          "indexed": false,
          "internalType": "bool",
          "name": "approved",
          "type": "bool"
        }
      ],
      "name": "ApprovalForAll",
      "type": "event"
    },
    {
      "anonymous": false,
      "inputs": [
        {
          "indexed": true,
          "internalType": "address",
          "name": "_to",
          "type": "address"
        },
        {
          "indexed": true,
          "internalType": "string",
          "name": "_tokenURI",
          "type": "string"
        }
      ],
      "name": "NFTMinted",
      "type": "event"
    },
    {
      "anonymous": false,
      "inputs": [
        {
          "indexed": true,
          "internalType": "address",
          "name": "previousOwner",
          "type": "address"
        },
        {
          "indexed": true,
          "internalType": "address",
          "name": "newOwner",
          "type": "address"
        }
      ],
      "name": "OwnershipTransferred",
      "type": "event"
    },
    {
      "anonymous": false,
      "inputs": [
        {
          "indexed": false,
          "internalType": "address",
          "name": "_caller",
          "type": "address"
        },
        {
          "indexed": false,
          "internalType": "uint256",
          "name": "_value",
          "type": "uint256"
        }
      ],
      "name": "ReceiveCalled",
      "type": "event"
    },
    {
      "anonymous": false,
      "inputs": [
        {
          "indexed": true,
          "internalType": "address",
          "name": "from",
          "type": "address"
        },
        {
          "indexed": true,
          "internalType": "address",
          "name": "to",
          "type": "address"
        },
        {
          "indexed": true,
          "internalType": "uint256",
          "name": "tokenId",
          "type": "uint256"
        }
      ],
      "name": "Transfer",
      "type": "event"
    },
    {
      "inputs": [
        {
          "internalType": "address",
          "name": "to",
          "type": "address"
        },
        {
          "internalType": "uint256",
          "name": "tokenId",
          "type": "uint256"
        }
      ],
      "name": "approve",
      "outputs": [],
      "stateMutability": "nonpayable",
      "type": "function"
    },
    {
      "inputs": [
        {
          "internalType": "address",
          "name": "owner",
          "type": "address"
        }
      ],
      "name": "balanceOf",
      "outputs": [
        {
          "internalType": "uint256",
          "name": "",
          "type": "uint256"
        }
      ],
      "stateMutability": "view",
      "type": "function",
      "constant": true
    },
    {
      "inputs": [],
      "name": "currentTokenIdMax",
      "outputs": [
        {
          "internalType": "uint256",
          "name": "",
          "type": "uint256"
        }
      ],
      "stateMutability": "view",
      "type": "function",
      "constant": true
    },
    {
      "inputs": [
        {
          "internalType": "uint256",
          "name": "tokenId",
          "type": "uint256"
        }
      ],
      "name": "getApproved",
      "outputs": [
        {
          "internalType": "address",
          "name": "",
          "type": "address"
        }
      ],
      "stateMutability": "view",
      "type": "function",
      "constant": true
    },
    {
      "inputs": [
        {
          "internalType": "address",
          "name": "owner",
          "type": "address"
        },
        {
          "internalType": "address",
          "name": "operator",
          "type": "address"
        }
      ],
      "name": "isApprovedForAll",
      "outputs": [
        {
          "internalType": "bool",
          "name": "",
          "type": "bool"
        }
      ],
      "stateMutability": "view",
      "type": "function",
      "constant": true
    },
    {
      "inputs": [
        {
          "internalType": "address",
          "name": "",
          "type": "address"
        }
      ],
      "name": "lastBlockNumberUpdate",
      "outputs": [
        {
          "internalType": "uint256",
          "name": "",
          "type": "uint256"
        }
      ],
      "stateMutability": "view",
      "type": "function",
      "constant": true
    },
    {
      "inputs": [],
      "name": "name",
      "outputs": [
        {
          "internalType": "string",
          "name": "",
          "type": "string"
        }
      ],
      "stateMutability": "view",
      "type": "function",
      "constant": true
    },
    {
      "inputs": [],
      "name": "owner",
      "outputs": [
        {
          "internalType": "address",
          "name": "",
          "type": "address"
        }
      ],
      "stateMutability": "view",
      "type": "function",
      "constant": true
    },
    {
      "inputs": [
        {
          "internalType": "uint256",
          "name": "tokenId",
          "type": "uint256"
        }
      ],
      "name": "ownerOf",
      "outputs": [
        {
          "internalType": "address",
          "name": "",
          "type": "address"
        }
      ],
      "stateMutability": "view",
      "type": "function",
      "constant": true
    },
    {
      "inputs": [],
      "name": "renounceOwnership",
      "outputs": [],
      "stateMutability": "nonpayable",
      "type": "function"
    },
    {
      "inputs": [
        {
          "internalType": "address",
          "name": "from",
          "type": "address"
        },
        {
          "internalType": "address",
          "name": "to",
          "type": "address"
        },
        {
          "internalType": "uint256",
          "name": "tokenId",
          "type": "uint256"
        }
      ],
      "name": "safeTransferFrom",
      "outputs": [],
      "stateMutability": "nonpayable",
      "type": "function"
    },
    {
      "inputs": [
        {
          "internalType": "address",
          "name": "from",
          "type": "address"
        },
        {
          "internalType": "address",
          "name": "to",
          "type": "address"
        },
        {
          "internalType": "uint256",
          "name": "tokenId",
          "type": "uint256"
        },
        {
          "internalType": "bytes",
          "name": "_data",
          "type": "bytes"
        }
      ],
      "name": "safeTransferFrom",
      "outputs": [],
      "stateMutability": "nonpayable",
      "type": "function"
    },
    {
      "inputs": [
        {
          "internalType": "address",
          "name": "operator",
          "type": "address"
        },
        {
          "internalType": "bool",
          "name": "approved",
          "type": "bool"
        }
      ],
      "name": "setApprovalForAll",
      "outputs": [],
      "stateMutability": "nonpayable",
      "type": "function"
    },
    {
      "inputs": [
        {
          "internalType": "bytes4",
          "name": "interfaceId",
          "type": "bytes4"
        }
      ],
      "name": "supportsInterface",
      "outputs": [
        {
          "internalType": "bool",
          "name": "",
          "type": "bool"
        }
      ],
      "stateMutability": "view",
      "type": "function",
      "constant": true
    },
    {
      "inputs": [],
      "name": "symbol",
      "outputs": [
        {
          "internalType": "string",
          "name": "",
          "type": "string"
        }
      ],
      "stateMutability": "view",
      "type": "function",
      "constant": true
    },
    {
      "inputs": [
        {
          "internalType": "uint256",
          "name": "tokenId",
          "type": "uint256"
        }
      ],
      "name": "tokenURI",
      "outputs": [
        {
          "internalType": "string",
          "name": "",
          "type": "string"
        }
      ],
      "stateMutability": "view",
      "type": "function",
      "constant": true
    },
    {
      "inputs": [
        {
          "internalType": "address",
          "name": "from",
          "type": "address"
        },
        {
          "internalType": "address",
          "name": "to",
          "type": "address"
        },
        {
          "internalType": "uint256",
          "name": "tokenId",
          "type": "uint256"
        }
      ],
      "name": "transferFrom",
      "outputs": [],
      "stateMutability": "nonpayable",
      "type": "function"
    },
    {
      "inputs": [
        {
          "internalType": "address",
          "name": "newOwner",
          "type": "address"
        }
      ],
      "name": "transferOwnership",
      "outputs": [],
      "stateMutability": "nonpayable",
      "type": "function"
    },
    {
      "stateMutability": "payable",
      "type": "receive",
      "payable": true
    },
    {
      "inputs": [
        {
          "internalType": "string",
          "name": "_tokenURI",
          "type": "string"
        },
        {
          "internalType": "bytes32",
          "name": "r",
          "type": "bytes32"
        },
        {
          "internalType": "bytes32",
          "name": "s",
          "type": "bytes32"
        },
        {
          "internalType": "uint8",
          "name": "v",
          "type": "uint8"
        }
      ],
      "name": "mintTokens",
      "outputs": [],
      "stateMutability": "nonpayable",
      "type": "function"
    },
    {
      "inputs": [
        {
          "internalType": "uint256",
          "name": "_tokenId",
          "type": "uint256"
        },
        {
          "internalType": "string",
          "name": "_newTokenURI",
          "type": "string"
        },
        {
          "internalType": "bytes32",
          "name": "r",
          "type": "bytes32"
        },
        {
          "internalType": "bytes32",
          "name": "s",
          "type": "bytes32"
        },
        {
          "internalType": "uint8",
          "name": "v",
          "type": "uint8"
        }
      ],
      "name": "updateTokenURI",
      "outputs": [],
      "stateMutability": "nonpayable",
      "type": "function"
    },
    {
      "inputs": [
        {
          "internalType": "address payable",
          "name": "_DAOAddress",
          "type": "address"
        }
      ],
      "name": "setDAOContract",
      "outputs": [],
      "stateMutability": "nonpayable",
      "type": "function"
    },
    {
      "inputs": [
        {
          "internalType": "address",
          "name": "tokenAddress",
          "type": "address"
        }
      ],
      "name": "getTokensByAddr",
      "outputs": [
        {
          "internalType": "uint256[]",
          "name": "",
          "type": "uint256[]"
        }
      ],
      "stateMutability": "view",
      "type": "function",
      "constant": true
    },
    {
      "inputs": [],
      "name": "withdrawToWallet",
      "outputs": [],
      "stateMutability": "nonpayable",
      "type": "function"
    }
  ],
  "bytecode": "0x60806040523480156200001157600080fd5b5060405162004286380380620042868339818101604052810190620000379190620003ae565b6040518060400160405280600f81526020017f496f54657820496e737572616e636500000000000000000000000000000000008152506040518060400160405280600581526020017f494f5458490000000000000000000000000000000000000000000000000000008152508160009080519060200190620000bb9291906200024f565b508060019080519060200190620000d49291906200024f565b505050620000f7620000eb6200018160201b60201c565b6200018960201b60201c565b81600a60006101000a81548173ffffffffffffffffffffffffffffffffffffffff021916908373ffffffffffffffffffffffffffffffffffffffff16021790555080600960006101000a81548173ffffffffffffffffffffffffffffffffffffffff021916908373ffffffffffffffffffffffffffffffffffffffff16021790555050506200045a565b600033905090565b6000600760009054906101000a900473ffffffffffffffffffffffffffffffffffffffff16905081600760006101000a81548173ffffffffffffffffffffffffffffffffffffffff021916908373ffffffffffffffffffffffffffffffffffffffff1602179055508173ffffffffffffffffffffffffffffffffffffffff168173ffffffffffffffffffffffffffffffffffffffff167f8be0079c531659141344cd1fd0a4f28419497f9722a3daafe3b4186f6b6457e060405160405180910390a35050565b8280546200025d9062000424565b90600052602060002090601f016020900481019282620002815760008555620002cd565b82601f106200029c57805160ff1916838001178555620002cd565b82800160010185558215620002cd579182015b82811115620002cc578251825591602001919060010190620002af565b5b509050620002dc9190620002e0565b5090565b5b80821115620002fb576000816000905550600101620002e1565b5090565b600080fd5b600073ffffffffffffffffffffffffffffffffffffffff82169050919050565b6000620003318262000304565b9050919050565b620003438162000324565b81146200034f57600080fd5b50565b600081519050620003638162000338565b92915050565b6000620003768262000304565b9050919050565b620003888162000369565b81146200039457600080fd5b50565b600081519050620003a8816200037d565b92915050565b60008060408385031215620003c857620003c7620002ff565b5b6000620003d88582860162000352565b9250506020620003eb8582860162000397565b9150509250929050565b7f4e487b7100000000000000000000000000000000000000000000000000000000600052602260045260246000fd5b600060028204905060018216806200043d57607f821691505b60208210811415620004545762000453620003f5565b5b50919050565b613e1c806200046a6000396000f3fe6080604052600436106101445760003560e01c80636352211e116100b6578063a22cb4651161006f578063a22cb4651461049e578063b88d4fde146104c7578063c87b56dd146104f0578063e985e9c51461052d578063f2fde38b1461056a578063f98961e71461059357610184565b80636352211e1461038e57806369110666146103cb57806370a08231146103f4578063715018a6146104315780638da5cb5b1461044857806395d89b411461047357610184565b80631287310e116101085780631287310e1461026e57806312c0d1891461029957806323b872dd146102d6578063425d512a146102ff57806342842e0e146103285780634fb2c1931461035157610184565b806301ffc9a71461018957806303ba27f6146101c657806306fdde03146101dd578063081812fc14610208578063095ea7b31461024557610184565b36610184577f64c983f10188c30a885d77970aa5aae9a86e80ef9b459ad33cc620eb5999e070333460405161017a9291906124b7565b60405180910390a1005b600080fd5b34801561019557600080fd5b506101b060048036038101906101ab919061254c565b6105bc565b6040516101bd9190612594565b60405180910390f35b3480156101d257600080fd5b506101db61069e565b005b3480156101e957600080fd5b506101f2610724565b6040516101ff9190612648565b60405180910390f35b34801561021457600080fd5b5061022f600480360381019061022a9190612696565b6107b6565b60405161023c91906126c3565b60405180910390f35b34801561025157600080fd5b5061026c6004803603810190610267919061270a565b61083b565b005b34801561027a57600080fd5b50610283610953565b604051610290919061274a565b60405180910390f35b3480156102a557600080fd5b506102c060048036038101906102bb9190612765565b610959565b6040516102cd919061274a565b60405180910390f35b3480156102e257600080fd5b506102fd60048036038101906102f89190612792565b610971565b005b34801561030b57600080fd5b5061032660048036038101906103219190612823565b6109d1565b005b34801561033457600080fd5b5061034f600480360381019061034a9190612792565b610a91565b005b34801561035d57600080fd5b5061037860048036038101906103739190612765565b610ab1565b604051610385919061290e565b60405180910390f35b34801561039a57600080fd5b506103b560048036038101906103b09190612696565b610b48565b6040516103c291906126c3565b60405180910390f35b3480156103d757600080fd5b506103f260048036038101906103ed9190612ad4565b610bfa565b005b34801561040057600080fd5b5061041b60048036038101906104169190612765565b610e4a565b604051610428919061274a565b60405180910390f35b34801561043d57600080fd5b50610446610f02565b005b34801561045457600080fd5b5061045d610f8a565b60405161046a91906126c3565b60405180910390f35b34801561047f57600080fd5b50610488610fb4565b6040516104959190612648565b60405180910390f35b3480156104aa57600080fd5b506104c560048036038101906104c09190612b83565b611046565b005b3480156104d357600080fd5b506104ee60048036038101906104e99190612c64565b6111c7565b005b3480156104fc57600080fd5b5061051760048036038101906105129190612696565b611229565b6040516105249190612648565b60405180910390f35b34801561053957600080fd5b50610554600480360381019061054f9190612ce7565b61137b565b6040516105619190612594565b60405180910390f35b34801561057657600080fd5b50610591600480360381019061058c9190612765565b61140f565b005b34801561059f57600080fd5b506105ba60048036038101906105b59190612d27565b611507565b005b60007f80ac58cd000000000000000000000000000000000000000000000000000000007bffffffffffffffffffffffffffffffffffffffffffffffffffffffff1916827bffffffffffffffffffffffffffffffffffffffffffffffffffffffff1916148061068757507f5b5e139f000000000000000000000000000000000000000000000000000000007bffffffffffffffffffffffffffffffffffffffffffffffffffffffff1916827bffffffffffffffffffffffffffffffffffffffffffffffffffffffff1916145b806106975750610696826116dd565b5b9050919050565b6106a6611747565b73ffffffffffffffffffffffffffffffffffffffff166106c4610f8a565b73ffffffffffffffffffffffffffffffffffffffff161461071a576040517f08c379a000000000000000000000000000000000000000000000000000000000815260040161071190612e0a565b60405180910390fd5b61072261174f565b565b60606000805461073390612e59565b80601f016020809104026020016040519081016040528092919081815260200182805461075f90612e59565b80156107ac5780601f10610781576101008083540402835291602001916107ac565b820191906000526020600020905b81548152906001019060200180831161078f57829003601f168201915b5050505050905090565b60006107c182611805565b610800576040517f08c379a00000000000000000000000000000000000000000000000000000000081526004016107f790612efd565b60405180910390fd5b6004600083815260200190815260200160002060009054906101000a900473ffffffffffffffffffffffffffffffffffffffff169050919050565b600061084682610b48565b90508073ffffffffffffffffffffffffffffffffffffffff168373ffffffffffffffffffffffffffffffffffffffff1614156108b7576040517f08c379a00000000000000000000000000000000000000000000000000000000081526004016108ae90612f8f565b60405180910390fd5b8073ffffffffffffffffffffffffffffffffffffffff166108d6611747565b73ffffffffffffffffffffffffffffffffffffffff1614806109055750610904816108ff611747565b61137b565b5b610944576040517f08c379a000000000000000000000000000000000000000000000000000000000815260040161093b90613021565b60405180910390fd5b61094e8383611871565b505050565b600e5481565b600c6020528060005260406000206000915090505481565b61098261097c611747565b8261192a565b6109c1576040517f08c379a00000000000000000000000000000000000000000000000000000000081526004016109b8906130b3565b60405180910390fd5b6109cc838383611a08565b505050565b6109d9611747565b73ffffffffffffffffffffffffffffffffffffffff166109f7610f8a565b73ffffffffffffffffffffffffffffffffffffffff1614610a4d576040517f08c379a0000000000000000000000000000000000000000000000000000000008152600401610a4490612e0a565b60405180910390fd5b80600960006101000a81548173ffffffffffffffffffffffffffffffffffffffff021916908373ffffffffffffffffffffffffffffffffffffffff16021790555050565b610aac838383604051806020016040528060008152506111c7565b505050565b6060600d60008373ffffffffffffffffffffffffffffffffffffffff1673ffffffffffffffffffffffffffffffffffffffff168152602001908152602001600020805480602002602001604051908101604052809291908181526020018280548015610b3c57602002820191906000526020600020905b815481526020019060010190808311610b28575b50505050509050919050565b6000806002600084815260200190815260200160002060009054906101000a900473ffffffffffffffffffffffffffffffffffffffff169050600073ffffffffffffffffffffffffffffffffffffffff168173ffffffffffffffffffffffffffffffffffffffff161415610bf1576040517f08c379a0000000000000000000000000000000000000000000000000000000008152600401610be890613145565b60405180910390fd5b80915050919050565b600a60009054906101000a900473ffffffffffffffffffffffffffffffffffffffff1673ffffffffffffffffffffffffffffffffffffffff1663cb050a7c610c40611747565b8660008787876040518763ffffffff1660e01b8152600401610c67969594939291906131c8565b602060405180830381600087803b158015610c8157600080fd5b505af1158015610c95573d6000803e3d6000fd5b505050506040513d601f19601f82011682018060405250810190610cb99190613245565b610cf8576040517f08c379a0000000000000000000000000000000000000000000000000000000008152600401610cef906132be565b60405180910390fd5b6000610d046008611c64565b610d0e6008611c7a565b9050610d21610d1b611747565b82611c88565b610d2b8186611e56565b43600c6000610d38611747565b73ffffffffffffffffffffffffffffffffffffffff1673ffffffffffffffffffffffffffffffffffffffff16815260200190815260200160002081905550600d6000610d82611747565b73ffffffffffffffffffffffffffffffffffffffff1673ffffffffffffffffffffffffffffffffffffffff16815260200190815260200160002081908060018154018082558091505060019003906000526020600020016000909190919091505580600e8190555084604051610df8919061331a565b60405180910390203373ffffffffffffffffffffffffffffffffffffffff167f371f376692dd846fa34380a8fd44c6a140dc5cd442cd8ae5657963685f17ebed60405160405180910390a35050505050565b60008073ffffffffffffffffffffffffffffffffffffffff168273ffffffffffffffffffffffffffffffffffffffff161415610ebb576040517f08c379a0000000000000000000000000000000000000000000000000000000008152600401610eb2906133a3565b60405180910390fd5b600360008373ffffffffffffffffffffffffffffffffffffffff1673ffffffffffffffffffffffffffffffffffffffff168152602001908152602001600020549050919050565b610f0a611747565b73ffffffffffffffffffffffffffffffffffffffff16610f28610f8a565b73ffffffffffffffffffffffffffffffffffffffff1614610f7e576040517f08c379a0000000000000000000000000000000000000000000000000000000008152600401610f7590612e0a565b60405180910390fd5b610f886000611eca565b565b6000600760009054906101000a900473ffffffffffffffffffffffffffffffffffffffff16905090565b606060018054610fc390612e59565b80601f0160208091040260200160405190810160405280929190818152602001828054610fef90612e59565b801561103c5780601f106110115761010080835404028352916020019161103c565b820191906000526020600020905b81548152906001019060200180831161101f57829003601f168201915b5050505050905090565b61104e611747565b73ffffffffffffffffffffffffffffffffffffffff168273ffffffffffffffffffffffffffffffffffffffff1614156110bc576040517f08c379a00000000000000000000000000000000000000000000000000000000081526004016110b39061340f565b60405180910390fd5b80600560006110c9611747565b73ffffffffffffffffffffffffffffffffffffffff1673ffffffffffffffffffffffffffffffffffffffff16815260200190815260200160002060008473ffffffffffffffffffffffffffffffffffffffff1673ffffffffffffffffffffffffffffffffffffffff16815260200190815260200160002060006101000a81548160ff0219169083151502179055508173ffffffffffffffffffffffffffffffffffffffff16611176611747565b73ffffffffffffffffffffffffffffffffffffffff167f17307eab39ab6107e8899845ad3d59bd9653f200f220920489ca2b5937696c31836040516111bb9190612594565b60405180910390a35050565b6111d86111d2611747565b8361192a565b611217576040517f08c379a000000000000000000000000000000000000000000000000000000000815260040161120e906130b3565b60405180910390fd5b61122384848484611f90565b50505050565b606061123482611805565b611273576040517f08c379a000000000000000000000000000000000000000000000000000000000815260040161126a906134a1565b60405180910390fd5b600060066000848152602001908152602001600020805461129390612e59565b80601f01602080910402602001604051908101604052809291908181526020018280546112bf90612e59565b801561130c5780601f106112e15761010080835404028352916020019161130c565b820191906000526020600020905b8154815290600101906020018083116112ef57829003601f168201915b50505050509050600061131d611fec565b9050600081511415611333578192505050611376565b6000825111156113685780826040516020016113509291906134c1565b60405160208183030381529060405292505050611376565b61137184612003565b925050505b919050565b6000600560008473ffffffffffffffffffffffffffffffffffffffff1673ffffffffffffffffffffffffffffffffffffffff16815260200190815260200160002060008373ffffffffffffffffffffffffffffffffffffffff1673ffffffffffffffffffffffffffffffffffffffff16815260200190815260200160002060009054906101000a900460ff16905092915050565b611417611747565b73ffffffffffffffffffffffffffffffffffffffff16611435610f8a565b73ffffffffffffffffffffffffffffffffffffffff161461148b576040517f08c379a000000000000000000000000000000000000000000000000000000000815260040161148290612e0a565b60405180910390fd5b600073ffffffffffffffffffffffffffffffffffffffff168173ffffffffffffffffffffffffffffffffffffffff1614156114fb576040517f08c379a00000000000000000000000000000000000000000000000000000000081526004016114f290613557565b60405180910390fd5b61150481611eca565b50565b61151085610b48565b73ffffffffffffffffffffffffffffffffffffffff1661152e611747565b73ffffffffffffffffffffffffffffffffffffffff1614611584576040517f08c379a000000000000000000000000000000000000000000000000000000000815260040161157b906135c3565b60405180910390fd5b600a60009054906101000a900473ffffffffffffffffffffffffffffffffffffffff1673ffffffffffffffffffffffffffffffffffffffff1663cb050a7c6115ca611747565b86888787876040518763ffffffff1660e01b81526004016115f0969594939291906135e3565b602060405180830381600087803b15801561160a57600080fd5b505af115801561161e573d6000803e3d6000fd5b505050506040513d601f19601f820116820180604052508101906116429190613245565b611681576040517f08c379a0000000000000000000000000000000000000000000000000000000008152600401611678906132be565b60405180910390fd5b61168b8585611e56565b43600c6000611698611747565b73ffffffffffffffffffffffffffffffffffffffff1673ffffffffffffffffffffffffffffffffffffffff168152602001908152602001600020819055505050505050565b60007f01ffc9a7000000000000000000000000000000000000000000000000000000007bffffffffffffffffffffffffffffffffffffffffffffffffffffffff1916827bffffffffffffffffffffffffffffffffffffffffffffffffffffffff1916149050919050565b600033905090565b6000611759610f8a565b73ffffffffffffffffffffffffffffffffffffffff164760405161177c9061367c565b60006040518083038185875af1925050503d80600081146117b9576040519150601f19603f3d011682016040523d82523d6000602084013e6117be565b606091505b5050905080611802576040517f08c379a00000000000000000000000000000000000000000000000000000000081526004016117f9906136dd565b60405180910390fd5b50565b60008073ffffffffffffffffffffffffffffffffffffffff166002600084815260200190815260200160002060009054906101000a900473ffffffffffffffffffffffffffffffffffffffff1673ffffffffffffffffffffffffffffffffffffffff1614159050919050565b816004600083815260200190815260200160002060006101000a81548173ffffffffffffffffffffffffffffffffffffffff021916908373ffffffffffffffffffffffffffffffffffffffff160217905550808273ffffffffffffffffffffffffffffffffffffffff166118e483610b48565b73ffffffffffffffffffffffffffffffffffffffff167f8c5be1e5ebec7d5bd14f71427d1e84f3dd0314c0f7b2291e5b200ac8c7c3b92560405160405180910390a45050565b600061193582611805565b611974576040517f08c379a000000000000000000000000000000000000000000000000000000000815260040161196b9061376f565b60405180910390fd5b600061197f83610b48565b90508073ffffffffffffffffffffffffffffffffffffffff168473ffffffffffffffffffffffffffffffffffffffff1614806119ee57508373ffffffffffffffffffffffffffffffffffffffff166119d6846107b6565b73ffffffffffffffffffffffffffffffffffffffff16145b806119ff57506119fe818561137b565b5b91505092915050565b8273ffffffffffffffffffffffffffffffffffffffff16611a2882610b48565b73ffffffffffffffffffffffffffffffffffffffff1614611a7e576040517f08c379a0000000000000000000000000000000000000000000000000000000008152600401611a7590613801565b60405180910390fd5b600073ffffffffffffffffffffffffffffffffffffffff168273ffffffffffffffffffffffffffffffffffffffff161415611aee576040517f08c379a0000000000000000000000000000000000000000000000000000000008152600401611ae590613893565b60405180910390fd5b611af98383836120aa565b611b04600082611871565b6001600360008573ffffffffffffffffffffffffffffffffffffffff1673ffffffffffffffffffffffffffffffffffffffff1681526020019081526020016000206000828254611b5491906138e2565b925050819055506001600360008473ffffffffffffffffffffffffffffffffffffffff1673ffffffffffffffffffffffffffffffffffffffff1681526020019081526020016000206000828254611bab9190613916565b92505081905550816002600083815260200190815260200160002060006101000a81548173ffffffffffffffffffffffffffffffffffffffff021916908373ffffffffffffffffffffffffffffffffffffffff160217905550808273ffffffffffffffffffffffffffffffffffffffff168473ffffffffffffffffffffffffffffffffffffffff167fddf252ad1be2c89b69c2b068fc378daa952ba7f163c4a11628f55a4df523b3ef60405160405180910390a4505050565b6001816000016000828254019250508190555050565b600081600001549050919050565b600073ffffffffffffffffffffffffffffffffffffffff168273ffffffffffffffffffffffffffffffffffffffff161415611cf8576040517f08c379a0000000000000000000000000000000000000000000000000000000008152600401611cef906139b8565b60405180910390fd5b611d0181611805565b15611d41576040517f08c379a0000000000000000000000000000000000000000000000000000000008152600401611d3890613a24565b60405180910390fd5b611d4d600083836120aa565b6001600360008473ffffffffffffffffffffffffffffffffffffffff1673ffffffffffffffffffffffffffffffffffffffff1681526020019081526020016000206000828254611d9d9190613916565b92505081905550816002600083815260200190815260200160002060006101000a81548173ffffffffffffffffffffffffffffffffffffffff021916908373ffffffffffffffffffffffffffffffffffffffff160217905550808273ffffffffffffffffffffffffffffffffffffffff16600073ffffffffffffffffffffffffffffffffffffffff167fddf252ad1be2c89b69c2b068fc378daa952ba7f163c4a11628f55a4df523b3ef60405160405180910390a45050565b611e5f82611805565b611e9e576040517f08c379a0000000000000000000000000000000000000000000000000000000008152600401611e9590613ab6565b60405180910390fd5b80600660008481526020019081526020016000209080519060200190611ec59291906123ba565b505050565b6000600760009054906101000a900473ffffffffffffffffffffffffffffffffffffffff16905081600760006101000a81548173ffffffffffffffffffffffffffffffffffffffff021916908373ffffffffffffffffffffffffffffffffffffffff1602179055508173ffffffffffffffffffffffffffffffffffffffff168173ffffffffffffffffffffffffffffffffffffffff167f8be0079c531659141344cd1fd0a4f28419497f9722a3daafe3b4186f6b6457e060405160405180910390a35050565b611f9b848484611a08565b611fa7848484846120af565b611fe6576040517f08c379a0000000000000000000000000000000000000000000000000000000008152600401611fdd90613b48565b60405180910390fd5b50505050565b606060405180602001604052806000815250905090565b606061200e82611805565b61204d576040517f08c379a000000000000000000000000000000000000000000000000000000000815260040161204490613bda565b60405180910390fd5b6000612057611fec565b9050600081511161207757604051806020016040528060008152506120a2565b8061208184612246565b6040516020016120929291906134c1565b6040516020818303038152906040525b915050919050565b505050565b60006120d08473ffffffffffffffffffffffffffffffffffffffff166123a7565b15612239578373ffffffffffffffffffffffffffffffffffffffff1663150b7a026120f9611747565b8786866040518563ffffffff1660e01b815260040161211b9493929190613c4f565b602060405180830381600087803b15801561213557600080fd5b505af192505050801561216657506040513d601f19601f820116820180604052508101906121639190613cb0565b60015b6121e9573d8060008114612196576040519150601f19603f3d011682016040523d82523d6000602084013e61219b565b606091505b506000815114156121e1576040517f08c379a00000000000000000000000000000000000000000000000000000000081526004016121d890613b48565b60405180910390fd5b805181602001fd5b63150b7a0260e01b7bffffffffffffffffffffffffffffffffffffffffffffffffffffffff1916817bffffffffffffffffffffffffffffffffffffffffffffffffffffffff19161491505061223e565b600190505b949350505050565b6060600082141561228e576040518060400160405280600181526020017f300000000000000000000000000000000000000000000000000000000000000081525090506123a2565b600082905060005b600082146122c05780806122a990613cdd565b915050600a826122b99190613d55565b9150612296565b60008167ffffffffffffffff8111156122dc576122db61293a565b5b6040519080825280601f01601f19166020018201604052801561230e5781602001600182028036833780820191505090505b5090505b6000851461239b5760018261232791906138e2565b9150600a856123369190613d86565b60306123429190613916565b60f81b81838151811061235857612357613db7565b5b60200101907effffffffffffffffffffffffffffffffffffffffffffffffffffffffffffff1916908160001a905350600a856123949190613d55565b9450612312565b8093505050505b919050565b600080823b905060008111915050919050565b8280546123c690612e59565b90600052602060002090601f0160209004810192826123e8576000855561242f565b82601f1061240157805160ff191683800117855561242f565b8280016001018555821561242f579182015b8281111561242e578251825591602001919060010190612413565b5b50905061243c9190612440565b5090565b5b80821115612459576000816000905550600101612441565b5090565b600073ffffffffffffffffffffffffffffffffffffffff82169050919050565b60006124888261245d565b9050919050565b6124988161247d565b82525050565b6000819050919050565b6124b18161249e565b82525050565b60006040820190506124cc600083018561248f565b6124d960208301846124a8565b9392505050565b6000604051905090565b600080fd5b600080fd5b60007fffffffff0000000000000000000000000000000000000000000000000000000082169050919050565b612529816124f4565b811461253457600080fd5b50565b60008135905061254681612520565b92915050565b600060208284031215612562576125616124ea565b5b600061257084828501612537565b91505092915050565b60008115159050919050565b61258e81612579565b82525050565b60006020820190506125a96000830184612585565b92915050565b600081519050919050565b600082825260208201905092915050565b60005b838110156125e95780820151818401526020810190506125ce565b838111156125f8576000848401525b50505050565b6000601f19601f8301169050919050565b600061261a826125af565b61262481856125ba565b93506126348185602086016125cb565b61263d816125fe565b840191505092915050565b60006020820190508181036000830152612662818461260f565b905092915050565b6126738161249e565b811461267e57600080fd5b50565b6000813590506126908161266a565b92915050565b6000602082840312156126ac576126ab6124ea565b5b60006126ba84828501612681565b91505092915050565b60006020820190506126d8600083018461248f565b92915050565b6126e78161247d565b81146126f257600080fd5b50565b600081359050612704816126de565b92915050565b60008060408385031215612721576127206124ea565b5b600061272f858286016126f5565b925050602061274085828601612681565b9150509250929050565b600060208201905061275f60008301846124a8565b92915050565b60006020828403121561277b5761277a6124ea565b5b6000612789848285016126f5565b91505092915050565b6000806000606084860312156127ab576127aa6124ea565b5b60006127b9868287016126f5565b93505060206127ca868287016126f5565b92505060406127db86828701612681565b9150509250925092565b60006127f08261245d565b9050919050565b612800816127e5565b811461280b57600080fd5b50565b60008135905061281d816127f7565b92915050565b600060208284031215612839576128386124ea565b5b60006128478482850161280e565b91505092915050565b600081519050919050565b600082825260208201905092915050565b6000819050602082019050919050565b6128858161249e565b82525050565b6000612897838361287c565b60208301905092915050565b6000602082019050919050565b60006128bb82612850565b6128c5818561285b565b93506128d08361286c565b8060005b838110156129015781516128e8888261288b565b97506128f3836128a3565b9250506001810190506128d4565b5085935050505092915050565b6000602082019050818103600083015261292881846128b0565b905092915050565b600080fd5b600080fd5b7f4e487b7100000000000000000000000000000000000000000000000000000000600052604160045260246000fd5b612972826125fe565b810181811067ffffffffffffffff821117156129915761299061293a565b5b80604052505050565b60006129a46124e0565b90506129b08282612969565b919050565b600067ffffffffffffffff8211156129d0576129cf61293a565b5b6129d9826125fe565b9050602081019050919050565b82818337600083830152505050565b6000612a08612a03846129b5565b61299a565b905082815260208101848484011115612a2457612a23612935565b5b612a2f8482856129e6565b509392505050565b600082601f830112612a4c57612a4b612930565b5b8135612a5c8482602086016129f5565b91505092915050565b6000819050919050565b612a7881612a65565b8114612a8357600080fd5b50565b600081359050612a9581612a6f565b92915050565b600060ff82169050919050565b612ab181612a9b565b8114612abc57600080fd5b50565b600081359050612ace81612aa8565b92915050565b60008060008060808587031215612aee57612aed6124ea565b5b600085013567ffffffffffffffff811115612b0c57612b0b6124ef565b5b612b1887828801612a37565b9450506020612b2987828801612a86565b9350506040612b3a87828801612a86565b9250506060612b4b87828801612abf565b91505092959194509250565b612b6081612579565b8114612b6b57600080fd5b50565b600081359050612b7d81612b57565b92915050565b60008060408385031215612b9a57612b996124ea565b5b6000612ba8858286016126f5565b9250506020612bb985828601612b6e565b9150509250929050565b600067ffffffffffffffff821115612bde57612bdd61293a565b5b612be7826125fe565b9050602081019050919050565b6000612c07612c0284612bc3565b61299a565b905082815260208101848484011115612c2357612c22612935565b5b612c2e8482856129e6565b509392505050565b600082601f830112612c4b57612c4a612930565b5b8135612c5b848260208601612bf4565b91505092915050565b60008060008060808587031215612c7e57612c7d6124ea565b5b6000612c8c878288016126f5565b9450506020612c9d878288016126f5565b9350506040612cae87828801612681565b925050606085013567ffffffffffffffff811115612ccf57612cce6124ef565b5b612cdb87828801612c36565b91505092959194509250565b60008060408385031215612cfe57612cfd6124ea565b5b6000612d0c858286016126f5565b9250506020612d1d858286016126f5565b9150509250929050565b600080600080600060a08688031215612d4357612d426124ea565b5b6000612d5188828901612681565b955050602086013567ffffffffffffffff811115612d7257612d716124ef565b5b612d7e88828901612a37565b9450506040612d8f88828901612a86565b9350506060612da088828901612a86565b9250506080612db188828901612abf565b9150509295509295909350565b7f4f776e61626c653a2063616c6c6572206973206e6f7420746865206f776e6572600082015250565b6000612df46020836125ba565b9150612dff82612dbe565b602082019050919050565b60006020820190508181036000830152612e2381612de7565b9050919050565b7f4e487b7100000000000000000000000000000000000000000000000000000000600052602260045260246000fd5b60006002820490506001821680612e7157607f821691505b60208210811415612e8557612e84612e2a565b5b50919050565b7f4552433732313a20617070726f76656420717565727920666f72206e6f6e657860008201527f697374656e7420746f6b656e0000000000000000000000000000000000000000602082015250565b6000612ee7602c836125ba565b9150612ef282612e8b565b604082019050919050565b60006020820190508181036000830152612f1681612eda565b9050919050565b7f4552433732313a20617070726f76616c20746f2063757272656e74206f776e6560008201527f7200000000000000000000000000000000000000000000000000000000000000602082015250565b6000612f796021836125ba565b9150612f8482612f1d565b604082019050919050565b60006020820190508181036000830152612fa881612f6c565b9050919050565b7f4552433732313a20617070726f76652063616c6c6572206973206e6f74206f7760008201527f6e6572206e6f7220617070726f76656420666f7220616c6c0000000000000000602082015250565b600061300b6038836125ba565b915061301682612faf565b604082019050919050565b6000602082019050818103600083015261303a81612ffe565b9050919050565b7f4552433732313a207472616e736665722063616c6c6572206973206e6f74206f60008201527f776e6572206e6f7220617070726f766564000000000000000000000000000000602082015250565b600061309d6031836125ba565b91506130a882613041565b604082019050919050565b600060208201905081810360008301526130cc81613090565b9050919050565b7f4552433732313a206f776e657220717565727920666f72206e6f6e657869737460008201527f656e7420746f6b656e0000000000000000000000000000000000000000000000602082015250565b600061312f6029836125ba565b915061313a826130d3565b604082019050919050565b6000602082019050818103600083015261315e81613122565b9050919050565b6000819050919050565b6000819050919050565b600061319461318f61318a84613165565b61316f565b61249e565b9050919050565b6131a481613179565b82525050565b6131b381612a65565b82525050565b6131c281612a9b565b82525050565b600060c0820190506131dd600083018961248f565b81810360208301526131ef818861260f565b90506131fe604083018761319b565b61320b60608301866131aa565b61321860808301856131aa565b61322560a08301846131b9565b979650505050505050565b60008151905061323f81612b57565b92915050565b60006020828403121561325b5761325a6124ea565b5b600061326984828501613230565b91505092915050565b7f6e6f742076657269666965640000000000000000000000000000000000000000600082015250565b60006132a8600c836125ba565b91506132b382613272565b602082019050919050565b600060208201905081810360008301526132d78161329b565b9050919050565b600081905092915050565b60006132f4826125af565b6132fe81856132de565b935061330e8185602086016125cb565b80840191505092915050565b600061332682846132e9565b915081905092915050565b7f4552433732313a2062616c616e636520717565727920666f7220746865207a6560008201527f726f206164647265737300000000000000000000000000000000000000000000602082015250565b600061338d602a836125ba565b915061339882613331565b604082019050919050565b600060208201905081810360008301526133bc81613380565b9050919050565b7f4552433732313a20617070726f766520746f2063616c6c657200000000000000600082015250565b60006133f96019836125ba565b9150613404826133c3565b602082019050919050565b60006020820190508181036000830152613428816133ec565b9050919050565b7f45524337323155524953746f726167653a2055524920717565727920666f722060008201527f6e6f6e6578697374656e7420746f6b656e000000000000000000000000000000602082015250565b600061348b6031836125ba565b91506134968261342f565b604082019050919050565b600060208201905081810360008301526134ba8161347e565b9050919050565b60006134cd82856132e9565b91506134d982846132e9565b91508190509392505050565b7f4f776e61626c653a206e6577206f776e657220697320746865207a65726f206160008201527f6464726573730000000000000000000000000000000000000000000000000000602082015250565b60006135416026836125ba565b915061354c826134e5565b604082019050919050565b6000602082019050818103600083015261357081613534565b9050919050565b7f6e6f7420746f6b656e206f776e65720000000000000000000000000000000000600082015250565b60006135ad600f836125ba565b91506135b882613577565b602082019050919050565b600060208201905081810360008301526135dc816135a0565b9050919050565b600060c0820190506135f8600083018961248f565b818103602083015261360a818861260f565b905061361960408301876124a8565b61362660608301866131aa565b61363360808301856131aa565b61364060a08301846131b9565b979650505050505050565b600081905092915050565b50565b600061366660008361364b565b915061367182613656565b600082019050919050565b600061368782613659565b9150819050919050565b7f7472616e73616374696f6e206e6f7420636f6d706c6574656400000000000000600082015250565b60006136c76019836125ba565b91506136d282613691565b602082019050919050565b600060208201905081810360008301526136f6816136ba565b9050919050565b7f4552433732313a206f70657261746f7220717565727920666f72206e6f6e657860008201527f697374656e7420746f6b656e0000000000000000000000000000000000000000602082015250565b6000613759602c836125ba565b9150613764826136fd565b604082019050919050565b600060208201905081810360008301526137888161374c565b9050919050565b7f4552433732313a207472616e73666572206f6620746f6b656e2074686174206960008201527f73206e6f74206f776e0000000000000000000000000000000000000000000000602082015250565b60006137eb6029836125ba565b91506137f68261378f565b604082019050919050565b6000602082019050818103600083015261381a816137de565b9050919050565b7f4552433732313a207472616e7366657220746f20746865207a65726f2061646460008201527f7265737300000000000000000000000000000000000000000000000000000000602082015250565b600061387d6024836125ba565b915061388882613821565b604082019050919050565b600060208201905081810360008301526138ac81613870565b9050919050565b7f4e487b7100000000000000000000000000000000000000000000000000000000600052601160045260246000fd5b60006138ed8261249e565b91506138f88361249e565b92508282101561390b5761390a6138b3565b5b828203905092915050565b60006139218261249e565b915061392c8361249e565b9250827fffffffffffffffffffffffffffffffffffffffffffffffffffffffffffffffff03821115613961576139606138b3565b5b828201905092915050565b7f4552433732313a206d696e7420746f20746865207a65726f2061646472657373600082015250565b60006139a26020836125ba565b91506139ad8261396c565b602082019050919050565b600060208201905081810360008301526139d181613995565b9050919050565b7f4552433732313a20746f6b656e20616c7265616479206d696e74656400000000600082015250565b6000613a0e601c836125ba565b9150613a19826139d8565b602082019050919050565b60006020820190508181036000830152613a3d81613a01565b9050919050565b7f45524337323155524953746f726167653a2055524920736574206f66206e6f6e60008201527f6578697374656e7420746f6b656e000000000000000000000000000000000000602082015250565b6000613aa0602e836125ba565b9150613aab82613a44565b604082019050919050565b60006020820190508181036000830152613acf81613a93565b9050919050565b7f4552433732313a207472616e7366657220746f206e6f6e20455243373231526560008201527f63656976657220696d706c656d656e7465720000000000000000000000000000602082015250565b6000613b326032836125ba565b9150613b3d82613ad6565b604082019050919050565b60006020820190508181036000830152613b6181613b25565b9050919050565b7f4552433732314d657461646174613a2055524920717565727920666f72206e6f60008201527f6e6578697374656e7420746f6b656e0000000000000000000000000000000000602082015250565b6000613bc4602f836125ba565b9150613bcf82613b68565b604082019050919050565b60006020820190508181036000830152613bf381613bb7565b9050919050565b600081519050919050565b600082825260208201905092915050565b6000613c2182613bfa565b613c2b8185613c05565b9350613c3b8185602086016125cb565b613c44816125fe565b840191505092915050565b6000608082019050613c64600083018761248f565b613c71602083018661248f565b613c7e60408301856124a8565b8181036060830152613c908184613c16565b905095945050505050565b600081519050613caa81612520565b92915050565b600060208284031215613cc657613cc56124ea565b5b6000613cd484828501613c9b565b91505092915050565b6000613ce88261249e565b91507fffffffffffffffffffffffffffffffffffffffffffffffffffffffffffffffff821415613d1b57613d1a6138b3565b5b600182019050919050565b7f4e487b7100000000000000000000000000000000000000000000000000000000600052601260045260246000fd5b6000613d608261249e565b9150613d6b8361249e565b925082613d7b57613d7a613d26565b5b828204905092915050565b6000613d918261249e565b9150613d9c8361249e565b925082613dac57613dab613d26565b5b828206905092915050565b7f4e487b7100000000000000000000000000000000000000000000000000000000600052603260045260246000fdfea2646970667358221220c26bda233c281f9fa189ce2c9ffbe6a626af793f8f074208e54068ab85bdf46f64736f6c63430008090033",
  "immutableReferences": {},
  "source": "// SPDX-License-Identifier: MIT\npragma solidity >=0.7.0 <0.9.0;\n\nimport \"@openzeppelin/contracts/utils/Counters.sol\";\nimport \"@openzeppelin/contracts/token/ERC721/extensions/ERC721URIStorage.sol\";\nimport \"@openzeppelin/contracts/token/ERC721/ERC721.sol\";\nimport \"@openzeppelin/contracts/access/Ownable.sol\";\nimport \"./Verify.sol\";\n\ncontract InsuranceNFT is ERC721URIStorage, Ownable{\n    using Counters for Counters.Counter;\n    \n    Counters.Counter private _tokenIds;\n\n    \n    address payable internal DAOContract;//DAO contract address\n    Verify verifyContract; //address of verifying contract\n    \n    uint private whiteListNumber;// number of whiteListed addresses\n    //string public baseURI; //the base URI\n    mapping (address => uint) public lastBlockNumberUpdate; // track mint/update of NFTs per address;\n    mapping (address => uint[]) internal tokensByAddress;//track all NFTs owned by a user\n\n    uint public currentTokenIdMax; // for ease of access public call\n\n    event NFTMinted(address indexed _to, string indexed _tokenURI);\n    event ReceiveCalled(address _caller, uint _value);\n    \n    \n\n    constructor(address _verifyAddress, address payable _DAOAddress) ERC721(\"IoTex Insurance\", \"IOTXI\") public{\n        verifyContract = Verify(_verifyAddress);\n        DAOContract = _DAOAddress;\n    }\n\n    receive() external payable {\n        emit ReceiveCalled(msg.sender, msg.value);\n    }\n\n    function mintTokens(string memory _tokenURI, bytes32 r, bytes32 s, uint8 v) public {  \n        require(verifyContract.metaDataVerify(_msgSender(), _tokenURI, 0, r, s, v), \"not verified\");\n        uint256 newItemId;\n        _tokenIds.increment();\n        newItemId = _tokenIds.current(); \n        \n        _mint(_msgSender(), newItemId);\n        _setTokenURI(newItemId, _tokenURI);\n        lastBlockNumberUpdate[_msgSender()] = block.number;\n        tokensByAddress[_msgSender()].push(newItemId);\n        currentTokenIdMax = newItemId;\n        emit NFTMinted(msg.sender, _tokenURI);\n    }\n\n    function updateTokenURI(uint _tokenId, string memory _newTokenURI, bytes32 r, bytes32 s, uint8 v) public {\n        require(_msgSender()== ownerOf(_tokenId), \"not token owner\");\n        //call verify(_msgSender(), _tokenURI, tokenId)\n        require(verifyContract.metaDataVerify(_msgSender(), _newTokenURI, _tokenId, r, s, v), \"not verified\");\n        _setTokenURI(_tokenId, _newTokenURI);\n        lastBlockNumberUpdate[_msgSender()] = block.number;\n    }\n\n    function setDAOContract(address payable _DAOAddress) public onlyOwner{\n        DAOContract = _DAOAddress;\n    }\n\n    function getTokensByAddr(address tokenAddress) public view returns(uint[] memory){\n        return tokensByAddress[tokenAddress];\n    }\n\n    function withdrawToWallet() public onlyOwner{\n        transferToWallet();\n    }\n\n    function transferToWallet() internal {\n        (bool success,) = owner().call{value : address(this).balance}(\"\");\n        require(success, \"transaction not completed\");\n    }\n}",
  "sourcePath": "/home/jpick713/BlockChain_Apps/iotexPebbleDAO/contracts/InsuranceNFT.sol",
  "compiler": {
    "name": "solc",
    "version": "0.8.9+commit.e5eed63a.Emscripten.clang"
  },
  "schemaVersion": "3.4.2",
  "updatedAt": "2021-10-27T03:56:28.608Z",
  "networkType": "ethereum",
  "devdoc": {
    "kind": "dev",
    "methods": {
      "approve(address,uint256)": {
        "details": "See {IERC721-approve}."
      },
      "balanceOf(address)": {
        "details": "See {IERC721-balanceOf}."
      },
      "getApproved(uint256)": {
        "details": "See {IERC721-getApproved}."
      },
      "isApprovedForAll(address,address)": {
        "details": "See {IERC721-isApprovedForAll}."
      },
      "name()": {
        "details": "See {IERC721Metadata-name}."
      },
      "owner()": {
        "details": "Returns the address of the current owner."
      },
      "ownerOf(uint256)": {
        "details": "See {IERC721-ownerOf}."
      },
      "renounceOwnership()": {
        "details": "Leaves the contract without owner. It will not be possible to call `onlyOwner` functions anymore. Can only be called by the current owner. NOTE: Renouncing ownership will leave the contract without an owner, thereby removing any functionality that is only available to the owner."
      },
      "safeTransferFrom(address,address,uint256)": {
        "details": "See {IERC721-safeTransferFrom}."
      },
      "safeTransferFrom(address,address,uint256,bytes)": {
        "details": "See {IERC721-safeTransferFrom}."
      },
      "setApprovalForAll(address,bool)": {
        "details": "See {IERC721-setApprovalForAll}."
      },
      "supportsInterface(bytes4)": {
        "details": "See {IERC165-supportsInterface}."
      },
      "symbol()": {
        "details": "See {IERC721Metadata-symbol}."
      },
      "tokenURI(uint256)": {
        "details": "See {IERC721Metadata-tokenURI}."
      },
      "transferFrom(address,address,uint256)": {
        "details": "See {IERC721-transferFrom}."
      },
      "transferOwnership(address)": {
        "details": "Transfers ownership of the contract to a new account (`newOwner`). Can only be called by the current owner."
      }
    },
    "version": 1
  },
  "userdoc": {
    "kind": "user",
    "methods": {},
    "version": 1
  }
}