{
  "contractName": "InsuranceDAO",
  "abi": [
    {
      "inputs": [
        {
          "internalType": "address",
          "name": "_verifyAddress",
          "type": "address"
        }
      ],
      "stateMutability": "nonpayable",
      "type": "constructor"
    },
    {
      "anonymous": false,
      "inputs": [
        {
          "indexed": true,
          "internalType": "address",
          "name": "previousOwner",
          "type": "address"
        },
        {
          "indexed": true,
          "internalType": "address",
          "name": "newOwner",
          "type": "address"
        }
      ],
      "name": "OwnershipTransferred",
      "type": "event"
    },
    {
      "inputs": [
        {
          "internalType": "uint256",
          "name": "",
          "type": "uint256"
        }
      ],
      "name": "costSchedule",
      "outputs": [
        {
          "internalType": "uint256",
          "name": "",
          "type": "uint256"
        }
      ],
      "stateMutability": "view",
      "type": "function",
      "constant": true
    },
    {
      "inputs": [],
      "name": "owner",
      "outputs": [
        {
          "internalType": "address",
          "name": "",
          "type": "address"
        }
      ],
      "stateMutability": "view",
      "type": "function",
      "constant": true
    },
    {
      "inputs": [],
      "name": "renounceOwnership",
      "outputs": [],
      "stateMutability": "nonpayable",
      "type": "function"
    },
    {
      "inputs": [
        {
          "internalType": "address",
          "name": "newOwner",
          "type": "address"
        }
      ],
      "name": "transferOwnership",
      "outputs": [],
      "stateMutability": "nonpayable",
      "type": "function"
    },
    {
      "stateMutability": "payable",
      "type": "receive",
      "payable": true
    },
    {
      "inputs": [
        {
          "internalType": "uint256[]",
          "name": "levels",
          "type": "uint256[]"
        },
        {
          "internalType": "uint256[]",
          "name": "costs",
          "type": "uint256[]"
        }
      ],
      "name": "setCostSchedule",
      "outputs": [],
      "stateMutability": "nonpayable",
      "type": "function"
    },
    {
      "inputs": [
        {
          "internalType": "uint256[]",
          "name": "levels",
          "type": "uint256[]"
        },
        {
          "internalType": "uint256[]",
          "name": "penalties",
          "type": "uint256[]"
        }
      ],
      "name": "setPenalties",
      "outputs": [],
      "stateMutability": "nonpayable",
      "type": "function"
    },
    {
      "inputs": [
        {
          "internalType": "address payable",
          "name": "NFTContract",
          "type": "address"
        }
      ],
      "name": "setNFTContract",
      "outputs": [],
      "stateMutability": "nonpayable",
      "type": "function"
    },
    {
      "inputs": [],
      "name": "getPenaltyLevels",
      "outputs": [
        {
          "internalType": "uint256[][2]",
          "name": "",
          "type": "uint256[][2]"
        }
      ],
      "stateMutability": "view",
      "type": "function",
      "constant": true
    }
  ],
  "bytecode": "0x60806040523480156200001157600080fd5b5060405162001284380380620012848339818101604052810190620000379190620001d5565b620000576200004b6200009f60201b60201c565b620000a760201b60201c565b80600460006101000a81548173ffffffffffffffffffffffffffffffffffffffff021916908373ffffffffffffffffffffffffffffffffffffffff1602179055505062000207565b600033905090565b60008060009054906101000a900473ffffffffffffffffffffffffffffffffffffffff169050816000806101000a81548173ffffffffffffffffffffffffffffffffffffffff021916908373ffffffffffffffffffffffffffffffffffffffff1602179055508173ffffffffffffffffffffffffffffffffffffffff168173ffffffffffffffffffffffffffffffffffffffff167f8be0079c531659141344cd1fd0a4f28419497f9722a3daafe3b4186f6b6457e060405160405180910390a35050565b600080fd5b600073ffffffffffffffffffffffffffffffffffffffff82169050919050565b60006200019d8262000170565b9050919050565b620001af8162000190565b8114620001bb57600080fd5b50565b600081519050620001cf81620001a4565b92915050565b600060208284031215620001ee57620001ed6200016b565b5b6000620001fe84828501620001be565b91505092915050565b61106d80620002176000396000f3fe60806040526004361061007f5760003560e01c806392a35eaf1161004e57806392a35eaf14610121578063a7ccabdf1461015e578063edcb706314610187578063f2fde38b146101b057610086565b80636ddf14fb1461008b578063715018a6146100b45780638da5cb5b146100cb5780638ea73e9c146100f657610086565b3661008657005b600080fd5b34801561009757600080fd5b506100b260048036038101906100ad9190610aa2565b6101d9565b005b3480156100c057600080fd5b506100c9610364565b005b3480156100d757600080fd5b506100e06103ec565b6040516100ed9190610b5b565b60405180910390f35b34801561010257600080fd5b5061010b610415565b6040516101189190610cea565b60405180910390f35b34801561012d57600080fd5b5061014860048036038101906101439190610d0c565b6104a7565b6040516101559190610d48565b60405180910390f35b34801561016a57600080fd5b5061018560048036038101906101809190610da1565b6104bf565b005b34801561019357600080fd5b506101ae60048036038101906101a99190610aa2565b61057f565b005b3480156101bc57600080fd5b506101d760048036038101906101d29190610dfa565b610714565b005b6101e161080c565b73ffffffffffffffffffffffffffffffffffffffff166101ff6103ec565b73ffffffffffffffffffffffffffffffffffffffff1614610255576040517f08c379a000000000000000000000000000000000000000000000000000000000815260040161024c90610e84565b60405180910390fd5b8051825114610299576040517f08c379a000000000000000000000000000000000000000000000000000000000815260040161029090610ef0565b60405180910390fd5b60005b82518160ff16101561035f576001838260ff16815181106102c0576102bf610f10565b5b6020026020010151101580156102f457506005838260ff16815181106102e9576102e8610f10565b5b602002602001015111155b1561034c57818160ff168151811061030f5761030e610f10565b5b602002602001015160016000858460ff168151811061033157610330610f10565b5b60200260200101518152602001908152602001600020819055505b808061035790610f7b565b91505061029c565b505050565b61036c61080c565b73ffffffffffffffffffffffffffffffffffffffff1661038a6103ec565b73ffffffffffffffffffffffffffffffffffffffff16146103e0576040517f08c379a00000000000000000000000000000000000000000000000000000000081526004016103d790610e84565b60405180910390fd5b6103ea6000610814565b565b60008060009054906101000a900473ffffffffffffffffffffffffffffffffffffffff16905090565b61041d6108d8565b60028080602002604051908101604052809291906000905b8282101561049e5783820180548060200260200160405190810160405280929190818152602001828054801561048a57602002820191906000526020600020905b815481526020019060010190808311610476575b505050505081526020019060010190610435565b50505050905090565b60016020528060005260406000206000915090505481565b6104c761080c565b73ffffffffffffffffffffffffffffffffffffffff166104e56103ec565b73ffffffffffffffffffffffffffffffffffffffff161461053b576040517f08c379a000000000000000000000000000000000000000000000000000000000815260040161053290610e84565b60405180910390fd5b80600560006101000a81548173ffffffffffffffffffffffffffffffffffffffff021916908373ffffffffffffffffffffffffffffffffffffffff16021790555050565b61058761080c565b73ffffffffffffffffffffffffffffffffffffffff166105a56103ec565b73ffffffffffffffffffffffffffffffffffffffff16146105fb576040517f08c379a00000000000000000000000000000000000000000000000000000000081526004016105f290610e84565b60405180910390fd5b805182511461063f576040517f08c379a000000000000000000000000000000000000000000000000000000000815260040161063690610ef0565b60405180910390fd5b60005b82518160ff16101561070f57828160ff168151811061066457610663610f10565b5b602002602001015160028260ff166002811061068357610682610f10565b5b0160008154811061069757610696610f10565b5b9060005260206000200181905550818160ff16815181106106bb576106ba610f10565b5b602002602001015160028260ff16600281106106da576106d9610f10565b5b016001815481106106ee576106ed610f10565b5b9060005260206000200181905550808061070790610f7b565b915050610642565b505050565b61071c61080c565b73ffffffffffffffffffffffffffffffffffffffff1661073a6103ec565b73ffffffffffffffffffffffffffffffffffffffff1614610790576040517f08c379a000000000000000000000000000000000000000000000000000000000815260040161078790610e84565b60405180910390fd5b600073ffffffffffffffffffffffffffffffffffffffff168173ffffffffffffffffffffffffffffffffffffffff161415610800576040517f08c379a00000000000000000000000000000000000000000000000000000000081526004016107f790611017565b60405180910390fd5b61080981610814565b50565b600033905090565b60008060009054906101000a900473ffffffffffffffffffffffffffffffffffffffff169050816000806101000a81548173ffffffffffffffffffffffffffffffffffffffff021916908373ffffffffffffffffffffffffffffffffffffffff1602179055508173ffffffffffffffffffffffffffffffffffffffff168173ffffffffffffffffffffffffffffffffffffffff167f8be0079c531659141344cd1fd0a4f28419497f9722a3daafe3b4186f6b6457e060405160405180910390a35050565b60405180604001604052806002905b60608152602001906001900390816108e75790505090565b6000604051905090565b600080fd5b600080fd5b600080fd5b6000601f19601f8301169050919050565b7f4e487b7100000000000000000000000000000000000000000000000000000000600052604160045260246000fd5b61096182610918565b810181811067ffffffffffffffff821117156109805761097f610929565b5b80604052505050565b60006109936108ff565b905061099f8282610958565b919050565b600067ffffffffffffffff8211156109bf576109be610929565b5b602082029050602081019050919050565b600080fd5b6000819050919050565b6109e8816109d5565b81146109f357600080fd5b50565b600081359050610a05816109df565b92915050565b6000610a1e610a19846109a4565b610989565b90508083825260208201905060208402830185811115610a4157610a406109d0565b5b835b81811015610a6a5780610a5688826109f6565b845260208401935050602081019050610a43565b5050509392505050565b600082601f830112610a8957610a88610913565b5b8135610a99848260208601610a0b565b91505092915050565b60008060408385031215610ab957610ab8610909565b5b600083013567ffffffffffffffff811115610ad757610ad661090e565b5b610ae385828601610a74565b925050602083013567ffffffffffffffff811115610b0457610b0361090e565b5b610b1085828601610a74565b9150509250929050565b600073ffffffffffffffffffffffffffffffffffffffff82169050919050565b6000610b4582610b1a565b9050919050565b610b5581610b3a565b82525050565b6000602082019050610b706000830184610b4c565b92915050565b600060029050919050565b600081905092915050565b6000819050919050565b600081519050919050565b600082825260208201905092915050565b6000819050602082019050919050565b610bcb816109d5565b82525050565b6000610bdd8383610bc2565b60208301905092915050565b6000602082019050919050565b6000610c0182610b96565b610c0b8185610ba1565b9350610c1683610bb2565b8060005b83811015610c47578151610c2e8882610bd1565b9750610c3983610be9565b925050600181019050610c1a565b5085935050505092915050565b6000610c608383610bf6565b905092915050565b6000602082019050919050565b6000610c8082610b76565b610c8a8185610b81565b935083602082028501610c9c85610b8c565b8060005b85811015610cd85784840389528151610cb98582610c54565b9450610cc483610c68565b925060208a01995050600181019050610ca0565b50829750879550505050505092915050565b60006020820190508181036000830152610d048184610c75565b905092915050565b600060208284031215610d2257610d21610909565b5b6000610d30848285016109f6565b91505092915050565b610d42816109d5565b82525050565b6000602082019050610d5d6000830184610d39565b92915050565b6000610d6e82610b1a565b9050919050565b610d7e81610d63565b8114610d8957600080fd5b50565b600081359050610d9b81610d75565b92915050565b600060208284031215610db757610db6610909565b5b6000610dc584828501610d8c565b91505092915050565b610dd781610b3a565b8114610de257600080fd5b50565b600081359050610df481610dce565b92915050565b600060208284031215610e1057610e0f610909565b5b6000610e1e84828501610de5565b91505092915050565b600082825260208201905092915050565b7f4f776e61626c653a2063616c6c6572206973206e6f7420746865206f776e6572600082015250565b6000610e6e602083610e27565b9150610e7982610e38565b602082019050919050565b60006020820190508181036000830152610e9d81610e61565b9050919050565b7f617272206c656e67746873000000000000000000000000000000000000000000600082015250565b6000610eda600b83610e27565b9150610ee582610ea4565b602082019050919050565b60006020820190508181036000830152610f0981610ecd565b9050919050565b7f4e487b7100000000000000000000000000000000000000000000000000000000600052603260045260246000fd5b7f4e487b7100000000000000000000000000000000000000000000000000000000600052601160045260246000fd5b600060ff82169050919050565b6000610f8682610f6e565b915060ff821415610f9a57610f99610f3f565b5b600182019050919050565b7f4f776e61626c653a206e6577206f776e657220697320746865207a65726f206160008201527f6464726573730000000000000000000000000000000000000000000000000000602082015250565b6000611001602683610e27565b915061100c82610fa5565b604082019050919050565b6000602082019050818103600083015261103081610ff4565b905091905056fea26469706673582212207aae52eac268873d1c4b313570689ed8a01a0efe855fd9a9d2ef94a0fe9fa19264736f6c63430008090033",
  "immutableReferences": {},
  "source": "// SPDX-License-Identifier: MIT\npragma solidity >=0.7.0 <0.9.0;\n\nimport \"@openzeppelin/contracts/utils/Counters.sol\";\nimport \"@openzeppelin/contracts/access/Ownable.sol\";\nimport \"./Verify.sol\";\nimport \"./InsuranceNFT.sol\";\n\n\ncontract InsuranceDAO is Ownable{\n\n    mapping (uint256 => uint256) public costSchedule;//costs for each driver NFT\n    uint256[][2] internal penaltyLevels; //penalty and acceleration levels\n    Verify verifyContract; //verifying contract\n    InsuranceNFT NFTInstance;//NFT contract\n\n    constructor(address _verifyAddress){\n        verifyContract = Verify(_verifyAddress);\n    }\n\n    receive() payable external{\n\n    }\n\n    function setCostSchedule(uint[] memory levels, uint[] memory costs) public onlyOwner{\n        require(levels.length == costs.length, \"arr lengths\");\n        for(uint8 i=0; i<levels.length; i++){\n            if(levels[i]>=1 && levels[i] <= 5){\n                costSchedule[levels[i]] = costs[i];\n            }\n        }\n    }\n\n    function setPenalties(uint[] memory levels, uint[] memory penalties) public onlyOwner{\n        require(levels.length == penalties.length, \"arr lengths\");\n        for (uint8 i=0; i<levels.length; i++){\n            penaltyLevels[i][0] = levels[i];\n            penaltyLevels[i][1] = penalties[i]; \n        }\n    }\n\n    function setNFTContract(address payable NFTContract) public onlyOwner{\n        NFTInstance = InsuranceNFT(NFTContract);\n    } \n\n    function getPenaltyLevels() public view returns(uint[][2] memory){\n        return penaltyLevels;\n    }\n}",
  "sourcePath": "/home/jpick713/BlockChain_Apps/iotexPebbleDAO/contracts/InsuranceDAO.sol",
  "compiler": {
    "name": "solc",
    "version": "0.8.9+commit.e5eed63a.Emscripten.clang"
  },
  "schemaVersion": "3.4.2",
  "updatedAt": "2021-10-27T03:56:28.640Z",
  "networkType": "ethereum",
  "devdoc": {
    "kind": "dev",
    "methods": {
      "owner()": {
        "details": "Returns the address of the current owner."
      },
      "renounceOwnership()": {
        "details": "Leaves the contract without owner. It will not be possible to call `onlyOwner` functions anymore. Can only be called by the current owner. NOTE: Renouncing ownership will leave the contract without an owner, thereby removing any functionality that is only available to the owner."
      },
      "transferOwnership(address)": {
        "details": "Transfers ownership of the contract to a new account (`newOwner`). Can only be called by the current owner."
      }
    },
    "version": 1
  },
  "userdoc": {
    "kind": "user",
    "methods": {},
    "version": 1
  }
}