{
  "contractName": "InsuranceDAO",
  "abi": [
    {
      "inputs": [
        {
          "internalType": "address",
          "name": "_verifyAddress",
          "type": "address"
        }
      ],
      "stateMutability": "nonpayable",
      "type": "constructor"
    },
    {
      "anonymous": false,
      "inputs": [
        {
          "indexed": true,
          "internalType": "address",
          "name": "previousOwner",
          "type": "address"
        },
        {
          "indexed": true,
          "internalType": "address",
          "name": "newOwner",
          "type": "address"
        }
      ],
      "name": "OwnershipTransferred",
      "type": "event"
    },
    {
      "inputs": [
        {
          "internalType": "uint256",
          "name": "",
          "type": "uint256"
        }
      ],
      "name": "costSchedule",
      "outputs": [
        {
          "internalType": "uint256",
          "name": "",
          "type": "uint256"
        }
      ],
      "stateMutability": "view",
      "type": "function",
      "constant": true
    },
    {
      "inputs": [
        {
          "internalType": "address",
          "name": "",
          "type": "address"
        }
      ],
      "name": "levelsEntered",
      "outputs": [
        {
          "internalType": "uint256",
          "name": "",
          "type": "uint256"
        }
      ],
      "stateMutability": "view",
      "type": "function",
      "constant": true
    },
    {
      "inputs": [],
      "name": "owner",
      "outputs": [
        {
          "internalType": "address",
          "name": "",
          "type": "address"
        }
      ],
      "stateMutability": "view",
      "type": "function",
      "constant": true
    },
    {
      "inputs": [],
      "name": "payoutCap",
      "outputs": [
        {
          "internalType": "uint256",
          "name": "",
          "type": "uint256"
        }
      ],
      "stateMutability": "view",
      "type": "function",
      "constant": true
    },
    {
      "inputs": [],
      "name": "renounceOwnership",
      "outputs": [],
      "stateMutability": "nonpayable",
      "type": "function"
    },
    {
      "inputs": [
        {
          "internalType": "uint256",
          "name": "",
          "type": "uint256"
        },
        {
          "internalType": "address",
          "name": "",
          "type": "address"
        }
      ],
      "name": "roundBalances",
      "outputs": [
        {
          "internalType": "uint256",
          "name": "",
          "type": "uint256"
        }
      ],
      "stateMutability": "view",
      "type": "function",
      "constant": true
    },
    {
      "inputs": [
        {
          "internalType": "address",
          "name": "newOwner",
          "type": "address"
        }
      ],
      "name": "transferOwnership",
      "outputs": [],
      "stateMutability": "nonpayable",
      "type": "function"
    },
    {
      "stateMutability": "payable",
      "type": "receive",
      "payable": true
    },
    {
      "inputs": [
        {
          "internalType": "uint256[]",
          "name": "levels",
          "type": "uint256[]"
        },
        {
          "internalType": "uint256[]",
          "name": "costs",
          "type": "uint256[]"
        }
      ],
      "name": "setCostSchedule",
      "outputs": [],
      "stateMutability": "nonpayable",
      "type": "function"
    },
    {
      "inputs": [
        {
          "internalType": "uint256[]",
          "name": "levels",
          "type": "uint256[]"
        },
        {
          "internalType": "uint256[]",
          "name": "penalties",
          "type": "uint256[]"
        }
      ],
      "name": "setPenalties",
      "outputs": [],
      "stateMutability": "nonpayable",
      "type": "function"
    },
    {
      "inputs": [
        {
          "internalType": "address payable",
          "name": "NFTContract",
          "type": "address"
        }
      ],
      "name": "setNFTContract",
      "outputs": [],
      "stateMutability": "nonpayable",
      "type": "function"
    },
    {
      "inputs": [],
      "name": "getPenaltyLevels",
      "outputs": [
        {
          "internalType": "uint256[]",
          "name": "",
          "type": "uint256[]"
        }
      ],
      "stateMutability": "view",
      "type": "function",
      "constant": true
    },
    {
      "inputs": [],
      "name": "getAccLevels",
      "outputs": [
        {
          "internalType": "uint256[]",
          "name": "",
          "type": "uint256[]"
        }
      ],
      "stateMutability": "view",
      "type": "function",
      "constant": true
    }
  ],
  "bytecode": "0x60806040526706f05b59d3b200006003553480156200001d57600080fd5b506040516200149b3803806200149b83398181016040528101906200004391906200020e565b6200006362000057620000c260201b60201c565b620000ca60201b60201c565b80600860006101000a81548173ffffffffffffffffffffffffffffffffffffffff021916908373ffffffffffffffffffffffffffffffffffffffff160217905550620000bb60016200018e60201b62000a071760201c565b5062000240565b600033905090565b60008060009054906101000a900473ffffffffffffffffffffffffffffffffffffffff169050816000806101000a81548173ffffffffffffffffffffffffffffffffffffffff021916908373ffffffffffffffffffffffffffffffffffffffff1602179055508173ffffffffffffffffffffffffffffffffffffffff168173ffffffffffffffffffffffffffffffffffffffff167f8be0079c531659141344cd1fd0a4f28419497f9722a3daafe3b4186f6b6457e060405160405180910390a35050565b6001816000016000828254019250508190555050565b600080fd5b600073ffffffffffffffffffffffffffffffffffffffff82169050919050565b6000620001d682620001a9565b9050919050565b620001e881620001c9565b8114620001f457600080fd5b50565b6000815190506200020881620001dd565b92915050565b600060208284031215620002275762000226620001a4565b5b60006200023784828501620001f7565b91505092915050565b61124b80620002506000396000f3fe6080604052600436106100ab5760003560e01c80639005ea89116100645780639005ea89146101a357806392a35eaf146101e0578063a7ccabdf1461021d578063c5aba96314610246578063edcb706314610283578063f2fde38b146102ac576100b2565b8063282c89ce146100b757806338ce0056146100e25780636ddf14fb1461010d578063715018a6146101365780638da5cb5b1461014d5780638ea73e9c14610178576100b2565b366100b257005b600080fd5b3480156100c357600080fd5b506100cc6102d5565b6040516100d99190610b6c565b60405180910390f35b3480156100ee57600080fd5b506100f76102db565b6040516101049190610c45565b60405180910390f35b34801561011957600080fd5b50610134600480360381019061012f9190610e00565b610333565b005b34801561014257600080fd5b5061014b6104be565b005b34801561015957600080fd5b50610162610546565b60405161016f9190610eb9565b60405180910390f35b34801561018457600080fd5b5061018d61056f565b60405161019a9190610c45565b60405180910390f35b3480156101af57600080fd5b506101ca60048036038101906101c59190610f00565b6105c7565b6040516101d79190610b6c565b60405180910390f35b3480156101ec57600080fd5b5061020760048036038101906102029190610f40565b6105ec565b6040516102149190610b6c565b60405180910390f35b34801561022957600080fd5b50610244600480360381019061023f9190610fab565b610604565b005b34801561025257600080fd5b5061026d60048036038101906102689190610fd8565b6106c4565b60405161027a9190610b6c565b60405180910390f35b34801561028f57600080fd5b506102aa60048036038101906102a59190610e00565b6106dc565b005b3480156102b857600080fd5b506102d360048036038101906102ce9190610fd8565b61090f565b005b60035481565b6060600580548060200260200160405190810160405280929190818152602001828054801561032957602002820191906000526020600020905b815481526020019060010190808311610315575b5050505050905090565b61033b610a1d565b73ffffffffffffffffffffffffffffffffffffffff16610359610546565b73ffffffffffffffffffffffffffffffffffffffff16146103af576040517f08c379a00000000000000000000000000000000000000000000000000000000081526004016103a690611062565b60405180910390fd5b80518251146103f3576040517f08c379a00000000000000000000000000000000000000000000000000000000081526004016103ea906110ce565b60405180910390fd5b60005b82518160ff1610156104b9576001838260ff168151811061041a576104196110ee565b5b60200260200101511015801561044e57506005838260ff1681518110610443576104426110ee565b5b602002602001015111155b156104a657818160ff1681518110610469576104686110ee565b5b602002602001015160026000858460ff168151811061048b5761048a6110ee565b5b60200260200101518152602001908152602001600020819055505b80806104b190611159565b9150506103f6565b505050565b6104c6610a1d565b73ffffffffffffffffffffffffffffffffffffffff166104e4610546565b73ffffffffffffffffffffffffffffffffffffffff161461053a576040517f08c379a000000000000000000000000000000000000000000000000000000000815260040161053190611062565b60405180910390fd5b6105446000610a25565b565b60008060009054906101000a900473ffffffffffffffffffffffffffffffffffffffff16905090565b606060048054806020026020016040519081016040528092919081815260200182805480156105bd57602002820191906000526020600020905b8154815260200190600101908083116105a9575b5050505050905090565b6006602052816000526040600020602052806000526040600020600091509150505481565b60026020528060005260406000206000915090505481565b61060c610a1d565b73ffffffffffffffffffffffffffffffffffffffff1661062a610546565b73ffffffffffffffffffffffffffffffffffffffff1614610680576040517f08c379a000000000000000000000000000000000000000000000000000000000815260040161067790611062565b60405180910390fd5b80600960006101000a81548173ffffffffffffffffffffffffffffffffffffffff021916908373ffffffffffffffffffffffffffffffffffffffff16021790555050565b60076020528060005260406000206000915090505481565b6106e4610a1d565b73ffffffffffffffffffffffffffffffffffffffff16610702610546565b73ffffffffffffffffffffffffffffffffffffffff1614610758576040517f08c379a000000000000000000000000000000000000000000000000000000000815260040161074f90611062565b60405180910390fd5b805182511461079c576040517f08c379a0000000000000000000000000000000000000000000000000000000008152600401610793906110ce565b60405180910390fd5b6000825167ffffffffffffffff8111156107b9576107b8610c91565b5b6040519080825280602002602001820160405280156107e75781602001602082028036833780820191505090505b5090506000835167ffffffffffffffff81111561080757610806610c91565b5b6040519080825280602002602001820160405280156108355781602001602082028036833780820191505090505b50905060005b84518160ff1610156108da57848160ff168151811061085d5761085c6110ee565b5b6020026020010151838260ff168151811061087b5761087a6110ee565b5b602002602001018181525050838160ff168151811061089d5761089c6110ee565b5b6020026020010151828260ff16815181106108bb576108ba6110ee565b5b60200260200101818152505080806108d290611159565b91505061083b565b5081600590805190602001906108f1929190610ae9565b508060049080519060200190610908929190610ae9565b5050505050565b610917610a1d565b73ffffffffffffffffffffffffffffffffffffffff16610935610546565b73ffffffffffffffffffffffffffffffffffffffff161461098b576040517f08c379a000000000000000000000000000000000000000000000000000000000815260040161098290611062565b60405180910390fd5b600073ffffffffffffffffffffffffffffffffffffffff168173ffffffffffffffffffffffffffffffffffffffff1614156109fb576040517f08c379a00000000000000000000000000000000000000000000000000000000081526004016109f2906111f5565b60405180910390fd5b610a0481610a25565b50565b6001816000016000828254019250508190555050565b600033905090565b60008060009054906101000a900473ffffffffffffffffffffffffffffffffffffffff169050816000806101000a81548173ffffffffffffffffffffffffffffffffffffffff021916908373ffffffffffffffffffffffffffffffffffffffff1602179055508173ffffffffffffffffffffffffffffffffffffffff168173ffffffffffffffffffffffffffffffffffffffff167f8be0079c531659141344cd1fd0a4f28419497f9722a3daafe3b4186f6b6457e060405160405180910390a35050565b828054828255906000526020600020908101928215610b25579160200282015b82811115610b24578251825591602001919060010190610b09565b5b509050610b329190610b36565b5090565b5b80821115610b4f576000816000905550600101610b37565b5090565b6000819050919050565b610b6681610b53565b82525050565b6000602082019050610b816000830184610b5d565b92915050565b600081519050919050565b600082825260208201905092915050565b6000819050602082019050919050565b610bbc81610b53565b82525050565b6000610bce8383610bb3565b60208301905092915050565b6000602082019050919050565b6000610bf282610b87565b610bfc8185610b92565b9350610c0783610ba3565b8060005b83811015610c38578151610c1f8882610bc2565b9750610c2a83610bda565b925050600181019050610c0b565b5085935050505092915050565b60006020820190508181036000830152610c5f8184610be7565b905092915050565b6000604051905090565b600080fd5b600080fd5b600080fd5b6000601f19601f8301169050919050565b7f4e487b7100000000000000000000000000000000000000000000000000000000600052604160045260246000fd5b610cc982610c80565b810181811067ffffffffffffffff82111715610ce857610ce7610c91565b5b80604052505050565b6000610cfb610c67565b9050610d078282610cc0565b919050565b600067ffffffffffffffff821115610d2757610d26610c91565b5b602082029050602081019050919050565b600080fd5b610d4681610b53565b8114610d5157600080fd5b50565b600081359050610d6381610d3d565b92915050565b6000610d7c610d7784610d0c565b610cf1565b90508083825260208201905060208402830185811115610d9f57610d9e610d38565b5b835b81811015610dc85780610db48882610d54565b845260208401935050602081019050610da1565b5050509392505050565b600082601f830112610de757610de6610c7b565b5b8135610df7848260208601610d69565b91505092915050565b60008060408385031215610e1757610e16610c71565b5b600083013567ffffffffffffffff811115610e3557610e34610c76565b5b610e4185828601610dd2565b925050602083013567ffffffffffffffff811115610e6257610e61610c76565b5b610e6e85828601610dd2565b9150509250929050565b600073ffffffffffffffffffffffffffffffffffffffff82169050919050565b6000610ea382610e78565b9050919050565b610eb381610e98565b82525050565b6000602082019050610ece6000830184610eaa565b92915050565b610edd81610e98565b8114610ee857600080fd5b50565b600081359050610efa81610ed4565b92915050565b60008060408385031215610f1757610f16610c71565b5b6000610f2585828601610d54565b9250506020610f3685828601610eeb565b9150509250929050565b600060208284031215610f5657610f55610c71565b5b6000610f6484828501610d54565b91505092915050565b6000610f7882610e78565b9050919050565b610f8881610f6d565b8114610f9357600080fd5b50565b600081359050610fa581610f7f565b92915050565b600060208284031215610fc157610fc0610c71565b5b6000610fcf84828501610f96565b91505092915050565b600060208284031215610fee57610fed610c71565b5b6000610ffc84828501610eeb565b91505092915050565b600082825260208201905092915050565b7f4f776e61626c653a2063616c6c6572206973206e6f7420746865206f776e6572600082015250565b600061104c602083611005565b915061105782611016565b602082019050919050565b6000602082019050818103600083015261107b8161103f565b9050919050565b7f617272206c656e67746873000000000000000000000000000000000000000000600082015250565b60006110b8600b83611005565b91506110c382611082565b602082019050919050565b600060208201905081810360008301526110e7816110ab565b9050919050565b7f4e487b7100000000000000000000000000000000000000000000000000000000600052603260045260246000fd5b7f4e487b7100000000000000000000000000000000000000000000000000000000600052601160045260246000fd5b600060ff82169050919050565b60006111648261114c565b915060ff8214156111785761117761111d565b5b600182019050919050565b7f4f776e61626c653a206e6577206f776e657220697320746865207a65726f206160008201527f6464726573730000000000000000000000000000000000000000000000000000602082015250565b60006111df602683611005565b91506111ea82611183565b604082019050919050565b6000602082019050818103600083015261120e816111d2565b905091905056fea26469706673582212200fe1d7776c7025f31229493f8746e7ef1f2d001285a0e6025ec0eb1b318a69dc64736f6c63430008090033",
  "immutableReferences": {},
  "source": "// SPDX-License-Identifier: MIT\npragma solidity >=0.7.0 <0.9.0;\n\nimport \"@openzeppelin/contracts/utils/Counters.sol\";\nimport \"@openzeppelin/contracts/access/Ownable.sol\";\nimport \"./Verify.sol\";\nimport \"./InsuranceNFT.sol\";\n\n\ncontract InsuranceDAO is Ownable{\n    using Counters for Counters.Counter;\n    \n    Counters.Counter private _round;\n\n    mapping (uint256 => uint256) public costSchedule;//costs for each driver NFT\n    uint public payoutCap = 0.5 ether;//payout cap per block\n    uint256[] internal penaltyLevels; //penalty and acceleration levels\n    uint256[] internal accLevels; //levels acceleration where penalites occur\n    mapping (uint => mapping (address => uint)) public roundBalances; //deposit minus any payouts in current round\n    mapping (address => uint) public levelsEntered;//level of each driver originally\n    Verify verifyContract; //verifying contract\n    InsuranceNFT NFTInstance;//NFT contract\n\n    constructor(address _verifyAddress){\n        verifyContract = Verify(_verifyAddress);\n        _round.increment();\n    }\n\n    receive() payable external{\n\n    }\n\n    function setCostSchedule(uint[] memory levels, uint[] memory costs) public onlyOwner{\n        require(levels.length == costs.length, \"arr lengths\");\n        for(uint8 i=0; i<levels.length; i++){\n            if(levels[i]>=1 && levels[i] <= 5){\n                costSchedule[levels[i]] = costs[i];\n            }\n        }\n    }\n\n    function setPenalties(uint[] memory levels, uint[] memory penalties) public onlyOwner{\n        require(levels.length == penalties.length, \"arr lengths\");\n        uint[] memory tempLevels = new uint[](levels.length);\n        uint[] memory tempPenalties = new uint[](levels.length);\n\n        for (uint8 i=0; i<levels.length; i++){\n            tempLevels[i] = levels[i];\n            tempPenalties[i] = penalties[i]; \n        }\n        accLevels = tempLevels;\n        penaltyLevels = tempPenalties;\n    }\n\n    function setNFTContract(address payable NFTContract) public onlyOwner{\n        NFTInstance = InsuranceNFT(NFTContract);\n    } \n\n    function getPenaltyLevels() public view returns(uint[] memory){\n        return penaltyLevels;\n    }\n\n    function getAccLevels() public view returns(uint[] memory){\n        return accLevels;\n    }\n}",
  "sourcePath": "/home/jpick713/BlockChain_Apps/iotexPebbleDAO/contracts/InsuranceDAO.sol",
  "compiler": {
    "name": "solc",
    "version": "0.8.9+commit.e5eed63a.Emscripten.clang"
  },
  "schemaVersion": "3.4.2",
  "updatedAt": "2021-10-28T12:43:36.567Z",
  "networkType": "ethereum",
  "devdoc": {
    "kind": "dev",
    "methods": {
      "owner()": {
        "details": "Returns the address of the current owner."
      },
      "renounceOwnership()": {
        "details": "Leaves the contract without owner. It will not be possible to call `onlyOwner` functions anymore. Can only be called by the current owner. NOTE: Renouncing ownership will leave the contract without an owner, thereby removing any functionality that is only available to the owner."
      },
      "transferOwnership(address)": {
        "details": "Transfers ownership of the contract to a new account (`newOwner`). Can only be called by the current owner."
      }
    },
    "version": 1
  },
  "userdoc": {
    "kind": "user",
    "methods": {},
    "version": 1
  }
}