{
  "contractName": "InsuranceDAO",
  "abi": [
    {
      "inputs": [
        {
          "internalType": "address",
          "name": "_verifyAddress",
          "type": "address"
        }
      ],
      "stateMutability": "nonpayable",
      "type": "constructor"
    },
    {
      "anonymous": false,
      "inputs": [
        {
          "indexed": true,
          "internalType": "address",
          "name": "previousOwner",
          "type": "address"
        },
        {
          "indexed": true,
          "internalType": "address",
          "name": "newOwner",
          "type": "address"
        }
      ],
      "name": "OwnershipTransferred",
      "type": "event"
    },
    {
      "inputs": [
        {
          "internalType": "address",
          "name": "",
          "type": "address"
        }
      ],
      "name": "levelsEntered",
      "outputs": [
        {
          "internalType": "uint256",
          "name": "",
          "type": "uint256"
        }
      ],
      "stateMutability": "view",
      "type": "function",
      "constant": true
    },
    {
      "inputs": [],
      "name": "owner",
      "outputs": [
        {
          "internalType": "address",
          "name": "",
          "type": "address"
        }
      ],
      "stateMutability": "view",
      "type": "function",
      "constant": true
    },
    {
      "inputs": [],
      "name": "payoutCap",
      "outputs": [
        {
          "internalType": "uint256",
          "name": "",
          "type": "uint256"
        }
      ],
      "stateMutability": "view",
      "type": "function",
      "constant": true
    },
    {
      "inputs": [],
      "name": "renounceOwnership",
      "outputs": [],
      "stateMutability": "nonpayable",
      "type": "function"
    },
    {
      "inputs": [
        {
          "internalType": "uint256",
          "name": "",
          "type": "uint256"
        },
        {
          "internalType": "address",
          "name": "",
          "type": "address"
        }
      ],
      "name": "roundBalances",
      "outputs": [
        {
          "internalType": "uint256",
          "name": "",
          "type": "uint256"
        }
      ],
      "stateMutability": "view",
      "type": "function",
      "constant": true
    },
    {
      "inputs": [
        {
          "internalType": "address",
          "name": "newOwner",
          "type": "address"
        }
      ],
      "name": "transferOwnership",
      "outputs": [],
      "stateMutability": "nonpayable",
      "type": "function"
    },
    {
      "stateMutability": "payable",
      "type": "receive",
      "payable": true
    },
    {
      "inputs": [
        {
          "internalType": "uint256[]",
          "name": "costs",
          "type": "uint256[]"
        }
      ],
      "name": "setCostSchedule",
      "outputs": [],
      "stateMutability": "nonpayable",
      "type": "function"
    },
    {
      "inputs": [
        {
          "internalType": "uint256[]",
          "name": "levels",
          "type": "uint256[]"
        },
        {
          "internalType": "uint256[]",
          "name": "penalties",
          "type": "uint256[]"
        }
      ],
      "name": "setPenalties",
      "outputs": [],
      "stateMutability": "nonpayable",
      "type": "function"
    },
    {
      "inputs": [
        {
          "internalType": "address payable",
          "name": "NFTContract",
          "type": "address"
        }
      ],
      "name": "setNFTContract",
      "outputs": [],
      "stateMutability": "nonpayable",
      "type": "function"
    },
    {
      "inputs": [],
      "name": "getPenaltyLevels",
      "outputs": [
        {
          "internalType": "uint256[]",
          "name": "",
          "type": "uint256[]"
        }
      ],
      "stateMutability": "view",
      "type": "function",
      "constant": true
    },
    {
      "inputs": [],
      "name": "getAccLevels",
      "outputs": [
        {
          "internalType": "uint256[]",
          "name": "",
          "type": "uint256[]"
        }
      ],
      "stateMutability": "view",
      "type": "function",
      "constant": true
    },
    {
      "inputs": [],
      "name": "getCosts",
      "outputs": [
        {
          "internalType": "uint256[]",
          "name": "",
          "type": "uint256[]"
        }
      ],
      "stateMutability": "view",
      "type": "function",
      "constant": true
    },
    {
      "inputs": [],
      "name": "getCurrentRound",
      "outputs": [
        {
          "internalType": "uint256",
          "name": "",
          "type": "uint256"
        }
      ],
      "stateMutability": "view",
      "type": "function",
      "constant": true
    }
  ],
  "bytecode": "0x60806040526706f05b59d3b200006003553480156200001d57600080fd5b50604051620016323803806200163283398181016040528101906200004391906200020e565b6200006362000057620000c260201b60201c565b620000ca60201b60201c565b80600860006101000a81548173ffffffffffffffffffffffffffffffffffffffff021916908373ffffffffffffffffffffffffffffffffffffffff160217905550620000bb60016200018e60201b62000a9c1760201c565b5062000240565b600033905090565b60008060009054906101000a900473ffffffffffffffffffffffffffffffffffffffff169050816000806101000a81548173ffffffffffffffffffffffffffffffffffffffff021916908373ffffffffffffffffffffffffffffffffffffffff1602179055508173ffffffffffffffffffffffffffffffffffffffff168173ffffffffffffffffffffffffffffffffffffffff167f8be0079c531659141344cd1fd0a4f28419497f9722a3daafe3b4186f6b6457e060405160405180910390a35050565b6001816000016000828254019250508190555050565b600080fd5b600073ffffffffffffffffffffffffffffffffffffffff82169050919050565b6000620001d682620001a9565b9050919050565b620001e881620001c9565b8114620001f457600080fd5b50565b6000815190506200020881620001dd565b92915050565b600060208284031215620002275762000226620001a4565b5b60006200023784828501620001f7565b91505092915050565b6113e280620002506000396000f3fe6080604052600436106100c65760003560e01c80639005ea891161007f578063c5aba96311610059578063c5aba96314610251578063e938d3771461028e578063edcb7063146102b7578063f2fde38b146102e0576100cd565b80639005ea89146101c0578063a32bf597146101fd578063a7ccabdf14610228576100cd565b806303075018146100d2578063282c89ce146100fd57806338ce005614610128578063715018a6146101535780638da5cb5b1461016a5780638ea73e9c14610195576100cd565b366100cd57005b600080fd5b3480156100de57600080fd5b506100e7610309565b6040516100f49190610cbe565b60405180910390f35b34801561010957600080fd5b50610112610361565b60405161011f9190610cef565b60405180910390f35b34801561013457600080fd5b5061013d610367565b60405161014a9190610cbe565b60405180910390f35b34801561015f57600080fd5b506101686103bf565b005b34801561017657600080fd5b5061017f610447565b60405161018c9190610d4b565b60405180910390f35b3480156101a157600080fd5b506101aa610470565b6040516101b79190610cbe565b60405180910390f35b3480156101cc57600080fd5b506101e760048036038101906101e29190610dd2565b6104c8565b6040516101f49190610cef565b60405180910390f35b34801561020957600080fd5b506102126104ed565b60405161021f9190610cef565b60405180910390f35b34801561023457600080fd5b5061024f600480360381019061024a9190610e50565b610503565b005b34801561025d57600080fd5b5061027860048036038101906102739190610e7d565b6105c3565b6040516102859190610cef565b60405180910390f35b34801561029a57600080fd5b506102b560048036038101906102b09190611003565b6105db565b005b3480156102c357600080fd5b506102de60048036038101906102d9919061104c565b610771565b005b3480156102ec57600080fd5b5061030760048036038101906103029190610e7d565b6109a4565b005b6060600280548060200260200160405190810160405280929190818152602001828054801561035757602002820191906000526020600020905b815481526020019060010190808311610343575b5050505050905090565b60035481565b606060058054806020026020016040519081016040528092919081815260200182805480156103b557602002820191906000526020600020905b8154815260200190600101908083116103a1575b5050505050905090565b6103c7610ab2565b73ffffffffffffffffffffffffffffffffffffffff166103e5610447565b73ffffffffffffffffffffffffffffffffffffffff161461043b576040517f08c379a000000000000000000000000000000000000000000000000000000000815260040161043290611121565b60405180910390fd5b6104456000610aba565b565b60008060009054906101000a900473ffffffffffffffffffffffffffffffffffffffff16905090565b606060048054806020026020016040519081016040528092919081815260200182805480156104be57602002820191906000526020600020905b8154815260200190600101908083116104aa575b5050505050905090565b6006602052816000526040600020602052806000526040600020600091509150505481565b6000806104fa6001610b7e565b90508091505090565b61050b610ab2565b73ffffffffffffffffffffffffffffffffffffffff16610529610447565b73ffffffffffffffffffffffffffffffffffffffff161461057f576040517f08c379a000000000000000000000000000000000000000000000000000000000815260040161057690611121565b60405180910390fd5b80600960006101000a81548173ffffffffffffffffffffffffffffffffffffffff021916908373ffffffffffffffffffffffffffffffffffffffff16021790555050565b60076020528060005260406000206000915090505481565b6105e3610ab2565b73ffffffffffffffffffffffffffffffffffffffff16610601610447565b73ffffffffffffffffffffffffffffffffffffffff1614610657576040517f08c379a000000000000000000000000000000000000000000000000000000000815260040161064e90611121565b60405180910390fd5b60018151101561069c576040517f08c379a00000000000000000000000000000000000000000000000000000000081526004016106939061118d565b60405180910390fd5b6000806001905060005b83518160ff1610156107145782848260ff16815181106106c9576106c86111ad565b5b602002602001015110156106e05760009150610701565b838160ff16815181106106f6576106f56111ad565b5b602002602001015192505b808061070c90611218565b9150506106a6565b5080610755576040517f08c379a000000000000000000000000000000000000000000000000000000000815260040161074c9061128e565b60405180910390fd5b826002908051906020019061076b929190610b8c565b50505050565b610779610ab2565b73ffffffffffffffffffffffffffffffffffffffff16610797610447565b73ffffffffffffffffffffffffffffffffffffffff16146107ed576040517f08c379a00000000000000000000000000000000000000000000000000000000081526004016107e490611121565b60405180910390fd5b8051825114610831576040517f08c379a0000000000000000000000000000000000000000000000000000000008152600401610828906112fa565b60405180910390fd5b6000825167ffffffffffffffff81111561084e5761084d610ec0565b5b60405190808252806020026020018201604052801561087c5781602001602082028036833780820191505090505b5090506000835167ffffffffffffffff81111561089c5761089b610ec0565b5b6040519080825280602002602001820160405280156108ca5781602001602082028036833780820191505090505b50905060005b84518160ff16101561096f57848160ff16815181106108f2576108f16111ad565b5b6020026020010151838260ff16815181106109105761090f6111ad565b5b602002602001018181525050838160ff1681518110610932576109316111ad565b5b6020026020010151828260ff16815181106109505761094f6111ad565b5b602002602001018181525050808061096790611218565b9150506108d0565b508160059080519060200190610986929190610b8c565b50806004908051906020019061099d929190610b8c565b5050505050565b6109ac610ab2565b73ffffffffffffffffffffffffffffffffffffffff166109ca610447565b73ffffffffffffffffffffffffffffffffffffffff1614610a20576040517f08c379a0000000000000000000000000000000000000000000000000000000008152600401610a1790611121565b60405180910390fd5b600073ffffffffffffffffffffffffffffffffffffffff168173ffffffffffffffffffffffffffffffffffffffff161415610a90576040517f08c379a0000000000000000000000000000000000000000000000000000000008152600401610a879061138c565b60405180910390fd5b610a9981610aba565b50565b6001816000016000828254019250508190555050565b600033905090565b60008060009054906101000a900473ffffffffffffffffffffffffffffffffffffffff169050816000806101000a81548173ffffffffffffffffffffffffffffffffffffffff021916908373ffffffffffffffffffffffffffffffffffffffff1602179055508173ffffffffffffffffffffffffffffffffffffffff168173ffffffffffffffffffffffffffffffffffffffff167f8be0079c531659141344cd1fd0a4f28419497f9722a3daafe3b4186f6b6457e060405160405180910390a35050565b600081600001549050919050565b828054828255906000526020600020908101928215610bc8579160200282015b82811115610bc7578251825591602001919060010190610bac565b5b509050610bd59190610bd9565b5090565b5b80821115610bf2576000816000905550600101610bda565b5090565b600081519050919050565b600082825260208201905092915050565b6000819050602082019050919050565b6000819050919050565b610c3581610c22565b82525050565b6000610c478383610c2c565b60208301905092915050565b6000602082019050919050565b6000610c6b82610bf6565b610c758185610c01565b9350610c8083610c12565b8060005b83811015610cb1578151610c988882610c3b565b9750610ca383610c53565b925050600181019050610c84565b5085935050505092915050565b60006020820190508181036000830152610cd88184610c60565b905092915050565b610ce981610c22565b82525050565b6000602082019050610d046000830184610ce0565b92915050565b600073ffffffffffffffffffffffffffffffffffffffff82169050919050565b6000610d3582610d0a565b9050919050565b610d4581610d2a565b82525050565b6000602082019050610d606000830184610d3c565b92915050565b6000604051905090565b600080fd5b600080fd5b610d8381610c22565b8114610d8e57600080fd5b50565b600081359050610da081610d7a565b92915050565b610daf81610d2a565b8114610dba57600080fd5b50565b600081359050610dcc81610da6565b92915050565b60008060408385031215610de957610de8610d70565b5b6000610df785828601610d91565b9250506020610e0885828601610dbd565b9150509250929050565b6000610e1d82610d0a565b9050919050565b610e2d81610e12565b8114610e3857600080fd5b50565b600081359050610e4a81610e24565b92915050565b600060208284031215610e6657610e65610d70565b5b6000610e7484828501610e3b565b91505092915050565b600060208284031215610e9357610e92610d70565b5b6000610ea184828501610dbd565b91505092915050565b600080fd5b6000601f19601f8301169050919050565b7f4e487b7100000000000000000000000000000000000000000000000000000000600052604160045260246000fd5b610ef882610eaf565b810181811067ffffffffffffffff82111715610f1757610f16610ec0565b5b80604052505050565b6000610f2a610d66565b9050610f368282610eef565b919050565b600067ffffffffffffffff821115610f5657610f55610ec0565b5b602082029050602081019050919050565b600080fd5b6000610f7f610f7a84610f3b565b610f20565b90508083825260208201905060208402830185811115610fa257610fa1610f67565b5b835b81811015610fcb5780610fb78882610d91565b845260208401935050602081019050610fa4565b5050509392505050565b600082601f830112610fea57610fe9610eaa565b5b8135610ffa848260208601610f6c565b91505092915050565b60006020828403121561101957611018610d70565b5b600082013567ffffffffffffffff81111561103757611036610d75565b5b61104384828501610fd5565b91505092915050565b6000806040838503121561106357611062610d70565b5b600083013567ffffffffffffffff81111561108157611080610d75565b5b61108d85828601610fd5565b925050602083013567ffffffffffffffff8111156110ae576110ad610d75565b5b6110ba85828601610fd5565b9150509250929050565b600082825260208201905092915050565b7f4f776e61626c653a2063616c6c6572206973206e6f7420746865206f776e6572600082015250565b600061110b6020836110c4565b9150611116826110d5565b602082019050919050565b6000602082019050818103600083015261113a816110fe565b9050919050565b7f6e6f20636f737473000000000000000000000000000000000000000000000000600082015250565b60006111776008836110c4565b915061118282611141565b602082019050919050565b600060208201905081810360008301526111a68161116a565b9050919050565b7f4e487b7100000000000000000000000000000000000000000000000000000000600052603260045260246000fd5b7f4e487b7100000000000000000000000000000000000000000000000000000000600052601160045260246000fd5b600060ff82169050919050565b60006112238261120b565b915060ff821415611237576112366111dc565b5b600182019050919050565b7f696e76616c696420636f73747300000000000000000000000000000000000000600082015250565b6000611278600d836110c4565b915061128382611242565b602082019050919050565b600060208201905081810360008301526112a78161126b565b9050919050565b7f617272206c656e67746873000000000000000000000000000000000000000000600082015250565b60006112e4600b836110c4565b91506112ef826112ae565b602082019050919050565b60006020820190508181036000830152611313816112d7565b9050919050565b7f4f776e61626c653a206e6577206f776e657220697320746865207a65726f206160008201527f6464726573730000000000000000000000000000000000000000000000000000602082015250565b60006113766026836110c4565b91506113818261131a565b604082019050919050565b600060208201905081810360008301526113a581611369565b905091905056fea2646970667358221220f541f9751c0031063054492c167c82a9587183483d7f46067b3258fa8b44737464736f6c63430008090033",
  "immutableReferences": {},
  "source": "// SPDX-License-Identifier: MIT\npragma solidity >=0.7.0 <0.9.0;\n\nimport \"@openzeppelin/contracts/utils/Counters.sol\";\nimport \"@openzeppelin/contracts/access/Ownable.sol\";\nimport \"./Verify.sol\";\nimport \"./InsuranceNFT.sol\";\n\n\ncontract InsuranceDAO is Ownable{\n    using Counters for Counters.Counter;\n    \n    Counters.Counter private _round;\n\n    uint256[] internal costSchedule;//costs for each driver NFT\n    uint public payoutCap = 0.5 ether;//payout cap per block\n    uint256[] internal penaltyLevels; //penalty and acceleration levels\n    uint256[] internal accLevels; //levels acceleration where penalites occur\n    mapping (uint => mapping (address => uint)) public roundBalances; //deposit minus any payouts in current round\n    mapping (address => uint) public levelsEntered;//level of each driver originally\n    Verify verifyContract; //verifying contract\n    InsuranceNFT NFTInstance;//NFT contract\n\n    constructor(address _verifyAddress){\n        verifyContract = Verify(_verifyAddress);\n        _round.increment();\n    }\n\n    receive() payable external{\n\n    }\n\n    function setCostSchedule(uint[] memory costs) public onlyOwner{\n        require(costs.length >= 1, \"no costs\");\n        uint256 maxCost = 0;\n        bool validCosts = true;\n        for(uint8 i=0; i<costs.length; i++){\n            if(costs[i] < maxCost){\n                validCosts = false;\n            }\n            else{\n                maxCost = costs[i];\n            }\n        }\n        require(validCosts , \"invalid costs\");\n        costSchedule = costs;\n    }\n\n    function setPenalties(uint[] memory levels, uint[] memory penalties) public onlyOwner{\n        require(levels.length == penalties.length, \"arr lengths\");\n        uint[] memory tempLevels = new uint[](levels.length);\n        uint[] memory tempPenalties = new uint[](levels.length);\n\n        for (uint8 i=0; i<levels.length; i++){\n            tempLevels[i] = levels[i];\n            tempPenalties[i] = penalties[i]; \n        }\n        accLevels = tempLevels;\n        penaltyLevels = tempPenalties;\n    }\n\n    function setNFTContract(address payable NFTContract) public onlyOwner{\n        NFTInstance = InsuranceNFT(NFTContract);\n    } \n\n    function getPenaltyLevels() public view returns(uint[] memory){\n        return penaltyLevels;\n    }\n\n    function getAccLevels() public view returns(uint[] memory){\n        return accLevels;\n    }\n\n    function getCosts() public view returns(uint[] memory){\n        return costSchedule;\n    }\n\n    function getCurrentRound() public view returns(uint){\n        uint currentRound = _round.current();\n        return currentRound;\n    }\n}",
  "sourcePath": "/home/jpick713/BlockChain_Apps/iotexPebbleDAO/contracts/InsuranceDAO.sol",
  "compiler": {
    "name": "solc",
    "version": "0.8.9+commit.e5eed63a.Emscripten.clang"
  },
  "schemaVersion": "3.4.2",
  "updatedAt": "2021-10-28T15:24:12.407Z",
  "networkType": "ethereum",
  "devdoc": {
    "kind": "dev",
    "methods": {
      "owner()": {
        "details": "Returns the address of the current owner."
      },
      "renounceOwnership()": {
        "details": "Leaves the contract without owner. It will not be possible to call `onlyOwner` functions anymore. Can only be called by the current owner. NOTE: Renouncing ownership will leave the contract without an owner, thereby removing any functionality that is only available to the owner."
      },
      "transferOwnership(address)": {
        "details": "Transfers ownership of the contract to a new account (`newOwner`). Can only be called by the current owner."
      }
    },
    "version": 1
  },
  "userdoc": {
    "kind": "user",
    "methods": {},
    "version": 1
  }
}