{
  "contractName": "Verify",
  "abi": [
    {
      "inputs": [
        {
          "internalType": "address",
          "name": "_serverAddress",
          "type": "address"
        }
      ],
      "stateMutability": "nonpayable",
      "type": "constructor"
    },
    {
      "anonymous": false,
      "inputs": [
        {
          "indexed": true,
          "internalType": "address",
          "name": "previousOwner",
          "type": "address"
        },
        {
          "indexed": true,
          "internalType": "address",
          "name": "newOwner",
          "type": "address"
        }
      ],
      "name": "OwnershipTransferred",
      "type": "event"
    },
    {
      "inputs": [],
      "name": "DAOAddress",
      "outputs": [
        {
          "internalType": "address",
          "name": "",
          "type": "address"
        }
      ],
      "stateMutability": "view",
      "type": "function",
      "constant": true
    },
    {
      "inputs": [],
      "name": "NFTAddress",
      "outputs": [
        {
          "internalType": "address",
          "name": "",
          "type": "address"
        }
      ],
      "stateMutability": "view",
      "type": "function",
      "constant": true
    },
    {
      "inputs": [],
      "name": "checkHash",
      "outputs": [
        {
          "internalType": "bytes32",
          "name": "",
          "type": "bytes32"
        }
      ],
      "stateMutability": "view",
      "type": "function",
      "constant": true
    },
    {
      "inputs": [],
      "name": "finalHash",
      "outputs": [
        {
          "internalType": "bytes32",
          "name": "",
          "type": "bytes32"
        }
      ],
      "stateMutability": "view",
      "type": "function",
      "constant": true
    },
    {
      "inputs": [
        {
          "internalType": "address",
          "name": "",
          "type": "address"
        }
      ],
      "name": "nonces",
      "outputs": [
        {
          "internalType": "uint256",
          "name": "",
          "type": "uint256"
        }
      ],
      "stateMutability": "view",
      "type": "function",
      "constant": true
    },
    {
      "inputs": [],
      "name": "owner",
      "outputs": [
        {
          "internalType": "address",
          "name": "",
          "type": "address"
        }
      ],
      "stateMutability": "view",
      "type": "function",
      "constant": true
    },
    {
      "inputs": [],
      "name": "renounceOwnership",
      "outputs": [],
      "stateMutability": "nonpayable",
      "type": "function"
    },
    {
      "inputs": [],
      "name": "serverAddress",
      "outputs": [
        {
          "internalType": "address",
          "name": "",
          "type": "address"
        }
      ],
      "stateMutability": "view",
      "type": "function",
      "constant": true
    },
    {
      "inputs": [
        {
          "internalType": "address",
          "name": "",
          "type": "address"
        }
      ],
      "name": "serverAddresses",
      "outputs": [
        {
          "internalType": "bool",
          "name": "",
          "type": "bool"
        }
      ],
      "stateMutability": "view",
      "type": "function",
      "constant": true
    },
    {
      "inputs": [
        {
          "internalType": "address",
          "name": "newOwner",
          "type": "address"
        }
      ],
      "name": "transferOwnership",
      "outputs": [],
      "stateMutability": "nonpayable",
      "type": "function"
    },
    {
      "inputs": [
        {
          "internalType": "address",
          "name": "_mintAddress",
          "type": "address"
        },
        {
          "internalType": "string",
          "name": "_tokenURI",
          "type": "string"
        },
        {
          "internalType": "uint256",
          "name": "_tokenId",
          "type": "uint256"
        },
        {
          "internalType": "bytes32",
          "name": "r",
          "type": "bytes32"
        },
        {
          "internalType": "bytes32",
          "name": "s",
          "type": "bytes32"
        },
        {
          "internalType": "uint8",
          "name": "v",
          "type": "uint8"
        }
      ],
      "name": "metaDataVerify",
      "outputs": [
        {
          "internalType": "bool",
          "name": "",
          "type": "bool"
        }
      ],
      "stateMutability": "nonpayable",
      "type": "function"
    },
    {
      "inputs": [
        {
          "internalType": "address",
          "name": "ownerAddress",
          "type": "address"
        },
        {
          "internalType": "string",
          "name": "rating",
          "type": "string"
        },
        {
          "internalType": "uint256",
          "name": "tokenId",
          "type": "uint256"
        },
        {
          "internalType": "bytes32",
          "name": "r",
          "type": "bytes32"
        },
        {
          "internalType": "bytes32",
          "name": "s",
          "type": "bytes32"
        },
        {
          "internalType": "uint8",
          "name": "v",
          "type": "uint8"
        }
      ],
      "name": "driverDataVerify",
      "outputs": [
        {
          "internalType": "bool",
          "name": "",
          "type": "bool"
        }
      ],
      "stateMutability": "nonpayable",
      "type": "function"
    },
    {
      "inputs": [
        {
          "internalType": "address",
          "name": "_NFTAddress",
          "type": "address"
        }
      ],
      "name": "setNFTAddress",
      "outputs": [],
      "stateMutability": "nonpayable",
      "type": "function"
    },
    {
      "inputs": [
        {
          "internalType": "address",
          "name": "_DAOAddress",
          "type": "address"
        }
      ],
      "name": "setDAOAddress",
      "outputs": [],
      "stateMutability": "nonpayable",
      "type": "function"
    }
  ],
  "bytecode": "0x60806040523480156200001157600080fd5b506040516200190a3803806200190a83398181016040528101906200003791906200022d565b620000576200004b620000f760201b60201c565b620000ff60201b60201c565b80600460006101000a81548173ffffffffffffffffffffffffffffffffffffffff021916908373ffffffffffffffffffffffffffffffffffffffff1602179055506001600760008373ffffffffffffffffffffffffffffffffffffffff1673ffffffffffffffffffffffffffffffffffffffff16815260200190815260200160002060006101000a81548160ff021916908315150217905550506200025f565b600033905090565b60008060009054906101000a900473ffffffffffffffffffffffffffffffffffffffff169050816000806101000a81548173ffffffffffffffffffffffffffffffffffffffff021916908373ffffffffffffffffffffffffffffffffffffffff1602179055508173ffffffffffffffffffffffffffffffffffffffff168173ffffffffffffffffffffffffffffffffffffffff167f8be0079c531659141344cd1fd0a4f28419497f9722a3daafe3b4186f6b6457e060405160405180910390a35050565b600080fd5b600073ffffffffffffffffffffffffffffffffffffffff82169050919050565b6000620001f582620001c8565b9050919050565b6200020781620001e8565b81146200021357600080fd5b50565b6000815190506200022781620001fc565b92915050565b600060208284031215620002465762000245620001c3565b5b6000620002568482850162000216565b91505092915050565b61169b806200026f6000396000f3fe608060405234801561001057600080fd5b50600436106100ea5760003560e01c8063965afa891161008c578063db420fe311610066578063db420fe314610239578063dccc471814610257578063ec49378114610275578063f2fde38b146102a5576100ea565b8063965afa89146101cf578063cb050a7c146101eb578063d392eab11461021b576100ea565b806369d03738116100c857806369d037381461015b578063715018a6146101775780637ecebe00146101815780638da5cb5b146101b1576100ea565b80630195552e146100ef57806319483cd11461011f578063310c87cc1461013d575b600080fd5b61010960048036038101906101049190611012565b6102c1565b60405161011691906110d6565b60405180910390f35b6101276104ff565b6040516101349190611100565b60405180910390f35b610145610505565b604051610152919061112a565b60405180910390f35b61017560048036038101906101709190611145565b61052b565b005b61017f61065b565b005b61019b60048036038101906101969190611145565b6106e3565b6040516101a89190611181565b60405180910390f35b6101b96106fb565b6040516101c6919061112a565b60405180910390f35b6101e960048036038101906101e49190611145565b610724565b005b61020560048036038101906102009190611012565b610854565b60405161021291906110d6565b60405180910390f35b610223610a92565b604051610230919061112a565b60405180910390f35b610241610ab8565b60405161024e919061112a565b60405180910390f35b61025f610ade565b60405161026c9190611100565b60405180910390f35b61028f600480360381019061028a9190611145565b610ae4565b60405161029c91906110d6565b60405180910390f35b6102bf60048036038101906102ba9190611145565b610b04565b005b6000600660009054906101000a900473ffffffffffffffffffffffffffffffffffffffff1673ffffffffffffffffffffffffffffffffffffffff16610304610bfc565b73ffffffffffffffffffffffffffffffffffffffff161461035a576040517f08c379a0000000000000000000000000000000000000000000000000000000008152600401610351906111f9565b60405180910390fd5b6000610367888888610c04565b905060006001828588886040516000815260200160405260405161038e9493929190611228565b6020604051602081039080840390855afa1580156103b0573d6000803e3d6000fd5b505050602060405103519050600760008273ffffffffffffffffffffffffffffffffffffffff1673ffffffffffffffffffffffffffffffffffffffff16815260200190815260200160002060009054906101000a900460ff16610448576040517f08c379a000000000000000000000000000000000000000000000000000000000815260040161043f906112b9565b60405180910390fd5b60016000610454610bfc565b73ffffffffffffffffffffffffffffffffffffffff1673ffffffffffffffffffffffffffffffffffffffff168152602001908152602001600020600081548092919061049f90611308565b9190505550600760008273ffffffffffffffffffffffffffffffffffffffff1673ffffffffffffffffffffffffffffffffffffffff16815260200190815260200160002060009054906101000a900460ff16925050509695505050505050565b60025481565b600560009054906101000a900473ffffffffffffffffffffffffffffffffffffffff1681565b610533610bfc565b73ffffffffffffffffffffffffffffffffffffffff166105516106fb565b73ffffffffffffffffffffffffffffffffffffffff16146105a7576040517f08c379a000000000000000000000000000000000000000000000000000000000815260040161059e9061139d565b60405180910390fd5b600073ffffffffffffffffffffffffffffffffffffffff168173ffffffffffffffffffffffffffffffffffffffff161415610617576040517f08c379a000000000000000000000000000000000000000000000000000000000815260040161060e90611409565b60405180910390fd5b80600560006101000a81548173ffffffffffffffffffffffffffffffffffffffff021916908373ffffffffffffffffffffffffffffffffffffffff16021790555050565b610663610bfc565b73ffffffffffffffffffffffffffffffffffffffff166106816106fb565b73ffffffffffffffffffffffffffffffffffffffff16146106d7576040517f08c379a00000000000000000000000000000000000000000000000000000000081526004016106ce9061139d565b60405180910390fd5b6106e16000610cf1565b565b60016020528060005260406000206000915090505481565b60008060009054906101000a900473ffffffffffffffffffffffffffffffffffffffff16905090565b61072c610bfc565b73ffffffffffffffffffffffffffffffffffffffff1661074a6106fb565b73ffffffffffffffffffffffffffffffffffffffff16146107a0576040517f08c379a00000000000000000000000000000000000000000000000000000000081526004016107979061139d565b60405180910390fd5b600073ffffffffffffffffffffffffffffffffffffffff168173ffffffffffffffffffffffffffffffffffffffff161415610810576040517f08c379a000000000000000000000000000000000000000000000000000000000815260040161080790611409565b60405180910390fd5b80600660006101000a81548173ffffffffffffffffffffffffffffffffffffffff021916908373ffffffffffffffffffffffffffffffffffffffff16021790555050565b6000600560009054906101000a900473ffffffffffffffffffffffffffffffffffffffff1673ffffffffffffffffffffffffffffffffffffffff16610897610bfc565b73ffffffffffffffffffffffffffffffffffffffff16146108ed576040517f08c379a00000000000000000000000000000000000000000000000000000000081526004016108e490611475565b60405180910390fd5b60006108fa888888610c04565b90506000600182858888604051600081526020016040526040516109219493929190611228565b6020604051602081039080840390855afa158015610943573d6000803e3d6000fd5b505050602060405103519050600760008273ffffffffffffffffffffffffffffffffffffffff1673ffffffffffffffffffffffffffffffffffffffff16815260200190815260200160002060009054906101000a900460ff166109db576040517f08c379a00000000000000000000000000000000000000000000000000000000081526004016109d2906112b9565b60405180910390fd5b600160006109e7610bfc565b73ffffffffffffffffffffffffffffffffffffffff1673ffffffffffffffffffffffffffffffffffffffff1681526020019081526020016000206000815480929190610a3290611308565b9190505550600760008273ffffffffffffffffffffffffffffffffffffffff1673ffffffffffffffffffffffffffffffffffffffff16815260200190815260200160002060009054906101000a900460ff16925050509695505050505050565b600660009054906101000a900473ffffffffffffffffffffffffffffffffffffffff1681565b600460009054906101000a900473ffffffffffffffffffffffffffffffffffffffff1681565b60035481565b60076020528060005260406000206000915054906101000a900460ff1681565b610b0c610bfc565b73ffffffffffffffffffffffffffffffffffffffff16610b2a6106fb565b73ffffffffffffffffffffffffffffffffffffffff1614610b80576040517f08c379a0000000000000000000000000000000000000000000000000000000008152600401610b779061139d565b60405180910390fd5b600073ffffffffffffffffffffffffffffffffffffffff168173ffffffffffffffffffffffffffffffffffffffff161415610bf0576040517f08c379a0000000000000000000000000000000000000000000000000000000008152600401610be790611507565b60405180910390fd5b610bf981610cf1565b50565b600033905090565b6000600160008573ffffffffffffffffffffffffffffffffffffffff1673ffffffffffffffffffffffffffffffffffffffff1681526020019081526020016000205484308585604051602001610c5e95949392919061160a565b60405160208183030381529060405280519060200120600281905550600160008573ffffffffffffffffffffffffffffffffffffffff1673ffffffffffffffffffffffffffffffffffffffff1681526020019081526020016000205484308585604051602001610cd295949392919061160a565b6040516020818303038152906040528051906020012090509392505050565b60008060009054906101000a900473ffffffffffffffffffffffffffffffffffffffff169050816000806101000a81548173ffffffffffffffffffffffffffffffffffffffff021916908373ffffffffffffffffffffffffffffffffffffffff1602179055508173ffffffffffffffffffffffffffffffffffffffff168173ffffffffffffffffffffffffffffffffffffffff167f8be0079c531659141344cd1fd0a4f28419497f9722a3daafe3b4186f6b6457e060405160405180910390a35050565b6000604051905090565b600080fd5b600080fd5b600073ffffffffffffffffffffffffffffffffffffffff82169050919050565b6000610df482610dc9565b9050919050565b610e0481610de9565b8114610e0f57600080fd5b50565b600081359050610e2181610dfb565b92915050565b600080fd5b600080fd5b6000601f19601f8301169050919050565b7f4e487b7100000000000000000000000000000000000000000000000000000000600052604160045260246000fd5b610e7a82610e31565b810181811067ffffffffffffffff82111715610e9957610e98610e42565b5b80604052505050565b6000610eac610db5565b9050610eb88282610e71565b919050565b600067ffffffffffffffff821115610ed857610ed7610e42565b5b610ee182610e31565b9050602081019050919050565b82818337600083830152505050565b6000610f10610f0b84610ebd565b610ea2565b905082815260208101848484011115610f2c57610f2b610e2c565b5b610f37848285610eee565b509392505050565b600082601f830112610f5457610f53610e27565b5b8135610f64848260208601610efd565b91505092915050565b6000819050919050565b610f8081610f6d565b8114610f8b57600080fd5b50565b600081359050610f9d81610f77565b92915050565b6000819050919050565b610fb681610fa3565b8114610fc157600080fd5b50565b600081359050610fd381610fad565b92915050565b600060ff82169050919050565b610fef81610fd9565b8114610ffa57600080fd5b50565b60008135905061100c81610fe6565b92915050565b60008060008060008060c0878903121561102f5761102e610dbf565b5b600061103d89828a01610e12565b965050602087013567ffffffffffffffff81111561105e5761105d610dc4565b5b61106a89828a01610f3f565b955050604061107b89828a01610f8e565b945050606061108c89828a01610fc4565b935050608061109d89828a01610fc4565b92505060a06110ae89828a01610ffd565b9150509295509295509295565b60008115159050919050565b6110d0816110bb565b82525050565b60006020820190506110eb60008301846110c7565b92915050565b6110fa81610fa3565b82525050565b600060208201905061111560008301846110f1565b92915050565b61112481610de9565b82525050565b600060208201905061113f600083018461111b565b92915050565b60006020828403121561115b5761115a610dbf565b5b600061116984828501610e12565b91505092915050565b61117b81610f6d565b82525050565b60006020820190506111966000830184611172565b92915050565b600082825260208201905092915050565b7f6e6f742063616c6c65642062792044414f20636f6e7472616374000000000000600082015250565b60006111e3601a8361119c565b91506111ee826111ad565b602082019050919050565b60006020820190508181036000830152611212816111d6565b9050919050565b61122281610fd9565b82525050565b600060808201905061123d60008301876110f1565b61124a6020830186611219565b61125760408301856110f1565b61126460608301846110f1565b95945050505050565b7f5349474e4552204d555354204245205345525645520000000000000000000000600082015250565b60006112a360158361119c565b91506112ae8261126d565b602082019050919050565b600060208201905081810360008301526112d281611296565b9050919050565b7f4e487b7100000000000000000000000000000000000000000000000000000000600052601160045260246000fd5b600061131382610f6d565b91507fffffffffffffffffffffffffffffffffffffffffffffffffffffffffffffffff821415611346576113456112d9565b5b600182019050919050565b7f4f776e61626c653a2063616c6c6572206973206e6f7420746865206f776e6572600082015250565b600061138760208361119c565b915061139282611351565b602082019050919050565b600060208201905081810360008301526113b68161137a565b9050919050565b7f63616e277420736574206173207a65726f206164647265737300000000000000600082015250565b60006113f360198361119c565b91506113fe826113bd565b602082019050919050565b60006020820190508181036000830152611422816113e6565b9050919050565b7f6e6f742063616c6c6564206279204e465420636f6e7472616374000000000000600082015250565b600061145f601a8361119c565b915061146a82611429565b602082019050919050565b6000602082019050818103600083015261148e81611452565b9050919050565b7f4f776e61626c653a206e6577206f776e657220697320746865207a65726f206160008201527f6464726573730000000000000000000000000000000000000000000000000000602082015250565b60006114f160268361119c565b91506114fc82611495565b604082019050919050565b60006020820190508181036000830152611520816114e4565b9050919050565b6000819050919050565b61154261153d82610f6d565b611527565b82525050565b60008160601b9050919050565b600061156082611548565b9050919050565b600061157282611555565b9050919050565b61158a61158582610de9565b611567565b82525050565b600081519050919050565b600081905092915050565b60005b838110156115c45780820151818401526020810190506115a9565b838111156115d3576000848401525b50505050565b60006115e482611590565b6115ee818561159b565b93506115fe8185602086016115a6565b80840191505092915050565b60006116168288611531565b6020820191506116268287611579565b6014820191506116368286611579565b60148201915061164682856115d9565b91506116528284611531565b602082019150819050969550505050505056fea2646970667358221220a4eea929c06c099aa5ab23afe225235c1614b3636de7ef7d2fc47016a829960a64736f6c63430008090033",
  "immutableReferences": {},
  "source": "pragma solidity >=0.7.0 <0.9.0;\n\nimport \"@openzeppelin/contracts/access/Ownable.sol\";\n//import '@openzeppelin/contracts/utils/cryptography/ECDSA.sol';\n\ncontract Verify is Ownable{\n    //using ECDSA for bytes32;\n   \n   mapping (address => uint) public nonces;\n   bytes32 public checkHash;\n   bytes32 public finalHash;\n   address public serverAddress;\n   address public NFTAddress;\n   address public DAOAddress;\n   mapping (address => bool) public serverAddresses;\n  \n  \n  constructor(address _serverAddress) public {\n    serverAddress = _serverAddress;\n    serverAddresses[_serverAddress] = true;\n  }\n  \n  function getHash(address _mintAddress, string memory _tokenURI, uint256 _tokenId) internal returns (bytes32) {\n      checkHash = keccak256(abi.encodePacked(nonces[_mintAddress],_mintAddress, address(this), _tokenURI, _tokenId));\n    return keccak256(abi.encodePacked(nonces[_mintAddress],_mintAddress, address(this), _tokenURI, _tokenId));\n  }\n\n  function metaDataVerify(address _mintAddress, string memory _tokenURI, uint256 _tokenId, bytes32 r, bytes32 s, uint8 v) public returns(bool) {\n    require(_msgSender() == NFTAddress, \"not called by NFT contract\");\n    bytes32 hashRecover = getHash(_mintAddress, _tokenURI, _tokenId);\n    address signer = ecrecover(hashRecover, v, r, s);\n    require( serverAddresses[signer],\"SIGNER MUST BE SERVER\"); \n    nonces[_msgSender()]++;\n    return serverAddresses[signer];\n  }\n\n  function driverDataVerify(address ownerAddress, string memory rating, uint256 tokenId, bytes32 r, bytes32 s, uint8 v) public returns(bool){\n    require(_msgSender() == DAOAddress, \"not called by DAO contract\");\n    bytes32 hashRecover = getHash(ownerAddress, rating, tokenId);\n    address signer = ecrecover(hashRecover, v, r, s);\n    require( serverAddresses[signer],\"SIGNER MUST BE SERVER\"); \n    nonces[_msgSender()]++;\n    return serverAddresses[signer];\n  }\n\n  function setNFTAddress (address _NFTAddress) public onlyOwner{\n    require(_NFTAddress != address(0), \"can't set as zero address\");\n    NFTAddress = _NFTAddress;\n  }\n\n  function setDAOAddress (address _DAOAddress) public onlyOwner{\n    require(_DAOAddress != address(0), \"can't set as zero address\");\n    DAOAddress = _DAOAddress;\n  }\n    \n}",
  "sourcePath": "/home/jpick713/BlockChain_Apps/iotexPebbleDAO/contracts/Verify.sol",
  "compiler": {
    "name": "solc",
    "version": "0.8.9+commit.e5eed63a.Emscripten.clang"
  },
  "schemaVersion": "3.4.2",
  "updatedAt": "2021-10-27T17:38:37.266Z",
  "networkType": "ethereum",
  "devdoc": {
    "kind": "dev",
    "methods": {
      "owner()": {
        "details": "Returns the address of the current owner."
      },
      "renounceOwnership()": {
        "details": "Leaves the contract without owner. It will not be possible to call `onlyOwner` functions anymore. Can only be called by the current owner. NOTE: Renouncing ownership will leave the contract without an owner, thereby removing any functionality that is only available to the owner."
      },
      "transferOwnership(address)": {
        "details": "Transfers ownership of the contract to a new account (`newOwner`). Can only be called by the current owner."
      }
    },
    "version": 1
  },
  "userdoc": {
    "kind": "user",
    "methods": {},
    "version": 1
  }
}