{
  "contractName": "Verify",
  "abi": [
    {
      "inputs": [
        {
          "internalType": "address",
          "name": "_serverAddress",
          "type": "address"
        }
      ],
      "stateMutability": "nonpayable",
      "type": "constructor"
    },
    {
      "anonymous": false,
      "inputs": [
        {
          "indexed": true,
          "internalType": "address",
          "name": "previousOwner",
          "type": "address"
        },
        {
          "indexed": true,
          "internalType": "address",
          "name": "newOwner",
          "type": "address"
        }
      ],
      "name": "OwnershipTransferred",
      "type": "event"
    },
    {
      "inputs": [],
      "name": "DAOAddress",
      "outputs": [
        {
          "internalType": "address",
          "name": "",
          "type": "address"
        }
      ],
      "stateMutability": "view",
      "type": "function",
      "constant": true
    },
    {
      "inputs": [],
      "name": "NFTAddress",
      "outputs": [
        {
          "internalType": "address",
          "name": "",
          "type": "address"
        }
      ],
      "stateMutability": "view",
      "type": "function",
      "constant": true
    },
    {
      "inputs": [],
      "name": "checkHash",
      "outputs": [
        {
          "internalType": "bytes32",
          "name": "",
          "type": "bytes32"
        }
      ],
      "stateMutability": "view",
      "type": "function",
      "constant": true
    },
    {
      "inputs": [],
      "name": "finalHash",
      "outputs": [
        {
          "internalType": "bytes32",
          "name": "",
          "type": "bytes32"
        }
      ],
      "stateMutability": "view",
      "type": "function",
      "constant": true
    },
    {
      "inputs": [
        {
          "internalType": "address",
          "name": "",
          "type": "address"
        }
      ],
      "name": "nonces",
      "outputs": [
        {
          "internalType": "uint256",
          "name": "",
          "type": "uint256"
        }
      ],
      "stateMutability": "view",
      "type": "function",
      "constant": true
    },
    {
      "inputs": [],
      "name": "owner",
      "outputs": [
        {
          "internalType": "address",
          "name": "",
          "type": "address"
        }
      ],
      "stateMutability": "view",
      "type": "function",
      "constant": true
    },
    {
      "inputs": [],
      "name": "renounceOwnership",
      "outputs": [],
      "stateMutability": "nonpayable",
      "type": "function"
    },
    {
      "inputs": [],
      "name": "serverAddress",
      "outputs": [
        {
          "internalType": "address",
          "name": "",
          "type": "address"
        }
      ],
      "stateMutability": "view",
      "type": "function",
      "constant": true
    },
    {
      "inputs": [
        {
          "internalType": "address",
          "name": "",
          "type": "address"
        }
      ],
      "name": "serverAddresses",
      "outputs": [
        {
          "internalType": "bool",
          "name": "",
          "type": "bool"
        }
      ],
      "stateMutability": "view",
      "type": "function",
      "constant": true
    },
    {
      "inputs": [
        {
          "internalType": "address",
          "name": "newOwner",
          "type": "address"
        }
      ],
      "name": "transferOwnership",
      "outputs": [],
      "stateMutability": "nonpayable",
      "type": "function"
    },
    {
      "inputs": [
        {
          "internalType": "address",
          "name": "_mintAddress",
          "type": "address"
        },
        {
          "internalType": "string",
          "name": "_tokenURI",
          "type": "string"
        },
        {
          "internalType": "uint256",
          "name": "_tokenId",
          "type": "uint256"
        },
        {
          "internalType": "uint256",
          "name": "timeStamp",
          "type": "uint256"
        },
        {
          "internalType": "bytes32",
          "name": "r",
          "type": "bytes32"
        },
        {
          "internalType": "bytes32",
          "name": "s",
          "type": "bytes32"
        },
        {
          "internalType": "uint8",
          "name": "v",
          "type": "uint8"
        }
      ],
      "name": "metaDataVerify",
      "outputs": [
        {
          "internalType": "bool",
          "name": "",
          "type": "bool"
        }
      ],
      "stateMutability": "nonpayable",
      "type": "function"
    },
    {
      "inputs": [
        {
          "internalType": "address",
          "name": "ownerAddress",
          "type": "address"
        },
        {
          "internalType": "string",
          "name": "rating",
          "type": "string"
        },
        {
          "internalType": "uint256",
          "name": "tokenId",
          "type": "uint256"
        },
        {
          "internalType": "uint256",
          "name": "timeStamp",
          "type": "uint256"
        },
        {
          "internalType": "bytes32",
          "name": "r",
          "type": "bytes32"
        },
        {
          "internalType": "bytes32",
          "name": "s",
          "type": "bytes32"
        },
        {
          "internalType": "uint8",
          "name": "v",
          "type": "uint8"
        }
      ],
      "name": "driverDataVerify",
      "outputs": [
        {
          "internalType": "bool",
          "name": "",
          "type": "bool"
        }
      ],
      "stateMutability": "nonpayable",
      "type": "function"
    },
    {
      "inputs": [
        {
          "internalType": "address",
          "name": "_NFTAddress",
          "type": "address"
        }
      ],
      "name": "setNFTAddress",
      "outputs": [],
      "stateMutability": "nonpayable",
      "type": "function"
    },
    {
      "inputs": [
        {
          "internalType": "address",
          "name": "_DAOAddress",
          "type": "address"
        }
      ],
      "name": "setDAOAddress",
      "outputs": [],
      "stateMutability": "nonpayable",
      "type": "function"
    }
  ],
  "bytecode": "0x60806040523480156200001157600080fd5b50604051620019393803806200193983398181016040528101906200003791906200022d565b620000576200004b620000f760201b60201c565b620000ff60201b60201c565b80600460006101000a81548173ffffffffffffffffffffffffffffffffffffffff021916908373ffffffffffffffffffffffffffffffffffffffff1602179055506001600760008373ffffffffffffffffffffffffffffffffffffffff1673ffffffffffffffffffffffffffffffffffffffff16815260200190815260200160002060006101000a81548160ff021916908315150217905550506200025f565b600033905090565b60008060009054906101000a900473ffffffffffffffffffffffffffffffffffffffff169050816000806101000a81548173ffffffffffffffffffffffffffffffffffffffff021916908373ffffffffffffffffffffffffffffffffffffffff1602179055508173ffffffffffffffffffffffffffffffffffffffff168173ffffffffffffffffffffffffffffffffffffffff167f8be0079c531659141344cd1fd0a4f28419497f9722a3daafe3b4186f6b6457e060405160405180910390a35050565b600080fd5b600073ffffffffffffffffffffffffffffffffffffffff82169050919050565b6000620001f582620001c8565b9050919050565b6200020781620001e8565b81146200021357600080fd5b50565b6000815190506200022781620001fc565b92915050565b600060208284031215620002465762000245620001c3565b5b6000620002568482850162000216565b91505092915050565b6116ca806200026f6000396000f3fe608060405234801561001057600080fd5b50600436106100ea5760003560e01c8063bef688aa1161008c578063db420fe311610066578063db420fe314610239578063dccc471814610257578063ec49378114610275578063f2fde38b146102a5576100ea565b8063bef688aa146101bb578063d392eab1146101eb578063d735915114610209576100ea565b8063715018a6116100c8578063715018a6146101475780637ecebe00146101515780638da5cb5b14610181578063965afa891461019f576100ea565b806319483cd1146100ef578063310c87cc1461010d57806369d037381461012b575b600080fd5b6100f76102c1565b6040516101049190610dd7565b60405180910390f35b6101156102c7565b6040516101229190610e33565b60405180910390f35b61014560048036038101906101409190610e8e565b6102ed565b005b61014f61041d565b005b61016b60048036038101906101669190610e8e565b6104a5565b6040516101789190610ed4565b60405180910390f35b6101896104bd565b6040516101969190610e33565b60405180910390f35b6101b960048036038101906101b49190610e8e565b6104e6565b005b6101d560048036038101906101d091906110c6565b610616565b6040516101e2919061119f565b60405180910390f35b6101f3610856565b6040516102009190610e33565b60405180910390f35b610223600480360381019061021e91906110c6565b61087c565b604051610230919061119f565b60405180910390f35b610241610abc565b60405161024e9190610e33565b60405180910390f35b61025f610ae2565b60405161026c9190610dd7565b60405180910390f35b61028f600480360381019061028a9190610e8e565b610ae8565b60405161029c919061119f565b60405180910390f35b6102bf60048036038101906102ba9190610e8e565b610b08565b005b60025481565b600560009054906101000a900473ffffffffffffffffffffffffffffffffffffffff1681565b6102f5610c00565b73ffffffffffffffffffffffffffffffffffffffff166103136104bd565b73ffffffffffffffffffffffffffffffffffffffff1614610369576040517f08c379a000000000000000000000000000000000000000000000000000000000815260040161036090611217565b60405180910390fd5b600073ffffffffffffffffffffffffffffffffffffffff168173ffffffffffffffffffffffffffffffffffffffff1614156103d9576040517f08c379a00000000000000000000000000000000000000000000000000000000081526004016103d090611283565b60405180910390fd5b80600560006101000a81548173ffffffffffffffffffffffffffffffffffffffff021916908373ffffffffffffffffffffffffffffffffffffffff16021790555050565b610425610c00565b73ffffffffffffffffffffffffffffffffffffffff166104436104bd565b73ffffffffffffffffffffffffffffffffffffffff1614610499576040517f08c379a000000000000000000000000000000000000000000000000000000000815260040161049090611217565b60405180910390fd5b6104a36000610c08565b565b60016020528060005260406000206000915090505481565b60008060009054906101000a900473ffffffffffffffffffffffffffffffffffffffff16905090565b6104ee610c00565b73ffffffffffffffffffffffffffffffffffffffff1661050c6104bd565b73ffffffffffffffffffffffffffffffffffffffff1614610562576040517f08c379a000000000000000000000000000000000000000000000000000000000815260040161055990611217565b60405180910390fd5b600073ffffffffffffffffffffffffffffffffffffffff168173ffffffffffffffffffffffffffffffffffffffff1614156105d2576040517f08c379a00000000000000000000000000000000000000000000000000000000081526004016105c990611283565b60405180910390fd5b80600660006101000a81548173ffffffffffffffffffffffffffffffffffffffff021916908373ffffffffffffffffffffffffffffffffffffffff16021790555050565b6000600560009054906101000a900473ffffffffffffffffffffffffffffffffffffffff1673ffffffffffffffffffffffffffffffffffffffff16610659610c00565b73ffffffffffffffffffffffffffffffffffffffff16146106af576040517f08c379a00000000000000000000000000000000000000000000000000000000081526004016106a6906112ef565b60405180910390fd5b60006106bd89898989610ccc565b90506000600182858888604051600081526020016040526040516106e4949392919061131e565b6020604051602081039080840390855afa158015610706573d6000803e3d6000fd5b505050602060405103519050600760008273ffffffffffffffffffffffffffffffffffffffff1673ffffffffffffffffffffffffffffffffffffffff16815260200190815260200160002060009054906101000a900460ff1661079e576040517f08c379a0000000000000000000000000000000000000000000000000000000008152600401610795906113af565b60405180910390fd5b600160006107aa610c00565b73ffffffffffffffffffffffffffffffffffffffff1673ffffffffffffffffffffffffffffffffffffffff16815260200190815260200160002060008154809291906107f5906113fe565b9190505550600760008273ffffffffffffffffffffffffffffffffffffffff1673ffffffffffffffffffffffffffffffffffffffff16815260200190815260200160002060009054906101000a900460ff1692505050979650505050505050565b600660009054906101000a900473ffffffffffffffffffffffffffffffffffffffff1681565b6000600660009054906101000a900473ffffffffffffffffffffffffffffffffffffffff1673ffffffffffffffffffffffffffffffffffffffff166108bf610c00565b73ffffffffffffffffffffffffffffffffffffffff1614610915576040517f08c379a000000000000000000000000000000000000000000000000000000000815260040161090c90611493565b60405180910390fd5b600061092389898989610ccc565b905060006001828588886040516000815260200160405260405161094a949392919061131e565b6020604051602081039080840390855afa15801561096c573d6000803e3d6000fd5b505050602060405103519050600760008273ffffffffffffffffffffffffffffffffffffffff1673ffffffffffffffffffffffffffffffffffffffff16815260200190815260200160002060009054906101000a900460ff16610a04576040517f08c379a00000000000000000000000000000000000000000000000000000000081526004016109fb906113af565b60405180910390fd5b60016000610a10610c00565b73ffffffffffffffffffffffffffffffffffffffff1673ffffffffffffffffffffffffffffffffffffffff1681526020019081526020016000206000815480929190610a5b906113fe565b9190505550600760008273ffffffffffffffffffffffffffffffffffffffff1673ffffffffffffffffffffffffffffffffffffffff16815260200190815260200160002060009054906101000a900460ff1692505050979650505050505050565b600460009054906101000a900473ffffffffffffffffffffffffffffffffffffffff1681565b60035481565b60076020528060005260406000206000915054906101000a900460ff1681565b610b10610c00565b73ffffffffffffffffffffffffffffffffffffffff16610b2e6104bd565b73ffffffffffffffffffffffffffffffffffffffff1614610b84576040517f08c379a0000000000000000000000000000000000000000000000000000000008152600401610b7b90611217565b60405180910390fd5b600073ffffffffffffffffffffffffffffffffffffffff168173ffffffffffffffffffffffffffffffffffffffff161415610bf4576040517f08c379a0000000000000000000000000000000000000000000000000000000008152600401610beb90611525565b60405180910390fd5b610bfd81610c08565b50565b600033905090565b60008060009054906101000a900473ffffffffffffffffffffffffffffffffffffffff169050816000806101000a81548173ffffffffffffffffffffffffffffffffffffffff021916908373ffffffffffffffffffffffffffffffffffffffff1602179055508173ffffffffffffffffffffffffffffffffffffffff168173ffffffffffffffffffffffffffffffffffffffff167f8be0079c531659141344cd1fd0a4f28419497f9722a3daafe3b4186f6b6457e060405160405180910390a35050565b6000600160008673ffffffffffffffffffffffffffffffffffffffff1673ffffffffffffffffffffffffffffffffffffffff168152602001908152602001600020548530848787604051602001610d2896959493929190611628565b60405160208183030381529060405280519060200120600281905550600160008673ffffffffffffffffffffffffffffffffffffffff1673ffffffffffffffffffffffffffffffffffffffff168152602001908152602001600020548530848787604051602001610d9e96959493929190611628565b604051602081830303815290604052805190602001209050949350505050565b6000819050919050565b610dd181610dbe565b82525050565b6000602082019050610dec6000830184610dc8565b92915050565b600073ffffffffffffffffffffffffffffffffffffffff82169050919050565b6000610e1d82610df2565b9050919050565b610e2d81610e12565b82525050565b6000602082019050610e486000830184610e24565b92915050565b6000604051905090565b600080fd5b600080fd5b610e6b81610e12565b8114610e7657600080fd5b50565b600081359050610e8881610e62565b92915050565b600060208284031215610ea457610ea3610e58565b5b6000610eb284828501610e79565b91505092915050565b6000819050919050565b610ece81610ebb565b82525050565b6000602082019050610ee96000830184610ec5565b92915050565b600080fd5b600080fd5b6000601f19601f8301169050919050565b7f4e487b7100000000000000000000000000000000000000000000000000000000600052604160045260246000fd5b610f4282610ef9565b810181811067ffffffffffffffff82111715610f6157610f60610f0a565b5b80604052505050565b6000610f74610e4e565b9050610f808282610f39565b919050565b600067ffffffffffffffff821115610fa057610f9f610f0a565b5b610fa982610ef9565b9050602081019050919050565b82818337600083830152505050565b6000610fd8610fd384610f85565b610f6a565b905082815260208101848484011115610ff457610ff3610ef4565b5b610fff848285610fb6565b509392505050565b600082601f83011261101c5761101b610eef565b5b813561102c848260208601610fc5565b91505092915050565b61103e81610ebb565b811461104957600080fd5b50565b60008135905061105b81611035565b92915050565b61106a81610dbe565b811461107557600080fd5b50565b60008135905061108781611061565b92915050565b600060ff82169050919050565b6110a38161108d565b81146110ae57600080fd5b50565b6000813590506110c08161109a565b92915050565b600080600080600080600060e0888a0312156110e5576110e4610e58565b5b60006110f38a828b01610e79565b975050602088013567ffffffffffffffff81111561111457611113610e5d565b5b6111208a828b01611007565b96505060406111318a828b0161104c565b95505060606111428a828b0161104c565b94505060806111538a828b01611078565b93505060a06111648a828b01611078565b92505060c06111758a828b016110b1565b91505092959891949750929550565b60008115159050919050565b61119981611184565b82525050565b60006020820190506111b46000830184611190565b92915050565b600082825260208201905092915050565b7f4f776e61626c653a2063616c6c6572206973206e6f7420746865206f776e6572600082015250565b60006112016020836111ba565b915061120c826111cb565b602082019050919050565b60006020820190508181036000830152611230816111f4565b9050919050565b7f63616e277420736574206173207a65726f206164647265737300000000000000600082015250565b600061126d6019836111ba565b915061127882611237565b602082019050919050565b6000602082019050818103600083015261129c81611260565b9050919050565b7f6e6f742063616c6c6564206279204e465420636f6e7472616374000000000000600082015250565b60006112d9601a836111ba565b91506112e4826112a3565b602082019050919050565b60006020820190508181036000830152611308816112cc565b9050919050565b6113188161108d565b82525050565b60006080820190506113336000830187610dc8565b611340602083018661130f565b61134d6040830185610dc8565b61135a6060830184610dc8565b95945050505050565b7f5349474e4552204d555354204245205345525645520000000000000000000000600082015250565b60006113996015836111ba565b91506113a482611363565b602082019050919050565b600060208201905081810360008301526113c88161138c565b9050919050565b7f4e487b7100000000000000000000000000000000000000000000000000000000600052601160045260246000fd5b600061140982610ebb565b91507fffffffffffffffffffffffffffffffffffffffffffffffffffffffffffffffff82141561143c5761143b6113cf565b5b600182019050919050565b7f6e6f742063616c6c65642062792044414f20636f6e7472616374000000000000600082015250565b600061147d601a836111ba565b915061148882611447565b602082019050919050565b600060208201905081810360008301526114ac81611470565b9050919050565b7f4f776e61626c653a206e6577206f776e657220697320746865207a65726f206160008201527f6464726573730000000000000000000000000000000000000000000000000000602082015250565b600061150f6026836111ba565b915061151a826114b3565b604082019050919050565b6000602082019050818103600083015261153e81611502565b9050919050565b6000819050919050565b61156061155b82610ebb565b611545565b82525050565b60008160601b9050919050565b600061157e82611566565b9050919050565b600061159082611573565b9050919050565b6115a86115a382610e12565b611585565b82525050565b600081519050919050565b600081905092915050565b60005b838110156115e25780820151818401526020810190506115c7565b838111156115f1576000848401525b50505050565b6000611602826115ae565b61160c81856115b9565b935061161c8185602086016115c4565b80840191505092915050565b6000611634828961154f565b6020820191506116448288611597565b6014820191506116548287611597565b601482019150611664828661154f565b60208201915061167482856115f7565b9150611680828461154f565b60208201915081905097965050505050505056fea26469706673582212203ac1b9ef305736739e123fde0bb8e747e3f5a9be8833e5a6f988f590229150a264736f6c63430008090033",
  "immutableReferences": {},
  "source": "// SPDX-License-Identifier: MIT\npragma solidity >=0.7.0 <0.9.0;\n\nimport \"@openzeppelin/contracts/access/Ownable.sol\";\n//import '@openzeppelin/contracts/utils/cryptography/ECDSA.sol';\n\ncontract Verify is Ownable{\n    //using ECDSA for bytes32;\n   \n   mapping (address => uint) public nonces;\n   bytes32 public checkHash;\n   bytes32 public finalHash;\n   address public serverAddress;\n   address public NFTAddress;\n   address public DAOAddress;\n   mapping (address => bool) public serverAddresses;\n  \n  \n  constructor(address _serverAddress) public {\n    serverAddress = _serverAddress;\n    serverAddresses[_serverAddress] = true;\n  }\n  \n  function getHash(address _mintAddress, string memory _tokenURI, uint256 _tokenId, uint256 _timeStamp) internal returns (bytes32) {\n      checkHash = keccak256(abi.encodePacked(nonces[_mintAddress],_mintAddress, address(this), _timeStamp, _tokenURI, _tokenId));\n    return keccak256(abi.encodePacked(nonces[_mintAddress],_mintAddress, address(this), _timeStamp, _tokenURI, _tokenId));\n  }\n\n  function metaDataVerify(address _mintAddress, string memory _tokenURI, uint256 _tokenId, uint256 timeStamp, bytes32 r, bytes32 s, uint8 v) public returns(bool) {\n    require(_msgSender() == NFTAddress, \"not called by NFT contract\");\n    bytes32 hashRecover = getHash(_mintAddress, _tokenURI, _tokenId, timeStamp);\n    address signer = ecrecover(hashRecover, v, r, s);\n    require( serverAddresses[signer],\"SIGNER MUST BE SERVER\"); \n    nonces[_msgSender()]++;\n    return serverAddresses[signer];\n  }\n\n  function driverDataVerify(address ownerAddress, string memory rating, uint256 tokenId, uint256 timeStamp, bytes32 r, bytes32 s, uint8 v) public returns(bool){\n    require(_msgSender() == DAOAddress, \"not called by DAO contract\");\n    bytes32 hashRecover = getHash(ownerAddress, rating, tokenId, timeStamp);\n    address signer = ecrecover(hashRecover, v, r, s);\n    require( serverAddresses[signer],\"SIGNER MUST BE SERVER\"); \n    nonces[_msgSender()]++;\n    return serverAddresses[signer];\n  }\n\n  function setNFTAddress (address _NFTAddress) public onlyOwner{\n    require(_NFTAddress != address(0), \"can't set as zero address\");\n    NFTAddress = _NFTAddress;\n  }\n\n  function setDAOAddress (address _DAOAddress) public onlyOwner{\n    require(_DAOAddress != address(0), \"can't set as zero address\");\n    DAOAddress = _DAOAddress;\n  }\n    \n}",
  "sourcePath": "/home/jpick713/BlockChain_Apps/iotexPebbleDAO/contracts/Verify.sol",
  "compiler": {
    "name": "solc",
    "version": "0.8.9+commit.e5eed63a.Emscripten.clang"
  },
  "schemaVersion": "3.4.2",
  "updatedAt": "2021-10-29T18:53:04.471Z",
  "networkType": "ethereum",
  "devdoc": {
    "kind": "dev",
    "methods": {
      "owner()": {
        "details": "Returns the address of the current owner."
      },
      "renounceOwnership()": {
        "details": "Leaves the contract without owner. It will not be possible to call `onlyOwner` functions anymore. Can only be called by the current owner. NOTE: Renouncing ownership will leave the contract without an owner, thereby removing any functionality that is only available to the owner."
      },
      "transferOwnership(address)": {
        "details": "Transfers ownership of the contract to a new account (`newOwner`). Can only be called by the current owner."
      }
    },
    "version": 1
  },
  "userdoc": {
    "kind": "user",
    "methods": {},
    "version": 1
  }
}